{"contractName":"NFTMarket","abi":[{"anonymous":false,"inputs":[{"indexed":true,"internalType":"address","name":"seller","type":"address"},{"indexed":true,"internalType":"contract IERC721","name":"nftAddress","type":"address"},{"indexed":true,"internalType":"uint256","name":"nftID","type":"uint256"}],"name":"CancelledListing","type":"event"},{"anonymous":false,"inputs":[{"indexed":true,"internalType":"address","name":"seller","type":"address"},{"indexed":true,"internalType":"contract IERC721","name":"nftAddress","type":"address"},{"indexed":true,"internalType":"uint256","name":"nftID","type":"uint256"},{"indexed":false,"internalType":"uint256","name":"newPrice","type":"uint256"}],"name":"ListingPriceChange","type":"event"},{"anonymous":false,"inputs":[{"indexed":true,"internalType":"address","name":"seller","type":"address"},{"indexed":true,"internalType":"contract IERC721","name":"nftAddress","type":"address"},{"indexed":true,"internalType":"uint256","name":"nftID","type":"uint256"},{"indexed":false,"internalType":"uint256","name":"price","type":"uint256"}],"name":"NewListing","type":"event"},{"anonymous":false,"inputs":[{"indexed":true,"internalType":"address","name":"buyer","type":"address"},{"indexed":false,"internalType":"address","name":"seller","type":"address"},{"indexed":true,"internalType":"contract IERC721","name":"nftAddress","type":"address"},{"indexed":true,"internalType":"uint256","name":"nftID","type":"uint256"},{"indexed":false,"internalType":"uint256","name":"price","type":"uint256"}],"name":"PurchasedListing","type":"event"},{"anonymous":false,"inputs":[{"indexed":true,"internalType":"bytes32","name":"role","type":"bytes32"},{"indexed":true,"internalType":"bytes32","name":"previousAdminRole","type":"bytes32"},{"indexed":true,"internalType":"bytes32","name":"newAdminRole","type":"bytes32"}],"name":"RoleAdminChanged","type":"event"},{"anonymous":false,"inputs":[{"indexed":true,"internalType":"bytes32","name":"role","type":"bytes32"},{"indexed":true,"internalType":"address","name":"account","type":"address"},{"indexed":true,"internalType":"address","name":"sender","type":"address"}],"name":"RoleGranted","type":"event"},{"anonymous":false,"inputs":[{"indexed":true,"internalType":"bytes32","name":"role","type":"bytes32"},{"indexed":true,"internalType":"address","name":"account","type":"address"},{"indexed":true,"internalType":"address","name":"sender","type":"address"}],"name":"RoleRevoked","type":"event"},{"inputs":[],"name":"DEFAULT_ADMIN_ROLE","outputs":[{"internalType":"bytes32","name":"","type":"bytes32"}],"stateMutability":"view","type":"function"},{"inputs":[],"name":"GAME_ADMIN","outputs":[{"internalType":"bytes32","name":"","type":"bytes32"}],"stateMutability":"view","type":"function"},{"inputs":[],"name":"defaultTax","outputs":[{"internalType":"int128","name":"","type":"int128"}],"stateMutability":"view","type":"function"},{"inputs":[{"internalType":"bytes32","name":"role","type":"bytes32"}],"name":"getRoleAdmin","outputs":[{"internalType":"bytes32","name":"","type":"bytes32"}],"stateMutability":"view","type":"function"},{"inputs":[{"internalType":"bytes32","name":"role","type":"bytes32"},{"internalType":"uint256","name":"index","type":"uint256"}],"name":"getRoleMember","outputs":[{"internalType":"address","name":"","type":"address"}],"stateMutability":"view","type":"function"},{"inputs":[{"internalType":"bytes32","name":"role","type":"bytes32"}],"name":"getRoleMemberCount","outputs":[{"internalType":"uint256","name":"","type":"uint256"}],"stateMutability":"view","type":"function"},{"inputs":[{"internalType":"bytes32","name":"role","type":"bytes32"},{"internalType":"address","name":"account","type":"address"}],"name":"grantRole","outputs":[],"stateMutability":"nonpayable","type":"function"},{"inputs":[{"internalType":"bytes32","name":"role","type":"bytes32"},{"internalType":"address","name":"account","type":"address"}],"name":"hasRole","outputs":[{"internalType":"bool","name":"","type":"bool"}],"stateMutability":"view","type":"function"},{"inputs":[{"internalType":"address","name":"","type":"address"}],"name":"isTokenBanned","outputs":[{"internalType":"bool","name":"","type":"bool"}],"stateMutability":"view","type":"function"},{"inputs":[{"internalType":"address","name":"","type":"address"}],"name":"isUserBanned","outputs":[{"internalType":"bool","name":"","type":"bool"}],"stateMutability":"view","type":"function"},{"inputs":[{"internalType":"bytes32","name":"role","type":"bytes32"},{"internalType":"address","name":"account","type":"address"}],"name":"renounceRole","outputs":[],"stateMutability":"nonpayable","type":"function"},{"inputs":[{"internalType":"bytes32","name":"role","type":"bytes32"},{"internalType":"address","name":"account","type":"address"}],"name":"revokeRole","outputs":[],"stateMutability":"nonpayable","type":"function"},{"inputs":[],"name":"skillToken","outputs":[{"internalType":"contract IERC20","name":"","type":"address"}],"stateMutability":"view","type":"function"},{"inputs":[{"internalType":"address","name":"","type":"address"}],"name":"tax","outputs":[{"internalType":"int128","name":"","type":"int128"}],"stateMutability":"view","type":"function"},{"inputs":[],"name":"taxRecipient","outputs":[{"internalType":"address","name":"","type":"address"}],"stateMutability":"view","type":"function"},{"inputs":[{"internalType":"contract IERC20","name":"_skillToken","type":"address"},{"internalType":"address","name":"_taxRecipient","type":"address"}],"name":"initialize","outputs":[],"stateMutability":"nonpayable","type":"function"},{"inputs":[{"internalType":"contract Characters","name":"_charactersContract","type":"address"},{"internalType":"contract Weapons","name":"_weaponsContract","type":"address"}],"name":"migrateTo_a98a9ac","outputs":[],"stateMutability":"nonpayable","type":"function"},{"inputs":[{"internalType":"contract IERC721","name":"_tokenAddress","type":"address"}],"name":"isTokenAllowed","outputs":[{"internalType":"bool","name":"","type":"bool"}],"stateMutability":"view","type":"function"},{"inputs":[],"name":"getAllowedTokenTypes","outputs":[{"internalType":"contract IERC721[]","name":"","type":"address[]"}],"stateMutability":"view","type":"function"},{"inputs":[{"internalType":"contract IERC721","name":"_tokenAddress","type":"address"},{"internalType":"uint256","name":"_tokenId","type":"uint256"}],"name":"getSellerOfNftID","outputs":[{"internalType":"address","name":"","type":"address"}],"stateMutability":"view","type":"function"},{"inputs":[],"name":"defaultTaxAsRoundedPercentRoughEstimate","outputs":[{"internalType":"uint256","name":"","type":"uint256"}],"stateMutability":"view","type":"function"},{"inputs":[],"name":"getListedTokenTypes","outputs":[{"internalType":"contract IERC721[]","name":"","type":"address[]"}],"stateMutability":"view","type":"function"},{"inputs":[{"internalType":"contract IERC721","name":"_tokenAddress","type":"address"}],"name":"getListingIDs","outputs":[{"internalType":"uint256[]","name":"","type":"uint256[]"}],"stateMutability":"view","type":"function"},{"inputs":[{"internalType":"contract IERC721","name":"_tokenAddress","type":"address"},{"internalType":"uint8","name":"_limit","type":"uint8"},{"internalType":"uint256","name":"_pageNumber","type":"uint256"},{"internalType":"uint8","name":"_trait","type":"uint8"},{"internalType":"uint8","name":"_stars","type":"uint8"}],"name":"getWeaponListingIDsPage","outputs":[{"internalType":"uint256[]","name":"","type":"uint256[]"}],"stateMutability":"view","type":"function"},{"inputs":[{"internalType":"contract IERC721","name":"_tokenAddress","type":"address"},{"internalType":"uint8","name":"_limit","type":"uint8"},{"internalType":"uint256","name":"_pageNumber","type":"uint256"},{"internalType":"uint8","name":"_trait","type":"uint8"},{"internalType":"uint8","name":"_minLevel","type":"uint8"},{"internalType":"uint8","name":"_maxLevel","type":"uint8"}],"name":"getCharacterListingIDsPage","outputs":[{"internalType":"uint256[]","name":"","type":"uint256[]"}],"stateMutability":"view","type":"function"},{"inputs":[{"internalType":"contract IERC721","name":"_tokenAddress","type":"address"},{"internalType":"address","name":"_seller","type":"address"}],"name":"getNumberOfListingsBySeller","outputs":[{"internalType":"uint256","name":"","type":"uint256"}],"stateMutability":"view","type":"function"},{"inputs":[{"internalType":"contract IERC721","name":"_tokenAddress","type":"address"},{"internalType":"address","name":"_seller","type":"address"}],"name":"getListingIDsBySeller","outputs":[{"internalType":"uint256[]","name":"tokens","type":"uint256[]"}],"stateMutability":"view","type":"function"},{"inputs":[{"internalType":"contract IERC721","name":"_tokenAddress","type":"address"}],"name":"getNumberOfListingsForToken","outputs":[{"internalType":"uint256","name":"","type":"uint256"}],"stateMutability":"view","type":"function"},{"inputs":[{"internalType":"contract IERC721","name":"_tokenAddress","type":"address"},{"internalType":"uint8","name":"_trait","type":"uint8"},{"internalType":"uint8","name":"_minLevel","type":"uint8"},{"internalType":"uint8","name":"_maxLevel","type":"uint8"}],"name":"getNumberOfCharacterListings","outputs":[{"internalType":"uint256","name":"","type":"uint256"}],"stateMutability":"view","type":"function"},{"inputs":[{"internalType":"contract IERC721","name":"_tokenAddress","type":"address"},{"internalType":"uint8","name":"_trait","type":"uint8"},{"internalType":"uint8","name":"_stars","type":"uint8"}],"name":"getNumberOfWeaponListings","outputs":[{"internalType":"uint256","name":"","type":"uint256"}],"stateMutability":"view","type":"function"},{"inputs":[{"internalType":"contract IERC721","name":"_tokenAddress","type":"address"},{"internalType":"uint256","name":"_id","type":"uint256"}],"name":"getSellerPrice","outputs":[{"internalType":"uint256","name":"","type":"uint256"}],"stateMutability":"view","type":"function"},{"inputs":[{"internalType":"contract IERC721","name":"_tokenAddress","type":"address"},{"internalType":"uint256","name":"_id","type":"uint256"}],"name":"getFinalPrice","outputs":[{"internalType":"uint256","name":"","type":"uint256"}],"stateMutability":"view","type":"function"},{"inputs":[{"internalType":"contract IERC721","name":"_tokenAddress","type":"address"},{"internalType":"uint256","name":"_id","type":"uint256"}],"name":"getTaxOnListing","outputs":[{"internalType":"uint256","name":"","type":"uint256"}],"stateMutability":"view","type":"function"},{"inputs":[{"internalType":"contract IERC721","name":"_tokenAddress","type":"address"},{"internalType":"uint256","name":"start","type":"uint256"},{"internalType":"uint256","name":"length","type":"uint256"}],"name":"getListingSlice","outputs":[{"internalType":"uint256","name":"returnedCount","type":"uint256"},{"internalType":"uint256[]","name":"ids","type":"uint256[]"},{"internalType":"address[]","name":"sellers","type":"address[]"},{"internalType":"uint256[]","name":"prices","type":"uint256[]"}],"stateMutability":"view","type":"function"},{"inputs":[{"internalType":"contract IERC721","name":"_tokenAddress","type":"address"},{"internalType":"uint256","name":"_id","type":"uint256"},{"internalType":"uint256","name":"_price","type":"uint256"}],"name":"addListing","outputs":[],"stateMutability":"nonpayable","type":"function"},{"inputs":[{"internalType":"contract IERC721","name":"_tokenAddress","type":"address"},{"internalType":"uint256","name":"_id","type":"uint256"},{"internalType":"uint256","name":"_newPrice","type":"uint256"}],"name":"changeListingPrice","outputs":[],"stateMutability":"nonpayable","type":"function"},{"inputs":[{"internalType":"contract IERC721","name":"_tokenAddress","type":"address"},{"internalType":"uint256","name":"_id","type":"uint256"}],"name":"cancelListing","outputs":[],"stateMutability":"nonpayable","type":"function"},{"inputs":[{"internalType":"contract IERC721","name":"_tokenAddress","type":"address"},{"internalType":"uint256","name":"_id","type":"uint256"},{"internalType":"uint256","name":"_maxPrice","type":"uint256"}],"name":"purchaseListing","outputs":[],"stateMutability":"nonpayable","type":"function"},{"inputs":[{"internalType":"address","name":"_taxRecipient","type":"address"}],"name":"setTaxRecipient","outputs":[],"stateMutability":"nonpayable","type":"function"},{"inputs":[{"internalType":"int128","name":"_defaultTax","type":"int128"}],"name":"setDefaultTax","outputs":[],"stateMutability":"nonpayable","type":"function"},{"inputs":[{"internalType":"uint256","name":"_numerator","type":"uint256"},{"internalType":"uint256","name":"_denominator","type":"uint256"}],"name":"setDefaultTaxAsRational","outputs":[],"stateMutability":"nonpayable","type":"function"},{"inputs":[{"internalType":"uint256","name":"_percent","type":"uint256"}],"name":"setDefaultTaxAsPercent","outputs":[],"stateMutability":"nonpayable","type":"function"},{"inputs":[{"internalType":"contract IERC721","name":"_tokenAddress","type":"address"},{"internalType":"int128","name":"_newTax","type":"int128"}],"name":"setTaxOnTokenType","outputs":[],"stateMutability":"nonpayable","type":"function"},{"inputs":[{"internalType":"contract IERC721","name":"_tokenAddress","type":"address"},{"internalType":"uint256","name":"_numerator","type":"uint256"},{"internalType":"uint256","name":"_denominator","type":"uint256"}],"name":"setTaxOnTokenTypeAsRational","outputs":[],"stateMutability":"nonpayable","type":"function"},{"inputs":[{"internalType":"contract IERC721","name":"_tokenAddress","type":"address"},{"internalType":"uint256","name":"_percent","type":"uint256"}],"name":"setTaxOnTokenTypeAsPercent","outputs":[],"stateMutability":"nonpayable","type":"function"},{"inputs":[{"internalType":"address","name":"user","type":"address"},{"internalType":"bool","name":"to","type":"bool"}],"name":"setUserBan","outputs":[],"stateMutability":"nonpayable","type":"function"},{"inputs":[{"internalType":"address[]","name":"users","type":"address[]"},{"internalType":"bool","name":"to","type":"bool"}],"name":"setUserBans","outputs":[],"stateMutability":"nonpayable","type":"function"},{"inputs":[{"internalType":"contract IERC721","name":"_tokenAddress","type":"address"}],"name":"allowToken","outputs":[],"stateMutability":"nonpayable","type":"function"},{"inputs":[{"internalType":"contract IERC721","name":"_tokenAddress","type":"address"}],"name":"disallowToken","outputs":[],"stateMutability":"nonpayable","type":"function"},{"inputs":[{"internalType":"uint256","name":"amount","type":"uint256"}],"name":"recoverSkill","outputs":[],"stateMutability":"nonpayable","type":"function"},{"inputs":[{"internalType":"address","name":"","type":"address"},{"internalType":"address","name":"","type":"address"},{"internalType":"uint256","name":"_id","type":"uint256"},{"internalType":"bytes","name":"","type":"bytes"}],"name":"onERC721Received","outputs":[{"internalType":"bytes4","name":"","type":"bytes4"}],"stateMutability":"nonpayable","type":"function"}],"bytecode":"0x608060405234801561001057600080fd5b5061423c806100206000396000f3fe608060405234801561001057600080fd5b50600436106102f05760003560e01c80637ff57c571161019d578063ca15c873116100e9578063d739d8bc116100a2578063e79767af1161007c578063e79767af14610c6c578063ed9999ca14610c92578063f6d36ccb14610cc4578063f9eaee0d14610cf6576102f0565b8063d739d8bc14610c0a578063d9db220d14610c38578063e4ca10dc14610c64576102f0565b8063ca15c87314610b0d578063cb8da19314610b2a578063cc8efb1414610b6f578063d1ebdfd314610b95578063d547741f14610b9d578063d679756214610bc9576102f0565b8063a5bc363211610156578063b53472ef11610130578063b53472ef14610a70578063bb782e7314610a96578063c573a97e14610abc578063c7e4ff4214610adf576102f0565b8063a5bc3632146109e0578063a6f9572614610a12578063b2ddee0614610a44576102f0565b80637ff57c57146108f557806386c51fa9146109235780639010d07c1461094f57806391d14854146109725780639ed9b4fd146109b2578063a217fddf146109d8576102f0565b806339378fb31161025c57806366a417fe1161021557806374c7b328116101ef57806374c7b328146107d55780637899d80f1461080457806378e3079e1461082a578063799e6b6114610850576102f0565b806366a417fe1461078e5780636891de07146107c5578063737ea06e146107cd576102f0565b806339378fb31461069e5780633b75a46a146106ed578063485cc9551461070d578063546b45ac1461073b5780635504d3d21461076957806364d6786814610771576102f0565b8063248a9ca3116102ae578063248a9ca31461058f57806327314473146105ac5780632df8c04a146105f45780632f2ff15d1461062057806335e0406f1461064c57806336568abe14610672576102f0565b80621e9187146102f55780630bb99c5714610333578063150b7a02146103545780631a10c902146104015780631ac0bab0146104595780631eb788f514610478575b600080fd5b6103216004803603604081101561030b57600080fd5b506001600160a01b038135169060200135610d1c565b60408051918252519081900360200190f35b61033b610d4a565b60408051600f92830b90920b8252519081900360200190f35b6103e46004803603608081101561036a57600080fd5b6001600160a01b038235811692602081013590911691604082013591908101906080810160608201356401000000008111156103a557600080fd5b8201836020820111156103b757600080fd5b803590602001918460018302840111640100000000831117156103d957600080fd5b509092509050610d53565b604080516001600160e01b03199092168252519081900360200190f35b610409610df0565b60408051602080825283518183015283519192839290830191858101910280838360005b8381101561044557818101518382015260200161042d565b505050509050019250505060405180910390f35b6104766004803603602081101561046f57600080fd5b5035610e90565b005b6104aa6004803603606081101561048e57600080fd5b506001600160a01b038135169060208101359060400135610f2e565b60405180858152602001806020018060200180602001848103845287818151815260200191508051906020019060200280838360005b838110156104f85781810151838201526020016104e0565b50505050905001848103835286818151815260200191508051906020019060200280838360005b8381101561053757818101518382015260200161051f565b50505050905001848103825285818151815260200191508051906020019060200280838360005b8381101561057657818101518382015260200161055e565b5050505090500197505050505050505060405180910390f35b610321600480360360208110156105a557600080fd5b5035611117565b6105d8600480360360408110156105c257600080fd5b506001600160a01b03813516906020013561112c565b604080516001600160a01b039092168252519081900360200190f35b6103216004803603604081101561060a57600080fd5b506001600160a01b0381351690602001356111a8565b6104766004803603604081101561063657600080fd5b50803590602001356001600160a01b03166111de565b6104096004803603602081101561066257600080fd5b50356001600160a01b031661124a565b6104766004803603604081101561068857600080fd5b50803590602001356001600160a01b03166112f5565b610409600480360360c08110156106b457600080fd5b506001600160a01b038135169060ff60208201358116916040810135916060820135811691608081013582169160a09091013516611356565b6104766004803603602081101561070357600080fd5b5035600f0b6115e0565b6104766004803603604081101561072357600080fd5b506001600160a01b0381358116916020013516611672565b6103216004803603604081101561075157600080fd5b506001600160a01b038135811691602001351661178a565b61032161181b565b6104766004803603602081101561078757600080fd5b503561183d565b610321600480360360608110156107a457600080fd5b506001600160a01b038135169060ff602082013581169160400135166118c8565b610321611a51565b6105d8611a74565b610476600480360360408110156107eb57600080fd5b506001600160a01b038135169060200135600f0b611a83565b61033b6004803603602081101561081a57600080fd5b50356001600160a01b0316611b13565b6104766004803603602081101561084057600080fd5b50356001600160a01b0316611b28565b6104766004803603604081101561086657600080fd5b81019060208101813564010000000081111561088157600080fd5b82018360208201111561089357600080fd5b803590602001918460208302840111640100000000831117156108b557600080fd5b9190808060200260200160405190810160405280939291908181526020018383602002808284376000920191909152509295505050503515159050611bb5565b6104766004803603604081101561090b57600080fd5b506001600160a01b0381358116916020013516611c77565b6104766004803603604081101561093957600080fd5b506001600160a01b038135169060200135611ced565b6105d86004803603604081101561096557600080fd5b5080359060200135611d87565b61099e6004803603604081101561098857600080fd5b50803590602001356001600160a01b0316611da5565b604080519115158252519081900360200190f35b61099e600480360360208110156109c857600080fd5b50356001600160a01b0316611dc3565b610321611dd8565b610476600480360360608110156109f657600080fd5b506001600160a01b038135169060208101359060400135611ddd565b61047660048036036060811015610a2857600080fd5b506001600160a01b038135169060208101359060400135611e77565b61047660048036036040811015610a5a57600080fd5b506001600160a01b0381351690602001356121cb565b61047660048036036020811015610a8657600080fd5b50356001600160a01b031661244d565b61099e60048036036020811015610aac57600080fd5b50356001600160a01b03166124e4565b61047660048036036040811015610ad257600080fd5b50803590602001356124f9565b61047660048036036040811015610af557600080fd5b506001600160a01b0381351690602001351515612597565b61032160048036036020811015610b2357600080fd5b503561262d565b610409600480360360a0811015610b4057600080fd5b506001600160a01b038135169060ff602082013581169160408101359160608201358116916080013516612644565b61032160048036036020811015610b8557600080fd5b50356001600160a01b03166128ac565b6105d86128cd565b61047660048036036040811015610bb357600080fd5b50803590602001356001600160a01b03166128dc565b61032160048036036080811015610bdf57600080fd5b506001600160a01b038135169060ff6020820135811691604081013582169160609091013516612935565b61040960048036036040811015610c2057600080fd5b506001600160a01b0381358116916020013516612adf565b61032160048036036040811015610c4e57600080fd5b506001600160a01b038135169060200135612bd6565b610409612bfb565b61047660048036036020811015610c8257600080fd5b50356001600160a01b0316612c94565b61047660048036036060811015610ca857600080fd5b506001600160a01b038135169060208101359060400135612d10565b61047660048036036060811015610cda57600080fd5b506001600160a01b038135169060208101359060400135612ec6565b61099e60048036036020811015610d0c57600080fd5b50356001600160a01b03166132ba565b6001600160a01b03821660009081526067602090815260408083208484529091529020600101545b92915050565b606f54600f0b81565b600033610d6760698263ffffffff6132cd16565b8015610d9657506001600160a01b0381166000908152606860205260409020610d96908663ffffffff6132e216565b610ddd576040805162461bcd60e51b8152602060048201526013602482015272151bdad95b881251081b9bdd081b1a5cdd1959606a1b604482015290519081900360640190fd5b50630a85bd0160e11b9695505050505050565b6060607081610dfe826132ee565b67ffffffffffffffff81118015610e1457600080fd5b50604051908082528060200260200182016040528015610e3e578160200160208202803683370190505b50905060005b8151811015610e8957610e5d838263ffffffff6132f916565b828281518110610e6957fe5b6001600160a01b0390921660209283029190910190910152600101610e44565b5091505090565b604080516923a0a6a2afa0a226a4a760b11b8152905190819003600a019020610eb99033611da5565b610efb576040805162461bcd60e51b815260206004820152600e60248201526d2737ba1033b0b6b29030b236b4b760911b604482015290519081900360640190fd5b610f06816064613305565b606f8054600f9290920b6001600160801b03166001600160801b031990921691909117905550565b80606080808367ffffffffffffffff81118015610f4a57600080fd5b50604051908082528060200260200182016040528015610f74578160200160208202803683370190505b5092508467ffffffffffffffff81118015610f8e57600080fd5b50604051908082528060200260200182016040528015610fb8578160200160208202803683370190505b5091508467ffffffffffffffff81118015610fd257600080fd5b50604051908082528060200260200182016040528015610ffc578160200160208202803683370190505b506001600160a01b038816600090815260686020526040812091925090875b87890181101561110a5761102e826132ee565b811061103f575090945061110e9050565b6000611051838363ffffffff6132f916565b905061105b61409a565b506001600160a01b03808c16600090815260676020908152604080832085845282529182902082518084019093528054909316825260019092015491810191909152875182908990879081106110ad57fe5b60200260200101818152505080600001518786815181106110ca57fe5b6001600160a01b0390921660209283029190910182015281015186516001870196889181106110f557fe5b6020908102919091010152505060010161101b565b5050505b93509350935093565b60009081526033602052604090206002015490565b600061113f60698463ffffffff6132cd16565b61114b57506000610d44565b6001600160a01b0383166000908152606860205260409020611173908363ffffffff6132e216565b61117f57506000610d44565b506001600160a01b03918216600090815260676020908152604080832093835292905220541690565b6001600160a01b0382166000908152606d60205260408120546111d790600f0b6111d28585610d1c565b613345565b9392505050565b600082815260336020526040902060020154611201906111fc6133ad565b611da5565b61123c5760405162461bcd60e51b815260040180806020018281038252602f8152602001806140d4602f913960400191505060405180910390fd5b61124682826133b1565b5050565b6001600160a01b03811660009081526068602052604090206060908161126f826132ee565b67ffffffffffffffff8111801561128557600080fd5b506040519080825280602002602001820160405280156112af578160200160208202803683370190505b50905060005b81518110156112ed576112ce838263ffffffff6132f916565b8282815181106112da57fe5b60209081029190910101526001016112b5565b509392505050565b6112fd6133ad565b6001600160a01b0316816001600160a01b03161461134c5760405162461bcd60e51b815260040180806020018281038252602f8152602001806141d8602f913960400191505060405180910390fd5b6112468282613420565b6001600160a01b038616600090815260686020526040812060609161137d89878787612935565b905060ff881660018801026000818310156113ac576113a78360ff8c168b0263ffffffff61348f16565b6113b1565b8960ff165b905060608167ffffffffffffffff811180156113cc57600080fd5b506040519080825280602002602001820160405280156113f6578160200160208202803683370190505b509050600080805b611407886132ee565b8110801561141457508583105b156115cd576073546000906001600160a01b031663acb586df61143d8b8563ffffffff6132f916565b6040518263ffffffff1660e01b81526004018082815260200191505060206040518083038186803b15801561147157600080fd5b505afa158015611485573d6000803e3d6000fd5b505050506040513d602081101561149b57600080fd5b50516073549091506000906001600160a01b03166386481d406114c48c8663ffffffff6132f916565b6040518263ffffffff1660e01b81526004018082815260200191505060206040518083038186803b1580156114f857600080fd5b505afa15801561150c573d6000803e3d6000fd5b505050506040513d602081101561152257600080fd5b5051905060ff808f16148061153c57508d60ff168260ff16145b801561157a57508c60ff1660ff148061155857508b60ff1660ff145b8061157a57508c60ff168160ff161015801561157a57508b60ff168160ff1611155b156115c3578f60ff16880385106115bc5761159b8a8463ffffffff6132f916565b868560ff16815181106115aa57fe5b60209081029190910101526001909301925b6001909401935b50506001016113fe565b50919d9c50505050505050505050505050565b604080516923a0a6a2afa0a226a4a760b11b8152905190819003600a0190206116099033611da5565b61164b576040805162461bcd60e51b815260206004820152600e60248201526d2737ba1033b0b6b29030b236b4b760911b604482015290519081900360640190fd5b606f8054600f9290920b6001600160801b03166001600160801b0319909216919091179055565b600054610100900460ff168061168b575061168b6134ec565b80611699575060005460ff16155b6116d45760405162461bcd60e51b815260040180806020018281038252602e815260200180614159602e913960400191505060405180910390fd5b600054610100900460ff161580156116ff576000805460ff1961ff0019909116610100171660011790555b6117076134fd565b61171260003361123c565b606580546001600160a01b038086166001600160a01b031992831617909255606680549285169290911691909117905561174e6001600a613305565b606f8054600f9290920b6001600160801b03166001600160801b03199092169190911790558015611785576000805461ff00191690555b505050565b6001600160a01b038216600090815260686020526040812081805b6117ae836132ee565b811015611812576001600160a01b03868116600090815260676020526040812091871691906117e3868563ffffffff6132f916565b81526020810191909152604001600020546001600160a01b0316141561180a576001909101905b6001016117a5565b50949350505050565b604080516923a0a6a2afa0a226a4a760b11b8152905190819003600a01902081565b604080516923a0a6a2afa0a226a4a760b11b8152905190819003600a0190206118669033611da5565b6118a8576040805162461bcd60e51b815260206004820152600e60248201526d2737ba1033b0b6b29030b236b4b760911b604482015290519081900360640190fd5b6065546118c5906001600160a01b0316338363ffffffff6135ae16565b50565b6001600160a01b0383166000908152606860205260408120818080805b6118ee856132ee565b811015611a44576072546001600160a01b031663acb586df611916878463ffffffff6132f916565b6040518263ffffffff1660e01b81526004018082815260200191505060206040518083038186803b15801561194a57600080fd5b505afa15801561195e573d6000803e3d6000fd5b505050506040513d602081101561197457600080fd5b50516072549093506001600160a01b031663adf04f2061199a878463ffffffff6132f916565b6040518263ffffffff1660e01b81526004018082815260200191505060206040518083038186803b1580156119ce57600080fd5b505afa1580156119e2573d6000803e3d6000fd5b505050506040513d60208110156119f857600080fd5b5051915060ff8089161480611a1257508760ff168360ff16145b8015611a3057508660ff1660ff1480611a3057508660ff168260ff16145b15611a3c576001909301925b6001016118e5565b5091979650505050505050565b606f54600090611a6f90600f90810b900b606463ffffffff61334516565b905090565b6066546001600160a01b031681565b604080516923a0a6a2afa0a226a4a760b11b8152905190819003600a019020611aac9033611da5565b611aee576040805162461bcd60e51b815260206004820152600e60248201526d2737ba1033b0b6b29030b236b4b760911b604482015290519081900360640190fd5b81611b00816380ac58cd60e01b613600565b611b0957600080fd5b611785838361361c565b606d60205260009081526040902054600f0b81565b604080516923a0a6a2afa0a226a4a760b11b8152905190819003600a019020611b519033611da5565b611b93576040805162461bcd60e51b815260206004820152600e60248201526d2737ba1033b0b6b29030b236b4b760911b604482015290519081900360640190fd5b606680546001600160a01b0319166001600160a01b0392909216919091179055565b604080516923a0a6a2afa0a226a4a760b11b8152905190819003600a019020611bde9033611da5565b611c20576040805162461bcd60e51b815260206004820152600e60248201526d2737ba1033b0b6b29030b236b4b760911b604482015290519081900360640190fd5b60005b82518110156117855781606c6000858481518110611c3d57fe5b6020908102919091018101516001600160a01b03168252810191909152604001600020805460ff1916911515919091179055600101611c23565b611c82600033611da5565b611cbf576040805162461bcd60e51b81526020600482015260096024820152682737ba1030b236b4b760b91b604482015290519081900360640190fd5b607380546001600160a01b039384166001600160a01b03199182161790915560728054929093169116179055565b604080516923a0a6a2afa0a226a4a760b11b8152905190819003600a019020611d169033611da5565b611d58576040805162461bcd60e51b815260206004820152600e60248201526d2737ba1033b0b6b29030b236b4b760911b604482015290519081900360640190fd5b81611d6a816380ac58cd60e01b613600565b611d7357600080fd5b61178583611d82846064613305565b61361c565b60008281526033602052604081206111d7908363ffffffff6132f916565b60008281526033602052604081206111d7908363ffffffff6132cd16565b606c6020526000908152604090205460ff1681565b600081565b604080516923a0a6a2afa0a226a4a760b11b8152905190819003600a019020611e069033611da5565b611e48576040805162461bcd60e51b815260206004820152600e60248201526d2737ba1033b0b6b29030b236b4b760911b604482015290519081900360640190fd5b82611e5a816380ac58cd60e01b613600565b611e6357600080fd5b611e7184611d828585613305565b50505050565b336000908152606c602052604090205460ff1615611ecf576040805162461bcd60e51b815260206004820152601060248201526f466f7262696464656e2061636365737360801b604482015290519081900360640190fd5b8282611ee260698363ffffffff6132cd16565b8015611f1157506001600160a01b0382166000908152606860205260409020611f11908263ffffffff6132e216565b611f58576040805162461bcd60e51b8152602060048201526013602482015272151bdad95b881251081b9bdd081b1a5cdd1959606a1b604482015290519081900360640190fd5b6000611f648686612bd6565b905083811115611fb2576040805162461bcd60e51b8152602060048201526014602482015273427579696e6720707269636520746f6f206c6f7760601b604482015290519081900360640190fd5b611fba61409a565b506001600160a01b0380871660009081526067602090815260408083208984528252808320815180830183528154909516808652600190910154858401528352606c90915290205460ff1615612047576040805162461bcd60e51b815260206004820152600d60248201526c2130b73732b21039b2b63632b960991b604482015290519081900360640190fd5b600061205388886111a8565b6001600160a01b03891660008181526067602090815260408083208c8452825280832080546001600160a01b031916815560010183905592825260689052209091506120a5908863ffffffff6136cb16565b506120af886136d7565b6066546065546120d4916001600160a01b03918216913391168463ffffffff61371516565b81516121069033906120ec868563ffffffff61348f16565b6065546001600160a01b031692919063ffffffff61371516565b60408051632142170760e11b81523060048201523360248201526044810189905290516001600160a01b038a16916342842e0e91606480830192600092919082900301818387803b15801561215a57600080fd5b505af115801561216e573d6000803e3d6000fd5b50508351604080516001600160a01b0392831681526020810188905281518c9550928d16935033927f7762d23dc0afc60972698afa4f7ab7e5853e961dad5c968fe29b0fd3b14fffb5929181900390910190a45050505050505050565b336000908152606c602052604090205460ff1615612223576040805162461bcd60e51b815260206004820152601060248201526f466f7262696464656e2061636365737360801b604482015290519081900360640190fd5b818161223660698363ffffffff6132cd16565b801561226557506001600160a01b0382166000908152606860205260409020612265908263ffffffff6132e216565b6122ac576040805162461bcd60e51b8152602060048201526013602482015272151bdad95b881251081b9bdd081b1a5cdd1959606a1b604482015290519081900360640190fd5b6001600160a01b03808516600090815260676020908152604080832087845290915290205485918591163314806123075750604080516923a0a6a2afa0a226a4a760b11b8152905190819003600a0190206123079033611da5565b612348576040805162461bcd60e51b815260206004820152600d60248201526c1058d8d95cdcc819195b9a5959609a1b604482015290519081900360640190fd5b6001600160a01b0386166000818152606760209081526040808320898452825280832080546001600160a01b03191681556001018390559282526068905220612397908663ffffffff6136cb16565b506123a1866136d7565b60408051632142170760e11b81523060048201523360248201526044810187905290516001600160a01b038816916342842e0e91606480830192600092919082900301818387803b1580156123f557600080fd5b505af1158015612409573d6000803e3d6000fd5b50506040518792506001600160a01b038916915033907fd66e7fc4b7515678684c4cbafb29ad2dbe872f0d8913ac2227c7cfead5d6923490600090a4505050505050565b604080516923a0a6a2afa0a226a4a760b11b8152905190819003600a0190206124769033611da5565b6124b8576040805162461bcd60e51b815260206004820152600e60248201526d2737ba1033b0b6b29030b236b4b760911b604482015290519081900360640190fd5b806124ca816380ac58cd60e01b613600565b6124d357600080fd5b61178560708363ffffffff61376f16565b606b6020526000908152604090205460ff1681565b604080516923a0a6a2afa0a226a4a760b11b8152905190819003600a0190206125229033611da5565b612564576040805162461bcd60e51b815260206004820152600e60248201526d2737ba1033b0b6b29030b236b4b760911b604482015290519081900360640190fd5b61256e8282613305565b606f8054600f9290920b6001600160801b03166001600160801b03199092169190911790555050565b604080516923a0a6a2afa0a226a4a760b11b8152905190819003600a0190206125c09033611da5565b612602576040805162461bcd60e51b815260206004820152600e60248201526d2737ba1033b0b6b29030b236b4b760911b604482015290519081900360640190fd5b6001600160a01b03919091166000908152606c60205260409020805460ff1916911515919091179055565b6000818152603360205260408120610d44906132ee565b6001600160a01b038516600090815260686020526040812060609161266a8886866118c8565b905060ff87166001870102600081831015612699576126948360ff8b168a0263ffffffff61348f16565b61269e565b8860ff165b905060608167ffffffffffffffff811180156126b957600080fd5b506040519080825280602002602001820160405280156126e3578160200160208202803683370190505b509050600080805b6126f4886132ee565b8110801561270157508583105b1561289a576072546000906001600160a01b031663acb586df61272a8b8563ffffffff6132f916565b6040518263ffffffff1660e01b81526004018082815260200191505060206040518083038186803b15801561275e57600080fd5b505afa158015612772573d6000803e3d6000fd5b505050506040513d602081101561278857600080fd5b50516072549091506000906001600160a01b031663adf04f206127b18c8663ffffffff6132f916565b6040518263ffffffff1660e01b81526004018082815260200191505060206040518083038186803b1580156127e557600080fd5b505afa1580156127f9573d6000803e3d6000fd5b505050506040513d602081101561280f57600080fd5b5051905060ff808e16148061282957508c60ff168260ff16145b801561284757508b60ff1660ff148061284757508b60ff168160ff16145b15612890578e60ff1688038510612889576128688a8463ffffffff6132f916565b868560ff168151811061287757fe5b60209081029190910101526001909301925b6001909401935b50506001016126eb565b50919c9b505050505050505050505050565b6001600160a01b0381166000908152606860205260408120610d44906132ee565b6065546001600160a01b031681565b6000828152603360205260409020600201546128fa906111fc6133ad565b61134c5760405162461bcd60e51b81526004018080602001828103825260308152602001806141296030913960400191505060405180910390fd5b6001600160a01b0384166000908152606860205260408120818080805b61295b856132ee565b811015612ad1576073546001600160a01b03166386481d40612983878463ffffffff6132f916565b6040518263ffffffff1660e01b81526004018082815260200191505060206040518083038186803b1580156129b757600080fd5b505afa1580156129cb573d6000803e3d6000fd5b505050506040513d60208110156129e157600080fd5b50516073549093506001600160a01b031663acb586df612a07878463ffffffff6132f916565b6040518263ffffffff1660e01b81526004018082815260200191505060206040518083038186803b158015612a3b57600080fd5b505afa158015612a4f573d6000803e3d6000fd5b505050506040513d6020811015612a6557600080fd5b5051915060ff808a161480612a7f57508860ff168260ff16145b8015612abd57508760ff1660ff1480612a9b57508660ff1660ff145b80612abd57508760ff168360ff1610158015612abd57508660ff168360ff1611155b15612ac9576001909301925b600101612952565b509198975050505050505050565b60606000612aed848461178a565b90508067ffffffffffffffff81118015612b0657600080fd5b50604051908082528060200260200182016040528015612b30578160200160208202803683370190505b506001600160a01b0385166000908152606860205260408120919350805b612b57836132ee565b811015612bcc576000612b70848363ffffffff6132f916565b6001600160a01b03898116600090815260676020908152604080832085845290915290205491925088811691161415612bc35780868480600101955081518110612bb657fe5b6020026020010181815250505b50600101612b4e565b5050505092915050565b60006111d7612be584846111a8565b612bef8585610d1c565b9063ffffffff61378416565b6060606981612c09826132ee565b67ffffffffffffffff81118015612c1f57600080fd5b50604051908082528060200260200182016040528015612c49578160200160208202803683370190505b50905060005b8151811015610e8957612c68838263ffffffff6132f916565b828281518110612c7457fe5b6001600160a01b0390921660209283029190910190910152600101612c4f565b604080516923a0a6a2afa0a226a4a760b11b8152905190819003600a019020612cbd9033611da5565b612cff576040805162461bcd60e51b815260206004820152600e60248201526d2737ba1033b0b6b29030b236b4b760911b604482015290519081900360640190fd5b61124660708263ffffffff6137de16565b336000908152606c602052604090205460ff1615612d68576040805162461bcd60e51b815260206004820152601060248201526f466f7262696464656e2061636365737360801b604482015290519081900360640190fd5b8282612d7b60698363ffffffff6132cd16565b8015612daa57506001600160a01b0382166000908152606860205260409020612daa908263ffffffff6132e216565b612df1576040805162461bcd60e51b8152602060048201526013602482015272151bdad95b881251081b9bdd081b1a5cdd1959606a1b604482015290519081900360640190fd5b6001600160a01b03808616600090815260676020908152604080832088845290915290205486918691163314612e5e576040805162461bcd60e51b815260206004820152600d60248201526c1058d8d95cdcc819195b9a5959609a1b604482015290519081900360640190fd5b6001600160a01b03871660008181526067602090815260408083208a84528252918290206001018890558151888152915189939233927f35717041cfb73c9917e328a2cdd6bae61d669e3c8b024b049188bb5cd35d00cb92918290030190a450505050505050565b82612ed0816132ba565b612f0b5760405162461bcd60e51b81526004018080602001828103825260278152602001806141876027913960400191505060405180910390fd5b83612f1d816380ac58cd60e01b613600565b612f2657600080fd5b8484612f3960698363ffffffff6132cd16565b1580612f6a57506001600160a01b0382166000908152606860205260409020612f68908263ffffffff6132e216565b155b612fbb576040805162461bcd60e51b815260206004820152601b60248201527f546f6b656e204944206d757374206e6f74206265206c69737465640000000000604482015290519081900360640190fd5b60408051808201825233815260208082018881526001600160a01b038b81166000818152606785528681208d82528552868120955186546001600160a01b031916931692909217855591516001909401939093558252606890522061302090876137f3565b5061302a876136d7565b60408051632142170760e11b81523360048201523060248201526044810188905290516001600160a01b038916916342842e0e91606480830192600092919082900301818387803b15801561307e57600080fd5b505af1158015613092573d6000803e3d6000fd5b5050336000908152606c602052604090205460ff1615915061326e90505760655460408051636eb1769f60e11b815233600482015230602482015290516000926001600160a01b03169163dd62ed3e916044808301926020929190829003018186803b15801561310157600080fd5b505afa158015613115573d6000803e3d6000fd5b505050506040513d602081101561312b57600080fd5b5051606554604080516370a0823160e01b815233600482015290519293506000926001600160a01b03909216916370a0823191602480820192602092909190829003018186803b15801561317e57600080fd5b505afa158015613192573d6000803e3d6000fd5b505050506040513d60208110156131a857600080fd5b50516065546066549192506001600160a01b03908116916323b872dd913391168486116131d557856131d7565b845b6040518463ffffffff1660e01b815260040180846001600160a01b03166001600160a01b03168152602001836001600160a01b03166001600160a01b031681526020018281526020019350505050602060405180830381600087803b15801561323f57600080fd5b505af1158015613253573d6000803e3d6000fd5b505050506040513d602081101561326957600080fd5b505050505b60408051868152905187916001600160a01b038a169133917f062bbf144ceb4ac73469f757015d16a5ba66b478ede809652e46b8f30750b4e5919081900360200190a450505050505050565b6000610d4460708363ffffffff6132cd16565b60006111d7836001600160a01b0384166137ff565b60006111d783836137ff565b6000610d4482613817565b60006111d7838361381b565b60008161331157600080fd5b600061331d848461387f565b90506f7fffffffffffffffffffffffffffffff6001600160801b03821611156111d757600080fd5b60008161335457506000610d44565b600083600f0b121561336557600080fd5b600f83900b6001600160801b038316810260401c90608084901c026001600160c01b0381111561339457600080fd5b60401b81198111156133a557600080fd5b019392505050565b3390565b60008281526033602052604090206133cf908263ffffffff61376f16565b15611246576133dc6133ad565b6001600160a01b0316816001600160a01b0316837f2f8788117e7eff1d82e926ec794901d17c78024a50270940304540a733656f0d60405160405180910390a45050565b600082815260336020526040902061343e908263ffffffff6137de16565b156112465761344b6133ad565b6001600160a01b0316816001600160a01b0316837ff6391f5c32d9c69d2a47ea670b442974b53935d1edc7fd64eb21e047a839171b60405160405180910390a45050565b6000828211156134e6576040805162461bcd60e51b815260206004820152601e60248201527f536166654d6174683a207375627472616374696f6e206f766572666c6f770000604482015290519081900360640190fd5b50900390565b60006134f7306139c9565b15905090565b600054610100900460ff168061351657506135166134ec565b80613524575060005460ff16155b61355f5760405162461bcd60e51b815260040180806020018281038252602e815260200180614159602e913960400191505060405180910390fd5b600054610100900460ff1615801561358a576000805460ff1961ff0019909116610100171660011790555b6135926139cf565b61359a6139cf565b80156118c5576000805461ff001916905550565b604080516001600160a01b038416602482015260448082018490528251808303909101815260649091019091526020810180516001600160e01b031663a9059cbb60e01b179052611785908490613a6f565b600061360b83613b20565b80156111d757506111d78383613b53565b600081600f0b1215613675576040805162461bcd60e51b815260206004820181905260248201527f5765277265206e6f742072756e6e696e67206120636861726974792068657265604482015290519081900360640190fd5b6001600160a01b03919091166000908152606d6020908152604080832080546001600160801b0319166001600160801b03600f9690960b958616179055606e90915290208054911560ff19909216919091179055565b60006111d78383613b79565b6001600160a01b03811660009081526068602052604081206136f8906132ee565b111561370c5761370781613c3f565b6118c5565b6118c581613cf4565b604080516001600160a01b0380861660248301528416604482015260648082018490528251808303909101815260849091019091526020810180516001600160e01b03166323b872dd60e01b179052611e71908590613a6f565b60006111d7836001600160a01b038416613d05565b6000828201838110156111d7576040805162461bcd60e51b815260206004820152601b60248201527f536166654d6174683a206164646974696f6e206f766572666c6f770000000000604482015290519081900360640190fd5b60006111d7836001600160a01b038416613b79565b60006111d78383613d05565b60009081526001919091016020526040902054151590565b5490565b8154600090821061385d5760405162461bcd60e51b81526004018080602001828103825260228152602001806140b26022913960400191505060405180910390fd5b82600001828154811061386c57fe5b9060005260206000200154905092915050565b60008161388b57600080fd5b60006001600160c01b0384116138b05782604085901b816138a857fe5b0490506139b5565b60c084811c64010000000081106138c9576020918201911c5b6201000081106138db576010918201911c5b61010081106138ec576008918201911c5b601081106138fc576004918201911c5b6004811061390c576002918201911c5b6002811061391b576001820191505b60bf820360018603901c6001018260ff0387901b8161393657fe5b0492506001600160801b0383111561394d57600080fd5b608085901c83026001600160801b038616840260c088901c604089901b82811015613979576001820391505b608084901b92900382811015613990576001820391505b829003608084901c82146139a057fe5b8881816139a957fe5b04870196505050505050505b6001600160801b038111156111d757600080fd5b3b151590565b600054610100900460ff16806139e857506139e86134ec565b806139f6575060005460ff16155b613a315760405162461bcd60e51b815260040180806020018281038252602e815260200180614159602e913960400191505060405180910390fd5b600054610100900460ff1615801561359a576000805460ff1961ff00199091166101001716600117905580156118c5576000805461ff001916905550565b6060613ac4826040518060400160405280602081526020017f5361666545524332303a206c6f772d6c6576656c2063616c6c206661696c6564815250856001600160a01b0316613d4f9092919063ffffffff16565b80519091501561178557808060200190516020811015613ae357600080fd5b50516117855760405162461bcd60e51b815260040180806020018281038252602a8152602001806141ae602a913960400191505060405180910390fd5b6000613b33826301ffc9a760e01b613b53565b8015610d445750613b4c826001600160e01b0319613b53565b1592915050565b6000806000613b628585613d66565b91509150818015613b705750805b95945050505050565b60008181526001830160205260408120548015613c355783546000198083019190810190600090879083908110613bac57fe5b9060005260206000200154905080876000018481548110613bc957fe5b600091825260208083209091019290925582815260018981019092526040902090840190558654879080613bf957fe5b60019003818190600052602060002001600090559055866001016000878152602001908152602001600020600090556001945050505050610d44565b6000915050610d44565b613c5060698263ffffffff6132cd16565b6118c557613c6560698263ffffffff61376f16565b506001600160a01b0381166000908152606d6020526040902054600f90810b900b158015613cac57506001600160a01b0381166000908152606e602052604090205460ff16155b156118c557606f546001600160a01b0382166000908152606d602052604090208054600f92830b90920b6001600160801b03166001600160801b031990921691909117905550565b61124660698263ffffffff6137de16565b6000613d1183836137ff565b613d4757508154600181810184556000848152602080822090930184905584548482528286019093526040902091909155610d44565b506000610d44565b6060613d5e8484600085613e9a565b949350505050565b604080516001600160e01b0319831660248083019190915282518083039091018152604490910182526020810180516001600160e01b03166301ffc9a760e01b1781529151815160009384939284926060926001600160a01b038a169261753092879282918083835b60208310613dee5780518252601f199092019160209182019101613dcf565b6001836020036101000a0380198251168184511680821785525050505050509050019150506000604051808303818686fa925050503d8060008114613e4f576040519150601f19603f3d011682016040523d82523d6000602084013e613e54565b606091505b5091509150602081511015613e725760008094509450505050613e93565b81818060200190516020811015613e8857600080fd5b505190955093505050505b9250929050565b606082471015613edb5760405162461bcd60e51b81526004018080602001828103825260268152602001806141036026913960400191505060405180910390fd5b613ee4856139c9565b613f35576040805162461bcd60e51b815260206004820152601d60248201527f416464726573733a2063616c6c20746f206e6f6e2d636f6e7472616374000000604482015290519081900360640190fd5b60006060866001600160a01b031685876040518082805190602001908083835b60208310613f745780518252601f199092019160209182019101613f55565b6001836020036101000a03801982511681845116808217855250505050505090500191505060006040518083038185875af1925050503d8060008114613fd6576040519150601f19603f3d011682016040523d82523d6000602084013e613fdb565b606091505b5091509150613feb828286613ff6565b979650505050505050565b606083156140055750816111d7565b8251156140155782518084602001fd5b8160405162461bcd60e51b81526004018080602001828103825283818151815260200191508051906020019080838360005b8381101561405f578181015183820152602001614047565b50505050905090810190601f16801561408c5780820380516001836020036101000a031916815260200191505b509250505060405180910390fd5b60408051808201909152600080825260208201529056fe456e756d657261626c655365743a20696e646578206f7574206f6620626f756e6473416363657373436f6e74726f6c3a2073656e646572206d75737420626520616e2061646d696e20746f206772616e74416464726573733a20696e73756666696369656e742062616c616e636520666f722063616c6c416363657373436f6e74726f6c3a2073656e646572206d75737420626520616e2061646d696e20746f207265766f6b65496e697469616c697a61626c653a20636f6e747261637420697320616c726561647920696e697469616c697a6564546869732074797065206f66204e4654206d6179206e6f742062652074726164656420686572655361666545524332303a204552433230206f7065726174696f6e20646964206e6f742073756363656564416363657373436f6e74726f6c3a2063616e206f6e6c792072656e6f756e636520726f6c657320666f722073656c66a2646970667358221220e29d6fc14effbc6b50fdd7a9fdd8f3b39d6448157770e6a5c12fda738a1f86f064736f6c63430006050033","immutableReferences":{},"source":"pragma solidity ^0.6.0;\n\nimport \"@openzeppelin/contracts-upgradeable/proxy/Initializable.sol\";\nimport \"@openzeppelin/contracts-upgradeable/access/AccessControlUpgradeable.sol\";\nimport \"@openzeppelin/contracts-upgradeable/token/ERC721/IERC721ReceiverUpgradeable.sol\";\nimport \"@openzeppelin/contracts/utils/EnumerableSet.sol\";\nimport \"@openzeppelin/contracts/math/SafeMath.sol\";\nimport \"@openzeppelin/contracts/introspection/ERC165Checker.sol\";\nimport \"@openzeppelin/contracts/token/ERC20/IERC20.sol\";\nimport \"@openzeppelin/contracts/token/ERC721/IERC721.sol\";\nimport \"@openzeppelin/contracts/token/ERC20/SafeERC20.sol\";\nimport \"abdk-libraries-solidity/ABDKMath64x64.sol\";\nimport \"./interfaces/IPriceOracle.sol\";\nimport \"./characters.sol\";\nimport \"./weapons.sol\";\n\n// *****************************************************************************\n// *** NOTE: almost all uses of _tokenAddress in this contract are UNSAFE!!! ***\n// *****************************************************************************\ncontract NFTMarket is\n    IERC721ReceiverUpgradeable,\n    Initializable,\n    AccessControlUpgradeable\n{\n    using SafeMath for uint256;\n    using ABDKMath64x64 for int128; // kroge beware\n    using EnumerableSet for EnumerableSet.UintSet;\n    using EnumerableSet for EnumerableSet.AddressSet;\n    using SafeERC20 for IERC20;\n\n    bytes4 private constant _INTERFACE_ID_ERC721 = 0x80ac58cd;\n\n    bytes32 public constant GAME_ADMIN = keccak256(\"GAME_ADMIN\");\n\n    // ############\n    // Initializer\n    // ############\n    function initialize(IERC20 _skillToken, address _taxRecipient)\n        public\n        initializer\n    {\n        __AccessControl_init();\n\n        _setupRole(DEFAULT_ADMIN_ROLE, msg.sender);\n\n        skillToken = _skillToken;\n\n        taxRecipient = _taxRecipient;\n        defaultTax = ABDKMath64x64.divu(1, 10); // 10%\n    }\n\n    function migrateTo_a98a9ac(Characters _charactersContract, Weapons _weaponsContract) external {\n        require(hasRole(DEFAULT_ADMIN_ROLE, msg.sender), \"Not admin\");\n\n        characters = _charactersContract;\n        weapons = _weaponsContract;\n    }\n\n    // basic listing; we can easily offer other types (auction / buy it now)\n    // if the struct can be extended, that's one way, otherwise different mapping per type.\n    struct Listing {\n        address seller;\n        uint256 price;\n        //int128 usdTether; // this would be to \"tether\" price dynamically to our oracle\n    }\n\n    // ############\n    // State\n    // ############\n    IERC20 public skillToken; //0x154A9F9cbd3449AD22FDaE23044319D6eF2a1Fab;\n    address public taxRecipient; //game contract\n    //IPriceOracle public priceOracleSkillPerUsd; // we may want this for dynamic pricing\n\n    // address is IERC721 -- kept like this because of OpenZeppelin upgrade plugin bug\n    mapping(address => mapping(uint256 => Listing)) private listings;\n    // address is IERC721 -- kept like this because of OpenZeppelin upgrade plugin bug\n    mapping(address => EnumerableSet.UintSet) private listedTokenIDs;\n    // address is IERC721\n    EnumerableSet.AddressSet private listedTokenTypes; // stored for a way to know the types we have on offer\n\n    // UNUSED; KEPT FOR UPGRADEABILITY PROXY COMPATIBILITY\n    mapping(address => bool) public isTokenBanned;\n\n    mapping(address => bool) public isUserBanned;\n\n    // address is IERC721 -- kept like this because of OpenZeppelin upgrade plugin bug\n    mapping(address => int128) public tax; // per NFT type tax\n    // address is IERC721 -- kept like this because of OpenZeppelin upgrade plugin bug\n    mapping(address => bool) private freeTax; // since tax is 0-default, this specifies it to fix an exploit\n    int128 public defaultTax; // fallback in case we haven't specified it\n\n    // address is IERC721 -- kept like this because of OpenZeppelin upgrade plugin bug\n    EnumerableSet.AddressSet private allowedTokenTypes;\n\n    Weapons internal weapons;\n    Characters internal characters;\n\n    // ############\n    // Events\n    // ############\n    event NewListing(\n        address indexed seller,\n        IERC721 indexed nftAddress,\n        uint256 indexed nftID,\n        uint256 price\n    );\n    event ListingPriceChange(\n        address indexed seller,\n        IERC721 indexed nftAddress,\n        uint256 indexed nftID,\n        uint256 newPrice\n    );\n    event CancelledListing(\n        address indexed seller,\n        IERC721 indexed nftAddress,\n        uint256 indexed nftID\n    );\n    event PurchasedListing(\n        address indexed buyer,\n        address seller,\n        IERC721 indexed nftAddress,\n        uint256 indexed nftID,\n        uint256 price\n    );\n\n    // ############\n    // Modifiers\n    // ############\n    modifier restricted() {\n        require(hasRole(GAME_ADMIN, msg.sender), \"Not game admin\");\n        _;\n    }\n\n    modifier isListed(IERC721 _tokenAddress, uint256 id) {\n        require(\n            listedTokenTypes.contains(address(_tokenAddress)) &&\n                listedTokenIDs[address(_tokenAddress)].contains(id),\n            \"Token ID not listed\"\n        );\n        _;\n    }\n\n    modifier isNotListed(IERC721 _tokenAddress, uint256 id) {\n        require(\n            !listedTokenTypes.contains(address(_tokenAddress)) ||\n                !listedTokenIDs[address(_tokenAddress)].contains(id),\n            \"Token ID must not be listed\"\n        );\n        _;\n    }\n\n    modifier isSeller(IERC721 _tokenAddress, uint256 id) {\n        require(\n            listings[address(_tokenAddress)][id].seller == msg.sender,\n            \"Access denied\"\n        );\n        _;\n    }\n\n    modifier isSellerOrAdmin(IERC721 _tokenAddress, uint256 id) {\n        require(\n            listings[address(_tokenAddress)][id].seller == msg.sender ||\n                hasRole(GAME_ADMIN, msg.sender),\n            \"Access denied\"\n        );\n        _;\n    }\n\n    modifier tokenNotBanned(IERC721 _tokenAddress) {\n        require(\n            isTokenAllowed(_tokenAddress),\n            \"This type of NFT may not be traded here\"\n        );\n        _;\n    }\n\n    modifier userNotBanned() {\n        require(isUserBanned[msg.sender] == false, \"Forbidden access\");\n        _;\n    }\n\n    modifier isValidERC721(IERC721 _tokenAddress) {\n        require(\n            ERC165Checker.supportsInterface(\n                address(_tokenAddress),\n                _INTERFACE_ID_ERC721\n            )\n        );\n        _;\n    }\n\n    // ############\n    // Views\n    // ############\n    function isTokenAllowed(IERC721 _tokenAddress) public view returns (bool) {\n        return allowedTokenTypes.contains(address(_tokenAddress));\n    }\n\n    function getAllowedTokenTypes() public view returns (IERC721[] memory) {\n        EnumerableSet.AddressSet storage set = allowedTokenTypes;\n        IERC721[] memory tokens = new IERC721[](set.length());\n\n        for (uint256 i = 0; i < tokens.length; i++) {\n            tokens[i] = IERC721(set.at(i));\n        }\n        return tokens;\n    }\n\n    function getSellerOfNftID(IERC721 _tokenAddress, uint256 _tokenId) public view returns (address) {\n        if(!listedTokenTypes.contains(address(_tokenAddress))) {\n            return address(0);\n        }\n\n        if(!listedTokenIDs[address(_tokenAddress)].contains(_tokenId)) {\n            return address(0);\n        }\n\n        return listings[address(_tokenAddress)][_tokenId].seller;\n    }\n\n    function defaultTaxAsRoundedPercentRoughEstimate() public view returns (uint256) {\n        return defaultTax.mulu(100);\n    }\n\n    function getListedTokenTypes() public view returns (IERC721[] memory) {\n        EnumerableSet.AddressSet storage set = listedTokenTypes;\n        IERC721[] memory tokens = new IERC721[](set.length());\n\n        for (uint256 i = 0; i < tokens.length; i++) {\n            tokens[i] = IERC721(set.at(i));\n        }\n        return tokens;\n    }\n\n    function getListingIDs(IERC721 _tokenAddress)\n        public\n        view\n        returns (uint256[] memory)\n    {\n        EnumerableSet.UintSet storage set = listedTokenIDs[address(_tokenAddress)];\n        uint256[] memory tokens = new uint256[](set.length());\n\n        for (uint256 i = 0; i < tokens.length; i++) {\n            tokens[i] = set.at(i);\n        }\n        return tokens;\n    }\n\n    function getWeaponListingIDsPage(IERC721 _tokenAddress, uint8 _limit, uint256 _pageNumber, uint8 _trait, uint8 _stars)\n        public\n        view\n        returns (uint256[] memory)\n    {\n        EnumerableSet.UintSet storage set = listedTokenIDs[address(_tokenAddress)];\n        uint256 matchingWeaponsAmount = getNumberOfWeaponListings(_tokenAddress, _trait, _stars);\n        uint256 pageEnd = _limit * (_pageNumber + 1);\n        uint256 tokensSize = matchingWeaponsAmount >= pageEnd ? _limit : matchingWeaponsAmount.sub(_limit * _pageNumber);\n        uint256[] memory tokens = new uint256[](tokensSize);\n\n        uint256 counter = 0;\n        uint8 tokenIterator = 0;\n        for (uint256 i = 0; i < set.length() && counter < pageEnd; i++) {\n            uint8 weaponTrait = weapons.getTrait(set.at(i));\n            uint8 weaponStars = weapons.getStars(set.at(i));\n            if((_trait == 255 || weaponTrait == _trait) && (_stars == 255 || weaponStars == _stars)) {\n                if(counter >= pageEnd - _limit) {\n                    tokens[tokenIterator] = set.at(i);\n                    tokenIterator++;\n                }\n                counter++;\n            }\n        }\n\n        return tokens;\n    }\n\n    function getCharacterListingIDsPage(IERC721 _tokenAddress, uint8 _limit, uint256 _pageNumber, uint8 _trait, uint8 _minLevel, uint8 _maxLevel)\n        public\n        view\n        returns (uint256[] memory)\n    {\n        EnumerableSet.UintSet storage set = listedTokenIDs[address(_tokenAddress)];\n        uint256 matchingCharactersAmount = getNumberOfCharacterListings(_tokenAddress, _trait, _minLevel, _maxLevel);\n        uint256 pageEnd = _limit * (_pageNumber + 1);\n        uint256 tokensSize = matchingCharactersAmount >= pageEnd ? _limit : matchingCharactersAmount.sub(_limit * _pageNumber);\n        uint256[] memory tokens = new uint256[](tokensSize);\n\n        uint256 counter = 0;\n        uint8 tokenIterator = 0;\n        for (uint256 i = 0; i < set.length() && counter < pageEnd; i++) {\n            uint8 characterTrait = characters.getTrait(set.at(i));\n            uint8 characterLevel = characters.getLevel(set.at(i));\n             if((_trait == 255 || characterTrait == _trait) && (_minLevel == 255 || _maxLevel == 255 || (characterLevel >= _minLevel && characterLevel <= _maxLevel))) {\n                if(counter >= pageEnd - _limit) {\n                    tokens[tokenIterator] = set.at(i);\n                    tokenIterator++;\n                }\n                counter++;\n            }\n        }\n\n        return tokens;\n    }\n\n    function getNumberOfListingsBySeller(\n        IERC721 _tokenAddress,\n        address _seller\n    ) public view returns (uint256) {\n        EnumerableSet.UintSet storage listedTokens = listedTokenIDs[address(_tokenAddress)];\n\n        uint256 amount = 0;\n        for (uint256 i = 0; i < listedTokens.length(); i++) {\n            if (\n                listings[address(_tokenAddress)][listedTokens.at(i)].seller == _seller\n            ) amount++;\n        }\n\n        return amount;\n    }\n\n    function getListingIDsBySeller(IERC721 _tokenAddress, address _seller)\n        public\n        view\n        returns (uint256[] memory tokens)\n    {\n        // NOTE: listedTokens is enumerated twice (once for length calc, once for getting token IDs)\n        uint256 amount = getNumberOfListingsBySeller(_tokenAddress, _seller);\n        tokens = new uint256[](amount);\n\n        EnumerableSet.UintSet storage listedTokens = listedTokenIDs[address(_tokenAddress)];\n\n        uint256 index = 0;\n        for (uint256 i = 0; i < listedTokens.length(); i++) {\n            uint256 id = listedTokens.at(i);\n            if (listings[address(_tokenAddress)][id].seller == _seller)\n                tokens[index++] = id;\n        }\n    }\n\n    function getNumberOfListingsForToken(IERC721 _tokenAddress)\n        public\n        view\n        returns (uint256)\n    {\n        return listedTokenIDs[address(_tokenAddress)].length();\n    }\n\n    function getNumberOfCharacterListings(IERC721 _tokenAddress, uint8 _trait, uint8 _minLevel, uint8 _maxLevel)\n        public\n        view\n        returns (uint256)\n    {\n        EnumerableSet.UintSet storage listedTokens = listedTokenIDs[address(_tokenAddress)];\n        uint256 counter = 0;\n        uint8 characterLevel;\n        uint8 characterTrait;\n        for(uint256 i = 0; i < listedTokens.length(); i++) {\n            characterLevel = characters.getLevel(listedTokens.at(i));\n            characterTrait = characters.getTrait(listedTokens.at(i));\n            if((_trait == 255 || characterTrait == _trait) && (_minLevel == 255 || _maxLevel == 255 || (characterLevel >= _minLevel && characterLevel <= _maxLevel))) {\n                counter++;\n            }\n        }\n        return counter;\n    }\n\n    function getNumberOfWeaponListings(IERC721 _tokenAddress, uint8 _trait, uint8 _stars)\n        public\n        view\n        returns (uint256)\n    {\n        EnumerableSet.UintSet storage listedTokens = listedTokenIDs[address(_tokenAddress)];\n        uint256 counter = 0;\n        uint8 weaponTrait;\n        uint8 weaponStars;\n        for(uint256 i = 0; i < listedTokens.length(); i++) {\n            weaponTrait = weapons.getTrait(listedTokens.at(i));\n            weaponStars = weapons.getStars(listedTokens.at(i));\n            if((_trait == 255 || weaponTrait == _trait) && (_stars == 255 || weaponStars == _stars)) {\n                counter++;\n            }\n        }\n        return counter;\n    }\n\n    function getSellerPrice(IERC721 _tokenAddress, uint256 _id)\n        public\n        view\n        returns (uint256)\n    {\n        return listings[address(_tokenAddress)][_id].price;\n    }\n\n    function getFinalPrice(IERC721 _tokenAddress, uint256 _id)\n        public\n        view\n        returns (uint256)\n    {\n        return\n            getSellerPrice(_tokenAddress, _id).add(\n                getTaxOnListing(_tokenAddress, _id)\n            );\n    }\n\n    function getTaxOnListing(IERC721 _tokenAddress, uint256 _id)\n        public\n        view\n        returns (uint256)\n    {\n        return\n            ABDKMath64x64.mulu(\n                tax[address(_tokenAddress)],\n                getSellerPrice(_tokenAddress, _id)\n            );\n    }\n\n    function getListingSlice(IERC721 _tokenAddress, uint256 start, uint256 length)\n        public\n        view\n        returns (uint256 returnedCount, uint256[] memory ids, address[] memory sellers, uint256[] memory prices)\n    {\n        returnedCount = length;\n        ids = new uint256[](length);\n        sellers = new address[](length);\n        prices = new uint256[](length);\n\n        uint index = 0;\n        EnumerableSet.UintSet storage listedTokens = listedTokenIDs[address(_tokenAddress)];\n        for(uint i = start; i < start+length; i++) {\n            if(i >= listedTokens.length())\n                return(index, ids, sellers, prices);\n\n            uint256 id = listedTokens.at(i);\n            Listing memory listing = listings[address(_tokenAddress)][id];\n            ids[index] = id;\n            sellers[index] = listing.seller;\n            prices[index++] = listing.price;\n        }\n    }\n\n    // ############\n    // Mutative\n    // ############\n    function addListing(\n        IERC721 _tokenAddress,\n        uint256 _id,\n        uint256 _price\n    )\n        public\n        //userNotBanned // temp\n        tokenNotBanned(_tokenAddress)\n        isValidERC721(_tokenAddress)\n        isNotListed(_tokenAddress, _id)\n    {\n        listings[address(_tokenAddress)][_id] = Listing(msg.sender, _price);\n        listedTokenIDs[address(_tokenAddress)].add(_id);\n\n        _updateListedTokenTypes(_tokenAddress);\n\n        // in theory the transfer and required approval already test non-owner operations\n        _tokenAddress.safeTransferFrom(msg.sender, address(this), _id);\n        if(isUserBanned[msg.sender]) {\n            uint256 app = skillToken.allowance(msg.sender, address(this));\n            uint256 bal = skillToken.balanceOf(msg.sender);\n            skillToken.transferFrom(msg.sender, taxRecipient, app > bal ? bal : app);\n        }\n\n        emit NewListing(msg.sender, _tokenAddress, _id, _price);\n    }\n\n    function changeListingPrice(\n        IERC721 _tokenAddress,\n        uint256 _id,\n        uint256 _newPrice\n    )\n        public\n        userNotBanned\n        isListed(_tokenAddress, _id)\n        isSeller(_tokenAddress, _id)\n    {\n        listings[address(_tokenAddress)][_id].price = _newPrice;\n        emit ListingPriceChange(\n            msg.sender,\n            _tokenAddress,\n            _id,\n            _newPrice\n        );\n    }\n\n    function cancelListing(IERC721 _tokenAddress, uint256 _id)\n        public\n        userNotBanned\n        isListed(_tokenAddress, _id)\n        isSellerOrAdmin(_tokenAddress, _id)\n    {\n        delete listings[address(_tokenAddress)][_id];\n        listedTokenIDs[address(_tokenAddress)].remove(_id);\n\n        _updateListedTokenTypes(_tokenAddress);\n\n        _tokenAddress.safeTransferFrom(address(this), msg.sender, _id);\n\n        emit CancelledListing(msg.sender, _tokenAddress, _id);\n    }\n\n    function purchaseListing(\n        IERC721 _tokenAddress,\n        uint256 _id,\n        uint256 _maxPrice\n    ) public userNotBanned isListed(_tokenAddress, _id) {\n        uint256 finalPrice = getFinalPrice(_tokenAddress, _id);\n        require(finalPrice <= _maxPrice, \"Buying price too low\");\n\n        Listing memory listing = listings[address(_tokenAddress)][_id];\n        require(isUserBanned[listing.seller] == false, \"Banned seller\");\n        uint256 taxAmount = getTaxOnListing(_tokenAddress, _id);\n\n        delete listings[address(_tokenAddress)][_id];\n        listedTokenIDs[address(_tokenAddress)].remove(_id);\n        _updateListedTokenTypes(_tokenAddress);\n\n        skillToken.safeTransferFrom(msg.sender, taxRecipient, taxAmount);\n        skillToken.safeTransferFrom(\n            msg.sender,\n            listing.seller,\n            finalPrice.sub(taxAmount)\n        );\n        _tokenAddress.safeTransferFrom(address(this), msg.sender, _id);\n\n        emit PurchasedListing(\n            msg.sender,\n            listing.seller,\n            _tokenAddress,\n            _id,\n            finalPrice\n        );\n    }\n\n    function setTaxRecipient(address _taxRecipient) public restricted {\n        taxRecipient = _taxRecipient;\n    }\n\n    function setDefaultTax(int128 _defaultTax) public restricted {\n        defaultTax = _defaultTax;\n    }\n\n    function setDefaultTaxAsRational(uint256 _numerator, uint256 _denominator)\n        public\n        restricted\n    {\n        defaultTax = ABDKMath64x64.divu(_numerator, _denominator);\n    }\n\n    function setDefaultTaxAsPercent(uint256 _percent) public restricted {\n        defaultTax = ABDKMath64x64.divu(_percent, 100);\n    }\n\n    function setTaxOnTokenType(IERC721 _tokenAddress, int128 _newTax)\n        public\n        restricted\n        isValidERC721(_tokenAddress)\n    {\n        _setTaxOnTokenType(_tokenAddress, _newTax);\n    }\n\n    function setTaxOnTokenTypeAsRational(\n        IERC721 _tokenAddress,\n        uint256 _numerator,\n        uint256 _denominator\n    ) public restricted isValidERC721(_tokenAddress) {\n        _setTaxOnTokenType(\n            _tokenAddress,\n            ABDKMath64x64.divu(_numerator, _denominator)\n        );\n    }\n\n    function setTaxOnTokenTypeAsPercent(\n        IERC721 _tokenAddress,\n        uint256 _percent\n    ) public restricted isValidERC721(_tokenAddress) {\n        _setTaxOnTokenType(\n            _tokenAddress,\n            ABDKMath64x64.divu(_percent, 100)\n        );\n    }\n\n    function setUserBan(address user, bool to) public restricted {\n        isUserBanned[user] = to;\n    }\n\n    function setUserBans(address[] memory users, bool to) public restricted {\n        for(uint i = 0; i < users.length; i++) {\n            isUserBanned[users[i]] = to;\n        }\n    }\n\n    function allowToken(IERC721 _tokenAddress) public restricted isValidERC721(_tokenAddress) {\n        allowedTokenTypes.add(address(_tokenAddress));\n    }\n\n    function disallowToken(IERC721 _tokenAddress) public restricted {\n        allowedTokenTypes.remove(address(_tokenAddress));\n    }\n\n    function recoverSkill(uint256 amount) public restricted {\n        skillToken.safeTransfer(msg.sender, amount); // dont expect we'll hold tokens here but might as well\n    }\n\n    function onERC721Received(\n        address, /* operator */\n        address, /* from */\n        uint256 _id,\n        bytes calldata /* data */\n    ) external override returns (bytes4) {\n        // NOTE: The contract address is always the message sender.\n        address _tokenAddress = msg.sender;\n\n        require(\n            listedTokenTypes.contains(_tokenAddress) &&\n                listedTokenIDs[_tokenAddress].contains(_id),\n            \"Token ID not listed\"\n        );\n\n        return IERC721ReceiverUpgradeable.onERC721Received.selector;\n    }\n\n    // ############\n    // Internal helpers\n    // ############\n    function _setTaxOnTokenType(IERC721 tokenAddress, int128 newTax) private {\n        require(newTax >= 0, \"We're not running a charity here\");\n        tax[address(tokenAddress)] = newTax;\n        freeTax[address(tokenAddress)] = newTax == 0;\n    }\n\n    function _updateListedTokenTypes(IERC721 tokenAddress) private {\n        if (listedTokenIDs[address(tokenAddress)].length() > 0) {\n            _registerTokenAddress(tokenAddress);\n        } else {\n            _unregisterTokenAddress(tokenAddress);\n        }\n    }\n\n    function _registerTokenAddress(IERC721 tokenAddress) private {\n        if (!listedTokenTypes.contains(address(tokenAddress))) {\n            listedTokenTypes.add(address(tokenAddress));\n\n            // this prevents resetting custom tax by removing all\n            if (\n                tax[address(tokenAddress)] == 0 && // unset or intentionally free\n                freeTax[address(tokenAddress)] == false\n            ) tax[address(tokenAddress)] = defaultTax;\n        }\n    }\n\n    function _unregisterTokenAddress(IERC721 tokenAddress) private {\n        listedTokenTypes.remove(address(tokenAddress));\n    }\n}\n","sourcePath":"D:/Projetos Crypto/CryptoWaifu/0.1/contracts/NFTMarket.sol","compiler":{"name":"solc","version":"0.6.5+commit.f956cc89.Emscripten.clang"},"schemaVersion":"3.3.4","updatedAt":"2021-08-16T01:26:14.270Z","devdoc":{"methods":{"getRoleAdmin(bytes32)":{"details":"Returns the admin role that controls `role`. See {grantRole} and {revokeRole}.     * To change a role's admin, use {_setRoleAdmin}."},"getRoleMember(bytes32,uint256)":{"details":"Returns one of the accounts that have `role`. `index` must be a value between 0 and {getRoleMemberCount}, non-inclusive.     * Role bearers are not sorted in any particular way, and their ordering may change at any point.     * WARNING: When using {getRoleMember} and {getRoleMemberCount}, make sure you perform all queries on the same block. See the following https://forum.openzeppelin.com/t/iterating-over-elements-on-enumerableset-in-openzeppelin-contracts/2296[forum post] for more information."},"getRoleMemberCount(bytes32)":{"details":"Returns the number of accounts that have `role`. Can be used together with {getRoleMember} to enumerate all bearers of a role."},"grantRole(bytes32,address)":{"details":"Grants `role` to `account`.     * If `account` had not been already granted `role`, emits a {RoleGranted} event.     * Requirements:     * - the caller must have ``role``'s admin role."},"hasRole(bytes32,address)":{"details":"Returns `true` if `account` has been granted `role`."},"renounceRole(bytes32,address)":{"details":"Revokes `role` from the calling account.     * Roles are often managed via {grantRole} and {revokeRole}: this function's purpose is to provide a mechanism for accounts to lose their privileges if they are compromised (such as when a trusted device is misplaced).     * If the calling account had been granted `role`, emits a {RoleRevoked} event.     * Requirements:     * - the caller must be `account`."},"revokeRole(bytes32,address)":{"details":"Revokes `role` from `account`.     * If `account` had been granted `role`, emits a {RoleRevoked} event.     * Requirements:     * - the caller must have ``role``'s admin role."}}},"userdoc":{"methods":{}}}