{"contractName":"Shields","abi":[{"anonymous":false,"inputs":[{"indexed":true,"internalType":"address","name":"owner","type":"address"},{"indexed":true,"internalType":"address","name":"approved","type":"address"},{"indexed":true,"internalType":"uint256","name":"tokenId","type":"uint256"}],"name":"Approval","type":"event"},{"anonymous":false,"inputs":[{"indexed":true,"internalType":"address","name":"owner","type":"address"},{"indexed":true,"internalType":"address","name":"operator","type":"address"},{"indexed":false,"internalType":"bool","name":"approved","type":"bool"}],"name":"ApprovalForAll","type":"event"},{"anonymous":false,"inputs":[{"indexed":true,"internalType":"uint256","name":"shield","type":"uint256"},{"indexed":true,"internalType":"address","name":"minter","type":"address"}],"name":"NewShield","type":"event"},{"anonymous":false,"inputs":[{"indexed":true,"internalType":"bytes32","name":"role","type":"bytes32"},{"indexed":true,"internalType":"bytes32","name":"previousAdminRole","type":"bytes32"},{"indexed":true,"internalType":"bytes32","name":"newAdminRole","type":"bytes32"}],"name":"RoleAdminChanged","type":"event"},{"anonymous":false,"inputs":[{"indexed":true,"internalType":"bytes32","name":"role","type":"bytes32"},{"indexed":true,"internalType":"address","name":"account","type":"address"},{"indexed":true,"internalType":"address","name":"sender","type":"address"}],"name":"RoleGranted","type":"event"},{"anonymous":false,"inputs":[{"indexed":true,"internalType":"bytes32","name":"role","type":"bytes32"},{"indexed":true,"internalType":"address","name":"account","type":"address"},{"indexed":true,"internalType":"address","name":"sender","type":"address"}],"name":"RoleRevoked","type":"event"},{"anonymous":false,"inputs":[{"indexed":true,"internalType":"address","name":"from","type":"address"},{"indexed":true,"internalType":"address","name":"to","type":"address"},{"indexed":true,"internalType":"uint256","name":"tokenId","type":"uint256"}],"name":"Transfer","type":"event"},{"inputs":[],"name":"DEFAULT_ADMIN_ROLE","outputs":[{"internalType":"bytes32","name":"","type":"bytes32"}],"stateMutability":"view","type":"function"},{"inputs":[],"name":"GAME_ADMIN","outputs":[{"internalType":"bytes32","name":"","type":"bytes32"}],"stateMutability":"view","type":"function"},{"inputs":[{"internalType":"address","name":"to","type":"address"},{"internalType":"uint256","name":"tokenId","type":"uint256"}],"name":"approve","outputs":[],"stateMutability":"nonpayable","type":"function"},{"inputs":[{"internalType":"address","name":"owner","type":"address"}],"name":"balanceOf","outputs":[{"internalType":"uint256","name":"","type":"uint256"}],"stateMutability":"view","type":"function"},{"inputs":[],"name":"baseURI","outputs":[{"internalType":"string","name":"","type":"string"}],"stateMutability":"view","type":"function"},{"inputs":[],"name":"defenseMultPerPointBasic","outputs":[{"internalType":"int128","name":"","type":"int128"}],"stateMutability":"view","type":"function"},{"inputs":[],"name":"defenseMultPerPointDEF","outputs":[{"internalType":"int128","name":"","type":"int128"}],"stateMutability":"view","type":"function"},{"inputs":[],"name":"defenseMultPerPointMatching","outputs":[{"internalType":"int128","name":"","type":"int128"}],"stateMutability":"view","type":"function"},{"inputs":[{"internalType":"uint256","name":"tokenId","type":"uint256"}],"name":"getApproved","outputs":[{"internalType":"address","name":"","type":"address"}],"stateMutability":"view","type":"function"},{"inputs":[{"internalType":"bytes32","name":"role","type":"bytes32"}],"name":"getRoleAdmin","outputs":[{"internalType":"bytes32","name":"","type":"bytes32"}],"stateMutability":"view","type":"function"},{"inputs":[{"internalType":"bytes32","name":"role","type":"bytes32"},{"internalType":"uint256","name":"index","type":"uint256"}],"name":"getRoleMember","outputs":[{"internalType":"address","name":"","type":"address"}],"stateMutability":"view","type":"function"},{"inputs":[{"internalType":"bytes32","name":"role","type":"bytes32"}],"name":"getRoleMemberCount","outputs":[{"internalType":"uint256","name":"","type":"uint256"}],"stateMutability":"view","type":"function"},{"inputs":[{"internalType":"bytes32","name":"role","type":"bytes32"},{"internalType":"address","name":"account","type":"address"}],"name":"grantRole","outputs":[],"stateMutability":"nonpayable","type":"function"},{"inputs":[{"internalType":"bytes32","name":"role","type":"bytes32"},{"internalType":"address","name":"account","type":"address"}],"name":"hasRole","outputs":[{"internalType":"bool","name":"","type":"bool"}],"stateMutability":"view","type":"function"},{"inputs":[{"internalType":"address","name":"owner","type":"address"},{"internalType":"address","name":"operator","type":"address"}],"name":"isApprovedForAll","outputs":[{"internalType":"bool","name":"","type":"bool"}],"stateMutability":"view","type":"function"},{"inputs":[],"name":"maxDurability","outputs":[{"internalType":"uint256","name":"","type":"uint256"}],"stateMutability":"view","type":"function"},{"inputs":[],"name":"name","outputs":[{"internalType":"string","name":"","type":"string"}],"stateMutability":"view","type":"function"},{"inputs":[{"internalType":"uint256","name":"tokenId","type":"uint256"}],"name":"ownerOf","outputs":[{"internalType":"address","name":"","type":"address"}],"stateMutability":"view","type":"function"},{"inputs":[],"name":"promos","outputs":[{"internalType":"contract Promos","name":"","type":"address"}],"stateMutability":"view","type":"function"},{"inputs":[{"internalType":"bytes32","name":"role","type":"bytes32"},{"internalType":"address","name":"account","type":"address"}],"name":"renounceRole","outputs":[],"stateMutability":"nonpayable","type":"function"},{"inputs":[{"internalType":"bytes32","name":"role","type":"bytes32"},{"internalType":"address","name":"account","type":"address"}],"name":"revokeRole","outputs":[],"stateMutability":"nonpayable","type":"function"},{"inputs":[{"internalType":"address","name":"from","type":"address"},{"internalType":"address","name":"to","type":"address"},{"internalType":"uint256","name":"tokenId","type":"uint256"}],"name":"safeTransferFrom","outputs":[],"stateMutability":"nonpayable","type":"function"},{"inputs":[{"internalType":"address","name":"from","type":"address"},{"internalType":"address","name":"to","type":"address"},{"internalType":"uint256","name":"tokenId","type":"uint256"},{"internalType":"bytes","name":"_data","type":"bytes"}],"name":"safeTransferFrom","outputs":[],"stateMutability":"nonpayable","type":"function"},{"inputs":[],"name":"secondsPerDurability","outputs":[{"internalType":"uint256","name":"","type":"uint256"}],"stateMutability":"view","type":"function"},{"inputs":[{"internalType":"address","name":"operator","type":"address"},{"internalType":"bool","name":"approved","type":"bool"}],"name":"setApprovalForAll","outputs":[],"stateMutability":"nonpayable","type":"function"},{"inputs":[],"name":"shieldBaseMultiplier","outputs":[{"internalType":"int128","name":"","type":"int128"}],"stateMutability":"view","type":"function"},{"inputs":[{"internalType":"bytes4","name":"interfaceId","type":"bytes4"}],"name":"supportsInterface","outputs":[{"internalType":"bool","name":"","type":"bool"}],"stateMutability":"view","type":"function"},{"inputs":[],"name":"symbol","outputs":[{"internalType":"string","name":"","type":"string"}],"stateMutability":"view","type":"function"},{"inputs":[{"internalType":"uint256","name":"index","type":"uint256"}],"name":"tokenByIndex","outputs":[{"internalType":"uint256","name":"","type":"uint256"}],"stateMutability":"view","type":"function"},{"inputs":[{"internalType":"address","name":"owner","type":"address"},{"internalType":"uint256","name":"index","type":"uint256"}],"name":"tokenOfOwnerByIndex","outputs":[{"internalType":"uint256","name":"","type":"uint256"}],"stateMutability":"view","type":"function"},{"inputs":[{"internalType":"uint256","name":"tokenId","type":"uint256"}],"name":"tokenURI","outputs":[{"internalType":"string","name":"","type":"string"}],"stateMutability":"view","type":"function"},{"inputs":[],"name":"totalSupply","outputs":[{"internalType":"uint256","name":"","type":"uint256"}],"stateMutability":"view","type":"function"},{"inputs":[{"internalType":"address","name":"from","type":"address"},{"internalType":"address","name":"to","type":"address"},{"internalType":"uint256","name":"tokenId","type":"uint256"}],"name":"transferFrom","outputs":[],"stateMutability":"nonpayable","type":"function"},{"inputs":[],"name":"initialize","outputs":[],"stateMutability":"nonpayable","type":"function"},{"inputs":[{"internalType":"contract Promos","name":"_promos","type":"address"}],"name":"migrateTo_surprise","outputs":[],"stateMutability":"nonpayable","type":"function"},{"inputs":[{"internalType":"uint256","name":"id","type":"uint256"}],"name":"get","outputs":[{"internalType":"uint16","name":"_properties","type":"uint16"},{"internalType":"uint16","name":"_stat1","type":"uint16"},{"internalType":"uint16","name":"_stat2","type":"uint16"},{"internalType":"uint16","name":"_stat3","type":"uint16"}],"stateMutability":"view","type":"function"},{"inputs":[],"name":"getOwned","outputs":[{"internalType":"uint256[]","name":"","type":"uint256[]"}],"stateMutability":"view","type":"function"},{"inputs":[{"internalType":"address","name":"owner","type":"address"}],"name":"getOwnedBy","outputs":[{"internalType":"uint256[]","name":"","type":"uint256[]"}],"stateMutability":"view","type":"function"},{"inputs":[{"internalType":"address","name":"buyer","type":"address"}],"name":"mintForPurchase","outputs":[],"stateMutability":"nonpayable","type":"function"},{"inputs":[{"internalType":"address","name":"minter","type":"address"},{"internalType":"uint256","name":"seed","type":"uint256"}],"name":"mint","outputs":[{"internalType":"uint256","name":"","type":"uint256"}],"stateMutability":"nonpayable","type":"function"},{"inputs":[{"internalType":"address","name":"minter","type":"address"},{"internalType":"uint256","name":"stars","type":"uint256"},{"internalType":"uint256","name":"seed","type":"uint256"}],"name":"mintShieldWithStars","outputs":[{"internalType":"uint256","name":"","type":"uint256"}],"stateMutability":"nonpayable","type":"function"},{"inputs":[{"internalType":"address","name":"minter","type":"address"},{"internalType":"uint16","name":"properties","type":"uint16"},{"internalType":"uint16","name":"stat1","type":"uint16"},{"internalType":"uint16","name":"stat2","type":"uint16"},{"internalType":"uint16","name":"stat3","type":"uint16"},{"internalType":"uint256","name":"cosmeticSeed","type":"uint256"}],"name":"performMintShield","outputs":[{"internalType":"uint256","name":"","type":"uint256"}],"stateMutability":"nonpayable","type":"function"},{"inputs":[{"internalType":"uint256","name":"stars","type":"uint256"},{"internalType":"uint256","name":"seed","type":"uint256"}],"name":"getRandomProperties","outputs":[{"internalType":"uint16","name":"","type":"uint16"}],"stateMutability":"pure","type":"function"},{"inputs":[{"internalType":"uint16","name":"minRoll","type":"uint16"},{"internalType":"uint16","name":"maxRoll","type":"uint16"},{"internalType":"uint256","name":"seed","type":"uint256"},{"internalType":"uint256","name":"seed2","type":"uint256"}],"name":"getRandomStat","outputs":[{"internalType":"uint16","name":"","type":"uint16"}],"stateMutability":"pure","type":"function"},{"inputs":[{"internalType":"uint256","name":"seed","type":"uint256"},{"internalType":"uint256","name":"seed2","type":"uint256"},{"internalType":"uint8","name":"limit","type":"uint8"}],"name":"getRandomCosmetic","outputs":[{"internalType":"uint8","name":"","type":"uint8"}],"stateMutability":"pure","type":"function"},{"inputs":[{"internalType":"uint256","name":"stars","type":"uint256"}],"name":"getStatMinRoll","outputs":[{"internalType":"uint16","name":"","type":"uint16"}],"stateMutability":"pure","type":"function"},{"inputs":[{"internalType":"uint256","name":"stars","type":"uint256"}],"name":"getStatMaxRoll","outputs":[{"internalType":"uint16","name":"","type":"uint16"}],"stateMutability":"pure","type":"function"},{"inputs":[{"internalType":"uint256","name":"stars","type":"uint256"}],"name":"getStatCount","outputs":[{"internalType":"uint8","name":"","type":"uint8"}],"stateMutability":"pure","type":"function"},{"inputs":[{"internalType":"uint256","name":"id","type":"uint256"}],"name":"getProperties","outputs":[{"internalType":"uint16","name":"","type":"uint16"}],"stateMutability":"view","type":"function"},{"inputs":[{"internalType":"uint256","name":"id","type":"uint256"}],"name":"getStars","outputs":[{"internalType":"uint8","name":"","type":"uint8"}],"stateMutability":"view","type":"function"},{"inputs":[{"internalType":"uint16","name":"properties","type":"uint16"}],"name":"getStarsFromProperties","outputs":[{"internalType":"uint8","name":"","type":"uint8"}],"stateMutability":"pure","type":"function"},{"inputs":[{"internalType":"uint256","name":"id","type":"uint256"}],"name":"getTrait","outputs":[{"internalType":"uint8","name":"","type":"uint8"}],"stateMutability":"view","type":"function"},{"inputs":[{"internalType":"uint16","name":"properties","type":"uint16"}],"name":"getTraitFromProperties","outputs":[{"internalType":"uint8","name":"","type":"uint8"}],"stateMutability":"pure","type":"function"},{"inputs":[{"internalType":"uint256","name":"id","type":"uint256"}],"name":"getStatPattern","outputs":[{"internalType":"uint8","name":"","type":"uint8"}],"stateMutability":"view","type":"function"},{"inputs":[{"internalType":"uint16","name":"properties","type":"uint16"}],"name":"getStatPatternFromProperties","outputs":[{"internalType":"uint8","name":"","type":"uint8"}],"stateMutability":"pure","type":"function"},{"inputs":[{"internalType":"uint8","name":"statPattern","type":"uint8"}],"name":"getStat1Trait","outputs":[{"internalType":"uint8","name":"","type":"uint8"}],"stateMutability":"pure","type":"function"},{"inputs":[{"internalType":"uint8","name":"statPattern","type":"uint8"}],"name":"getStat2Trait","outputs":[{"internalType":"uint8","name":"","type":"uint8"}],"stateMutability":"pure","type":"function"},{"inputs":[{"internalType":"uint8","name":"statPattern","type":"uint8"}],"name":"getStat3Trait","outputs":[{"internalType":"uint8","name":"","type":"uint8"}],"stateMutability":"pure","type":"function"},{"inputs":[{"internalType":"uint256","name":"id","type":"uint256"}],"name":"getStat1","outputs":[{"internalType":"uint16","name":"","type":"uint16"}],"stateMutability":"view","type":"function"},{"inputs":[{"internalType":"uint256","name":"id","type":"uint256"}],"name":"getStat2","outputs":[{"internalType":"uint16","name":"","type":"uint16"}],"stateMutability":"view","type":"function"},{"inputs":[{"internalType":"uint256","name":"id","type":"uint256"}],"name":"getStat3","outputs":[{"internalType":"uint16","name":"","type":"uint16"}],"stateMutability":"view","type":"function"},{"inputs":[{"internalType":"uint256","name":"id","type":"uint256"}],"name":"getDefenseMultiplier","outputs":[{"internalType":"int128","name":"","type":"int128"}],"stateMutability":"view","type":"function"},{"inputs":[{"internalType":"uint16","name":"properties","type":"uint16"},{"internalType":"uint16","name":"stat1","type":"uint16"},{"internalType":"uint16","name":"stat2","type":"uint16"},{"internalType":"uint16","name":"stat3","type":"uint16"},{"internalType":"uint8","name":"trait","type":"uint8"}],"name":"getDefenseMultiplierForTrait","outputs":[{"internalType":"int128","name":"","type":"int128"}],"stateMutability":"view","type":"function"},{"inputs":[{"internalType":"uint256","name":"id","type":"uint256"},{"internalType":"uint8","name":"charTrait","type":"uint8"}],"name":"getFightData","outputs":[{"internalType":"int128","name":"","type":"int128"},{"internalType":"int128","name":"","type":"int128"},{"internalType":"uint24","name":"","type":"uint24"},{"internalType":"uint8","name":"","type":"uint8"}],"stateMutability":"view","type":"function"},{"inputs":[{"internalType":"uint256","name":"id","type":"uint256"},{"internalType":"uint8","name":"charTrait","type":"uint8"},{"internalType":"uint8","name":"drainAmount","type":"uint8"}],"name":"getFightDataAndDrainDurability","outputs":[{"internalType":"int128","name":"","type":"int128"},{"internalType":"int128","name":"","type":"int128"},{"internalType":"uint24","name":"","type":"uint24"},{"internalType":"uint8","name":"","type":"uint8"}],"stateMutability":"nonpayable","type":"function"},{"inputs":[{"internalType":"uint256","name":"id","type":"uint256"},{"internalType":"uint8","name":"amount","type":"uint8"}],"name":"drainDurability","outputs":[],"stateMutability":"nonpayable","type":"function"},{"inputs":[{"internalType":"uint256","name":"id","type":"uint256"}],"name":"getDurabilityTimestamp","outputs":[{"internalType":"uint64","name":"","type":"uint64"}],"stateMutability":"view","type":"function"},{"inputs":[{"internalType":"uint256","name":"id","type":"uint256"},{"internalType":"uint64","name":"timestamp","type":"uint64"}],"name":"setDurabilityTimestamp","outputs":[],"stateMutability":"nonpayable","type":"function"},{"inputs":[{"internalType":"uint256","name":"id","type":"uint256"}],"name":"getDurabilityPoints","outputs":[{"internalType":"uint8","name":"","type":"uint8"}],"stateMutability":"view","type":"function"},{"inputs":[{"internalType":"uint64","name":"timestamp","type":"uint64"}],"name":"getDurabilityPointsFromTimestamp","outputs":[{"internalType":"uint8","name":"","type":"uint8"}],"stateMutability":"view","type":"function"},{"inputs":[{"internalType":"uint256","name":"id","type":"uint256"}],"name":"isDurabilityFull","outputs":[{"internalType":"bool","name":"","type":"bool"}],"stateMutability":"view","type":"function"},{"inputs":[],"name":"getDurabilityMaxWait","outputs":[{"internalType":"uint64","name":"","type":"uint64"}],"stateMutability":"pure","type":"function"}],"bytecode":"0x608060405234801561001057600080fd5b506145c9806100206000396000f3fe608060405234801561001057600080fd5b50600436106104285760003560e01c80638c7f72421161022b578063c366620b11610130578063dfd37129116100b8578063e985e9c511610087578063e985e9c514610ec1578063ecd4738b14610eef578063f8e678a714610f1b578063fa9b6e8714610f23578063fa9e839814610f4057610428565b8063dfd3712914610e37578063e06efad814610e58578063e076088614610e75578063e291298f14610e9b57610428565b8063d3f6797c116100ff578063d3f6797c14610d85578063d547741f14610da2578063d58227c814610dce578063d7af7ad214610df4578063d9514cb314610e1a57610428565b8063c366620b14610d07578063c6a5108814610d2b578063c87b56dd14610d4b578063ca15c87314610d6857610428565b8063a22cb465116101b3578063af8a29bf11610182578063af8a29bf14610b96578063b07f67b014610b9e578063b88d4fde14610ba6578063baa049f414610c6a578063c302752514610caf57610428565b8063a22cb46514610afc578063ac69ccc714610b2a578063acb586df14610b5c578063adf04f2014610b7957610428565b80639507d39a116101fa5780639507d39a14610a5957806395d06a0f14610aa557806395d89b4114610ac65780639e2e346214610ace578063a217fddf14610af457610428565b80638c7f7242146109fa5780638cfd4e2d14610a025780639010d07c14610a0a57806391d1485414610a2d57610428565b80632f745c591161033157806351e717ac116102b95780636c0360eb116102885780636c0360eb1461098057806370a082311461098857806380aa68cd146109ae5780638129fc1c146109d15780638b9b57bf146109d957610428565b806351e717ac1461093657806352bc59ea1461093e5780635504d3d21461095b5780636352211e1461096357610428565b806340c10f191161030057806340c10f191461083257806342842e0e1461085e57806344d59e0a146108945780634f6ccce7146108f95780634fbff6a21461091657610428565b80632f745c5914610786578063316a7ba5146107b257806336568abe146107cf5780633e68b604146107fb57610428565b80631b8ca217116103b457806327cd91de1161038357806327cd91de146106d75780632a9f22f2146106f45780632c3048a2146107115780632c3fc6191461072e5780632f2ff15d1461075a57610428565b80631b8ca2171461063357806323b872dd14610667578063248a9ca31461069d57806324f7bb1b146106ba57610428565b80630a583a93116103fb5780630a583a931461054c5780630a724cff1461058357806316f1daf6146105a357806318160ddd146105c95780631a71516e146105e357610428565b806301ffc9a71461042d57806306fdde0314610468578063081812fc146104e5578063095ea7b31461051e575b600080fd5b6104546004803603602081101561044357600080fd5b50356001600160e01b031916610f5d565b604080519115158252519081900360200190f35b610470610f80565b6040805160208082528351818301528351919283929083019185019080838360005b838110156104aa578181015183820152602001610492565b50505050905090810190601f1680156104d75780820380516001836020036101000a031916815260200191505b509250505060405180910390f35b610502600480360360208110156104fb57600080fd5b5035611017565b604080516001600160a01b039092168252519081900360200190f35b61054a6004803603604081101561053457600080fd5b506001600160a01b038135169060200135611079565b005b61056d6004803603602081101561056257600080fd5b503561ffff16611154565b6040805160ff9092168252519081900360200190f35b61056d6004803603602081101561059957600080fd5b503560ff1661115a565b61056d600480360360208110156105b957600080fd5b50356001600160401b031661117a565b6105d16111b8565b60408051918252519081900360200190f35b6105d1600480360360c08110156105f957600080fd5b506001600160a01b038135169061ffff60208201358116916040810135821691606082013581169160808101359091169060a001356111c9565b6106506004803603602081101561064957600080fd5b50356113c8565b6040805161ffff9092168252519081900360200190f35b61054a6004803603606081101561067d57600080fd5b506001600160a01b038135811691602081013590911690604001356113f8565b6105d1600480360360208110156106b357600080fd5b503561144f565b61056d600480360360208110156106d057600080fd5b5035611464565b610650600480360360208110156106ed57600080fd5b5035611488565b61056d6004803603602081101561070a57600080fd5b50356114bf565b6106506004803603602081101561072757600080fd5b50356114da565b61054a6004803603604081101561074457600080fd5b50803590602001356001600160401b0316611510565b61054a6004803603604081101561077057600080fd5b50803590602001356001600160a01b0316611547565b6105d16004803603604081101561079c57600080fd5b506001600160a01b0381351690602001356115b3565b610650600480360360208110156107c857600080fd5b50356115db565b61054a600480360360408110156107e557600080fd5b50803590602001356001600160a01b0316611627565b6106506004803603608081101561081157600080fd5b5061ffff813581169160208101359091169060408101359060600135611688565b6105d16004803603604081101561084857600080fd5b506001600160a01b0381351690602001356116b1565b61054a6004803603606081101561087457600080fd5b506001600160a01b03813581169160208101359091169060400135611722565b6108c2600480360360608110156108aa57600080fd5b5080359060ff6020820135811691604001351661173d565b60408051600f95860b860b815293850b90940b602084015262ffffff9091168284015260ff16606082015290519081900360800190f35b6105d16004803603602081101561090f57600080fd5b5035611938565b61056d6004803603602081101561092c57600080fd5b503560ff16611954565b610502611966565b61056d6004803603602081101561095457600080fd5b5035611975565b6105d1611996565b6105026004803603602081101561097957600080fd5b50356119b8565b6104706119e6565b6105d16004803603602081101561099e57600080fd5b50356001600160a01b0316611a47565b610650600480360360408110156109c457600080fd5b5080359060200135611aaf565b61054a611af1565b6109e1611cc7565b60408051600f92830b90920b8252519081900360200190f35b6105d1611cd7565b6109e1611cdd565b61050260048036036040811015610a2057600080fd5b5080359060200135611ce6565b61045460048036036040811015610a4357600080fd5b50803590602001356001600160a01b0316611d04565b610a7660048036036020811015610a6f57600080fd5b5035611d22565b6040805161ffff9586168152938516602085015291841683830152909216606082015290519081900360800190f35b61056d60048036036020811015610abb57600080fd5b503561ffff16611d4b565b610470611d54565b61054a60048036036020811015610ae457600080fd5b50356001600160a01b0316611db5565b6105d1611e5d565b61054a60048036036040811015610b1257600080fd5b506001600160a01b0381351690602001351515611e62565b6105d160048036036060811015610b4057600080fd5b506001600160a01b038135169060208101359060400135611f67565b61056d60048036036020811015610b7257600080fd5b5035611ff1565b61056d60048036036020811015610b8f57600080fd5b503561200e565b6109e161202b565b6109e161203b565b61054a60048036036080811015610bbc57600080fd5b6001600160a01b03823581169260208101359091169160408201359190810190608081016060820135600160201b811115610bf657600080fd5b820183602082011115610c0857600080fd5b803590602001918460018302840111600160201b83111715610c2957600080fd5b91908080601f016020809104026020016040519081016040528093929190818152602001838380828437600092019190915250929550612044945050505050565b6109e1600480360360a0811015610c8057600080fd5b50803561ffff90811691602081013582169160408201358116916060810135909116906080013560ff166120a2565b610cb7612299565b60408051602080825283518183015283519192839290830191858101910280838360005b83811015610cf3578181015183820152602001610cdb565b505050509050019250505060405180910390f35b610d0f6122a4565b604080516001600160401b039092168252519081900360200190f35b61056d60048036036020811015610d4157600080fd5b503560ff166122aa565b61047060048036036020811015610d6157600080fd5b50356122b7565b6105d160048036036020811015610d7e57600080fd5b503561253a565b6109e160048036036020811015610d9b57600080fd5b5035612551565b61054a60048036036040811015610db857600080fd5b50803590602001356001600160a01b0316612648565b6108c260048036036040811015610de457600080fd5b508035906020013560ff166126a1565b61054a60048036036020811015610e0a57600080fd5b50356001600160a01b0316612758565b610d0f60048036036020811015610e3057600080fd5b50356127c2565b61056d60048036036020811015610e4d57600080fd5b503561ffff166127dd565b61065060048036036020811015610e6e57600080fd5b50356127e6565b61054a60048036036040811015610e8b57600080fd5b508035906020013560ff1661281d565b610cb760048036036020811015610eb157600080fd5b50356001600160a01b0316612930565b61045460048036036040811015610ed757600080fd5b506001600160a01b03813581169160200135166129ba565b61056d60048036036060811015610f0557600080fd5b508035906020810135906040013560ff166129e8565b6105d16129fd565b61045460048036036020811015610f3957600080fd5b5035612a02565b61065060048036036020811015610f5657600080fd5b5035612a1a565b6001600160e01b0319811660009081526033602052604090205460ff165b919050565b606a8054604080516020601f600260001961010060018816150201909516949094049384018190048102820181019092528281526060939092909183018282801561100c5780601f10610fe15761010080835404028352916020019161100c565b820191906000526020600020905b815481529060010190602001808311610fef57829003601f168201915b505050505090505b90565b600061102282612a45565b61105d5760405162461bcd60e51b815260040180806020018281038252602c81526020018061448f602c913960400191505060405180910390fd5b506000908152606860205260409020546001600160a01b031690565b6000611084826119b8565b9050806001600160a01b0316836001600160a01b031614156110d75760405162461bcd60e51b81526004018080602001828103825260218152602001806145136021913960400191505060405180910390fd5b806001600160a01b03166110e9612a58565b6001600160a01b0316148061110a575061110a81611105612a58565b6129ba565b6111455760405162461bcd60e51b81526004018080602001828103825260388152602001806143b46038913960400191505060405180910390fd5b61114f8383612a5c565b505050565b60071690565b6000600561116c8360ff166019612aca565b8161117357fe5b0692915050565b600042826001600160401b0316111561119557506000610f7b565b610bb86001600160401b03831642030460148111156111b2575060145b92915050565b60006111c46066612b31565b905090565b60006111d3612b3c565b60c95460cd5443146111e55760ce8190555b4360cd556040805160808101825261ffff808a16825288811660208084019182528983168486019081528984166060860190815260c9805460018181018355600092835297517f66be4f155c5ef2ebd3772b228f2f00681e4ed5826cdb3b1943cc11ad15ad1d2890910180549651945193518816600160301b0267ffff00000000000019948916600160201b0265ffff0000000019968a16620100000263ffff00001994909a1661ffff1990991698909817929092169790971793909316949094171617909255835180850190945280845290830186815260ca8054938401815590915291516002919091027f42d72674974f694b5f5159593243114d38a5c39c89d6b62fee061ff523240ee18101805460ff9390931660ff199093169290921790915590517f42d72674974f694b5f5159593243114d38a5c39c89d6b62fee061ff523240ee29091015561133a8882612ba9565b61135b6113456122a4565b42906001600160401b031663ffffffff612ce316565b600082815260cf6020526040808220805467ffffffffffffffff19166001600160401b03949094169390931790925590516001600160a01b038a169183917f9f6c6fa7de67d487c8373360cc88ddcf9b3c5a0416d887ede5b0358fad1c71689190a3979650505050505050565b6000816113d481612d40565b60c983815481106113e157fe5b60009182526020909120015461ffff169392505050565b611409611403612a58565b82612d99565b6114445760405162461bcd60e51b81526004018080602001828103825260318152602001806145346031913960400191505060405180910390fd5b61114f838383612e35565b60009081526097602052604090206002015490565b60008161147081612d40565b61148161147c846113c8565b6127dd565b9392505050565b60008161149481612d40565b60c983815481106114a157fe5b600091825260209091200154600160301b900461ffff169392505050565b600060038210156114d257506001610f7b565b506000190190565b6000816114e681612d40565b60c983815481106114f357fe5b60009182526020909120015462010000900461ffff169392505050565b611518612b3c565b600091825260cf6020526040909120805467ffffffffffffffff19166001600160401b03909216919091179055565b60008281526097602052604090206002015461156a90611565612a58565b611d04565b6115a55760405162461bcd60e51b815260040180806020018281038252602f8152602001806142d3602f913960400191505060405180910390fd5b6115af8282612f93565b5050565b6001600160a01b0382166000908152606560205260408120611481908363ffffffff61300216565b6000816115ea57506004610f7b565b81600114156115fb575060b4610f7b565b816002141561160d5750610118610f7b565b816003141561161e575060c8610f7b565b5061010c919050565b61162f612a58565b6001600160a01b0316816001600160a01b03161461167e5760405162461bcd60e51b815260040180806020018281038252602f815260200180614565602f913960400191505060405180910390fd5b6115af828261300e565b60006116a68561ffff168561ffff166116a1868661307d565b6130a9565b90505b949350505050565b60006116bb612b3c565b60006064830660018110156116d3576004915061170e565b60068110156116e5576003915061170e565b60158110156116f7576002915061170e565b6038811015611709576001915061170e565b600091505b611719858386611f67565b95945050505050565b61114f83838360405180602001604052806000815250612044565b60008060008061174b612b3c565b8661175581612d40565b600088815260cf6020526040812054611776906001600160401b031661117a565b90508660ff168160ff1610156117cc576040805162461bcd60e51b81526020600482015260166024820152754e6f7420656e6f756768206475726162696c6974792160501b604482015290519081900360640190fd5b60ff808816610bb8029060149083161061182c57806001600160401b03166117f26122a4565b60008c815260cf60205260409020805467ffffffffffffffff19166001600160401b0392831642039390930190911691909117905561185b565b60008a815260cf6020526040902080546001600160401b0380821684011667ffffffffffffffff199091161790555b600060c98b8154811061186a57fe5b600091825260209091200180549091506118e3906118cd906118b09062010000810461ffff908116600160201b8304821601600160301b9092048116919091011661311f565b60cb54600160801b9004600f90810b900b9063ffffffff61313d16565b60cb54600f90810b900b9063ffffffff61317416565b81546119119061ffff80821691620100008104821691600160201b8204811691600160301b9004168f6120a2565b82546000906119239061ffff16611d4b565b929e919d509b50909950975050505050505050565b60008061194c60668463ffffffff6131a716565b509392505050565b6000600561116c8360ff166005612aca565b60d0546001600160a01b031681565b600081815260cf60205260408120546111b2906001600160401b031661117a565b604080516923a0a6a2afa0a226a4a760b11b8152905190819003600a01902081565b60006111b282604051806060016040528060298152602001614416602991396066919063ffffffff6131c316565b606d8054604080516020601f600260001961010060018816150201909516949094049384018190048102820181019092528281526060939092909183018282801561100c5780601f10610fe15761010080835404028352916020019161100c565b60006001600160a01b038216611a8e5760405162461bcd60e51b815260040180806020018281038252602a8152602001806143ec602a913960400191505060405180910390fd5b6001600160a01b03821660009081526065602052604090206111b290612b31565b60006005611ac56000607c6116a186600261307d565b607f16901b6003611ade600060036116a187600161307d565b600316901b846007161717905092915050565b600054610100900460ff1680611b0a5750611b0a6131d0565b80611b18575060005460ff16155b611b535760405162461bcd60e51b815260040180806020018281038252602e81526020018061443f602e913960400191505060405180910390fd5b600054610100900460ff16158015611b7e576000805460ff1961ff0019909116610100171660011790555b611bce6040518060400160405280601381526020017210dc9e5c1d1bd09b1859195cc81cda1a595b19606a1b8152506040518060400160405280600381526020016243575360e81b8152506131e1565b611bd661329e565b611be16000336115a5565b611beb600161311f565b60cb8054600f9290920b6001600160801b03166001600160801b0319909216919091179055611c1d600161019061333f565b60cb60106101000a8154816001600160801b030219169083600f0b6001600160801b03160217905550611c556118b06067606461333f565b60cc8054600f9290920b6001600160801b03166001600160801b0319909216919091179055611c896118b0606b606461333f565b60cc60106101000a8154816001600160801b030219169083600f0b6001600160801b031602179055508015611cc4576000805461ff00191690555b50565b60cc54600160801b9004600f0b81565b610bb881565b60cb54600f0b81565b6000828152609760205260408120611481908363ffffffff61300216565b6000828152609760205260408120611481908363ffffffff61337616565b60008060008084611d3281612d40565b611d3b8661338b565b9450945094509450509193509193565b600390811c1690565b606b8054604080516020601f600260001961010060018816150201909516949094049384018190048102820181019092528281526060939092909183018282801561100c5780601f10610fe15761010080835404028352916020019161100c565b611dbd612b3c565b6161a8611dc86111b8565b10611e09576040805162461bcd60e51b815260206004820152600c60248201526b4f7574206f662073746f636b60a01b604482015290519081900360640190fd5b6115af8182600143034060405160200180836001600160a01b03166001600160a01b031660601b8152601401828152602001925050506040516020818303038152906040528051906020012060001c6116b1565b600081565b611e6a612a58565b6001600160a01b0316826001600160a01b03161415611ed0576040805162461bcd60e51b815260206004820152601960248201527f4552433732313a20617070726f766520746f2063616c6c657200000000000000604482015290519081900360640190fd5b8060696000611edd612a58565b6001600160a01b03908116825260208083019390935260409182016000908120918716808252919093529120805460ff191692151592909217909155611f21612a58565b60408051841515815290516001600160a01b0392909216917f17307eab39ab6107e8899845ad3d59bd9653f200f220920489ca2b5937696c319181900360200190a35050565b6000611f71612b3c565b60088310611fb05760405162461bcd60e51b81526004018080602001828103825260218152602001806142906021913960400191505060405180910390fd5b6000806000611fbf86866133a9565b925092509250611fe687611fd38888611aaf565b858585611fe18b600361307d565b6111c9565b979650505050505050565b600081611ffd81612d40565b611481612009846113c8565b611d4b565b60008161201a81612d40565b611481612026846113c8565b611154565b60cb54600160801b9004600f0b81565b60cc54600f0b81565b61205561204f612a58565b83612d99565b6120905760405162461bcd60e51b81526004018080602001828103825260318152602001806145346031913960400191505060405180910390fd5b61209c84848484613431565b50505050565b6000806120ae876127dd565b60cb54909150600f0b60ff84166120c4836122aa565b60ff1614156121165760cc5461210f906120fe90600160801b9004600f0b6120ef61ffff8b1661311f565b600f0b9063ffffffff61313d16565b600f83900b9063ffffffff61317416565b905061216a565b61211f826122aa565b60ff16600414156121455760cc5461210f906120fe90600f0b6120ef61ffff8b1661311f565b60cb54612167906120fe90600160801b9004600f0b6120ef61ffff8b1661311f565b90505b8360ff1661217783611954565b60ff1614156121a95760cc546121a2906120fe90600160801b9004600f0b6120ef61ffff8a1661311f565b90506121fd565b6121b282611954565b60ff16600414156121d85760cc546121a2906120fe90600f0b6120ef61ffff8a1661311f565b60cb546121fa906120fe90600160801b9004600f0b6120ef61ffff8a1661311f565b90505b8360ff1661220a8361115a565b60ff16141561223c5760cc54612235906120fe90600160801b9004600f0b6120ef61ffff891661311f565b9050611fe6565b6122458261115a565b60ff166004141561226b5760cc54612235906120fe90600f0b6120ef61ffff891661311f565b60cb5461228d906120fe90600160801b9004600f0b6120ef61ffff891661311f565b98975050505050505050565b60606111c433612930565b61ea6090565b6000600560ff8316611173565b60606122c282612a45565b6122fd5760405162461bcd60e51b815260040180806020018281038252602f8152602001806144e4602f913960400191505060405180910390fd5b6000828152606c602090815260409182902080548351601f60026000196101006001861615020190931692909204918201849004840281018401909452808452606093928301828280156123925780601f1061236757610100808354040283529160200191612392565b820191906000526020600020905b81548152906001019060200180831161237557829003601f168201915b5050505050905060606123a36119e6565b90508051600014156123b757509050610f7b565b8151156124785780826040516020018083805190602001908083835b602083106123f25780518252601f1990920191602091820191016123d3565b51815160209384036101000a600019018019909216911617905285519190930192850191508083835b6020831061243a5780518252601f19909201916020918201910161241b565b6001836020036101000a0380198251168184511680821785525050505050509050019250505060405160208183030381529060405292505050610f7b565b8061248285613483565b6040516020018083805190602001908083835b602083106124b45780518252601f199092019160209182019101612495565b51815160209384036101000a600019018019909216911617905285519190930192850191508083835b602083106124fc5780518252601f1990920191602091820191016124dd565b6001836020036101000a0380198251168184511680821785525050505050509050019250505060405160208183030381529060405292505050919050565b60008181526097602052604081206111b290612b31565b60008161255d81612d40565b6125656141d0565b60c9848154811061257257fe5b6000918252602080832060408051608081018252939091015461ffff80821685526201000082048116938501849052600160201b8204811692850192909252600160301b900416606083015260cb54919350600160801b909104600f0b91906125e09083906120ef9061311f565b905060006125f9836120ef866040015161ffff1661311f565b90506000612612846120ef876060015161ffff1661311f565b60cb5490915061228d9082906126399085908290600f90810b900b8863ffffffff61317416565b600f0b9063ffffffff61317416565b60008281526097602052604090206002015461266690611565612a58565b61167e5760405162461bcd60e51b81526004018080602001828103825260308152602001806143846030913960400191505060405180910390fd5b600080600080856126b181612d40565b600060c988815481106126c057fe5b60009182526020909120018054909150612706906118cd906118b09062010000810461ffff908116600160201b8304821601600160301b9092048116919091011661311f565b81546127349061ffff80821691620100008104821691600160201b8204811691600160301b9004168c6120a2565b82546000906127469061ffff16611d4b565b929b919a509850909650945050505050565b612763600033611d04565b6127a0576040805162461bcd60e51b81526020600482015260096024820152682737ba1030b236b4b760b91b604482015290519081900360640190fd5b60d080546001600160a01b0319166001600160a01b0392909216919091179055565b600090815260cf60205260409020546001600160401b031690565b60051c607f1690565b6000816127f281612d40565b60c983815481106127ff57fe5b600091825260209091200154600160201b900461ffff169392505050565b612825612b3c565b600082815260cf6020526040812054612846906001600160401b031661117a565b90508160ff168160ff16101561289c576040805162461bcd60e51b81526020600482015260166024820152754e6f7420656e6f756768206475726162696c6974792160501b604482015290519081900360640190fd5b60ff808316610bb802906014908316106128fc57806001600160401b03166128c26122a4565b600086815260cf60205260409020805467ffffffffffffffff19166001600160401b0392831642039390930190911691909117905561209c565b600084815260cf6020526040902080546001600160401b0380821684011667ffffffffffffffff1990911617905550505050565b60608061293c83611a47565b6001600160401b038111801561295157600080fd5b5060405190808252806020026020018201604052801561297b578160200160208202803683370190505b50905060005b81518110156129b35761299484826115b3565b8282815181106129a057fe5b6020908102919091010152600101612981565b5092915050565b6001600160a01b03918216600090815260696020908152604080832093909416825291909152205460ff1690565b60006116a960008360ff166116a1878761307d565b601481565b60006014612a0f83611975565b60ff16101592915050565b60006001821115612a2e5750610190610f7b565b8115612a3d575061012c610f7b565b5060c8919050565b60006111b260668363ffffffff61355d16565b3390565b600081815260686020526040902080546001600160a01b0319166001600160a01b0384169081179091558190612a91826119b8565b6001600160a01b03167f8c5be1e5ebec7d5bd14f71427d1e84f3dd0314c0f7b2291e5b200ac8c7c3b92560405160405180910390a45050565b6000808211612b20576040805162461bcd60e51b815260206004820152601a60248201527f536166654d6174683a206469766973696f6e206279207a65726f000000000000604482015290519081900360640190fd5b818381612b2957fe5b049392505050565b60006111b282613569565b604080516923a0a6a2afa0a226a4a760b11b8152905190819003600a019020612b659033611d04565b612ba7576040805162461bcd60e51b815260206004820152600e60248201526d2737ba1033b0b6b29030b236b4b760911b604482015290519081900360640190fd5b565b6001600160a01b038216612c04576040805162461bcd60e51b815260206004820181905260248201527f4552433732313a206d696e7420746f20746865207a65726f2061646472657373604482015290519081900360640190fd5b612c0d81612a45565b15612c5f576040805162461bcd60e51b815260206004820152601c60248201527f4552433732313a20746f6b656e20616c7265616479206d696e74656400000000604482015290519081900360640190fd5b612c6b6000838361356d565b6001600160a01b0382166000908152606560205260409020612c93908263ffffffff61368416565b50612ca66066828463ffffffff61369016565b5060405181906001600160a01b038416906000907fddf252ad1be2c89b69c2b068fc378daa952ba7f163c4a11628f55a4df523b3ef908290a45050565b600082821115612d3a576040805162461bcd60e51b815260206004820152601e60248201527f536166654d6174683a207375627472616374696f6e206f766572666c6f770000604482015290519081900360640190fd5b50900390565b60ce54811080612d5157504360cd54105b611cc4576040805162461bcd60e51b81526020600482015260146024820152730546f6f20667265736820666f72206c6f6f6b75760641b604482015290519081900360640190fd5b6000612da482612a45565b612ddf5760405162461bcd60e51b815260040180806020018281038252602c815260200180614358602c913960400191505060405180910390fd5b6000612dea836119b8565b9050806001600160a01b0316846001600160a01b03161480612e255750836001600160a01b0316612e1a84611017565b6001600160a01b0316145b806116a957506116a981856129ba565b826001600160a01b0316612e48826119b8565b6001600160a01b031614612e8d5760405162461bcd60e51b81526004018080602001828103825260298152602001806144bb6029913960400191505060405180910390fd5b6001600160a01b038216612ed25760405162461bcd60e51b81526004018080602001828103825260248152602001806143346024913960400191505060405180910390fd5b612edd83838361356d565b612ee8600082612a5c565b6001600160a01b0383166000908152606560205260409020612f10908263ffffffff6136a616565b506001600160a01b0382166000908152606560205260409020612f39908263ffffffff61368416565b50612f4c6066828463ffffffff61369016565b5080826001600160a01b0316846001600160a01b03167fddf252ad1be2c89b69c2b068fc378daa952ba7f163c4a11628f55a4df523b3ef60405160405180910390a4505050565b6000828152609760205260409020612fb1908263ffffffff6136b216565b156115af57612fbe612a58565b6001600160a01b0316816001600160a01b0316837f2f8788117e7eff1d82e926ec794901d17c78024a50270940304540a733656f0d60405160405180910390a45050565b600061148183836136c7565b600082815260976020526040902061302c908263ffffffff61372b16565b156115af57613039612a58565b6001600160a01b0316816001600160a01b0316837ff6391f5c32d9c69d2a47ea670b442974b53935d1edc7fd64eb21e047a839171b60405160405180910390a45050565b604080516020808201949094528082019290925280518083038201815260609092019052805191012090565b6000806130cd60016130c1868863ffffffff612ce316565b9063ffffffff61374016565b6040805160208082018790528251808303820181529183019092528051910120909150600090613103908363ffffffff61379a16565b9050613115818763ffffffff61374016565b9695505050505050565b6000677fffffffffffffff82111561313657600080fd5b5060401b90565b6000600f83810b9083900b0260401d60016001607f1b0319811280159061316b575060016001607f1b038113155b61148157600080fd5b6000600f83810b9083900b0160016001607f1b0319811280159061316b575060016001607f1b0381131561148157600080fd5b60008080806131b68686613801565b9097909650945050505050565b60006116a984848461387c565b60006131db30613946565b15905090565b600054610100900460ff16806131fa57506131fa6131d0565b80613208575060005460ff16155b6132435760405162461bcd60e51b815260040180806020018281038252602e81526020018061443f602e913960400191505060405180910390fd5b600054610100900460ff1615801561326e576000805460ff1961ff0019909116610100171660011790555b61327661329e565b61327e61394c565b61328883836139e9565b801561114f576000805461ff0019169055505050565b600054610100900460ff16806132b757506132b76131d0565b806132c5575060005460ff16155b6133005760405162461bcd60e51b815260040180806020018281038252602e81526020018061443f602e913960400191505060405180910390fd5b600054610100900460ff1615801561332b576000805460ff1961ff0019909116610100171660011790555b8015611cc4576000805461ff001916905550565b60008161334b57600080fd5b60006133578484613ace565b905060016001607f1b036001600160801b038216111561148157600080fd5b6000611481836001600160a01b038416613c17565b60008060008061339a85613c2f565b93509350935093509193509193565b6000806000806133b8866115db565b905060006133c587612a1a565b905060006133d2886114bf565b905060006133e384848a6005611688565b9050600080600160ff851611156134045761340186868c6003611688565b91505b60028460ff1611156134205761341d86868c6004611688565b90505b919750955093505050509250925092565b61343c848484612e35565b61344884848484613ca9565b61209c5760405162461bcd60e51b81526004018080602001828103825260328152602001806143026032913960400191505060405180910390fd5b6060816134a857506040805180820190915260018152600360fc1b6020820152610f7b565b8160005b81156134c057600101600a820491506134ac565b6060816001600160401b03811180156134d857600080fd5b506040519080825280601f01601f191660200182016040528015613503576020820181803683370190505b50859350905060001982015b831561355457600a840660300160f81b8282806001900393508151811061353257fe5b60200101906001600160f81b031916908160001a905350600a8404935061350f565b50949350505050565b60006114818383613c17565b5490565b60d0546040805163434d82a360e01b81526001600160a01b0386811660048381019190915260248301529151919092169163434d82a3916044808301926020929190829003018186803b1580156135c357600080fd5b505afa1580156135d7573d6000803e3d6000fd5b505050506040513d60208110156135ed57600080fd5b505115801561367b575060d0546040805163434d82a360e01b81526001600160a01b0385811660048381019190915260248301529151919092169163434d82a3916044808301926020929190829003018186803b15801561364d57600080fd5b505afa158015613661573d6000803e3d6000fd5b505050506040513d602081101561367757600080fd5b5051155b61114f57600080fd5b60006114818383613e29565b60006116a984846001600160a01b038516613e73565b60006114818383613f0a565b6000611481836001600160a01b038416613e29565b815460009082106137095760405162461bcd60e51b81526004018080602001828103825260228152602001806142b16022913960400191505060405180910390fd5b82600001828154811061371857fe5b9060005260206000200154905092915050565b6000611481836001600160a01b038416613f0a565b600082820183811015611481576040805162461bcd60e51b815260206004820152601b60248201527f536166654d6174683a206164646974696f6e206f766572666c6f770000000000604482015290519081900360640190fd5b60008082116137f0576040805162461bcd60e51b815260206004820152601860248201527f536166654d6174683a206d6f64756c6f206279207a65726f0000000000000000604482015290519081900360640190fd5b8183816137f957fe5b069392505050565b8154600090819083106138455760405162461bcd60e51b815260040180806020018281038252602281526020018061446d6022913960400191505060405180910390fd5b600084600001848154811061385657fe5b906000526020600020906002020190508060000154816001015492509250509250929050565b600082815260018401602052604081205482816139175760405162461bcd60e51b81526004018080602001828103825283818151815260200191508051906020019080838360005b838110156138dc5781810151838201526020016138c4565b50505050905090810190601f1680156139095780820380516001836020036101000a031916815260200191505b509250505060405180910390fd5b5084600001600182038154811061392a57fe5b9060005260206000209060020201600101549150509392505050565b3b151590565b600054610100900460ff168061396557506139656131d0565b80613973575060005460ff16155b6139ae5760405162461bcd60e51b815260040180806020018281038252602e81526020018061443f602e913960400191505060405180910390fd5b600054610100900460ff161580156139d9576000805460ff1961ff0019909116610100171660011790555b61332b6301ffc9a760e01b613fd0565b600054610100900460ff1680613a025750613a026131d0565b80613a10575060005460ff16155b613a4b5760405162461bcd60e51b815260040180806020018281038252602e81526020018061443f602e913960400191505060405180910390fd5b600054610100900460ff16158015613a76576000805460ff1961ff0019909116610100171660011790555b8251613a8990606a9060208601906141f7565b508151613a9d90606b9060208501906141f7565b50613aae6380ac58cd60e01b613fd0565b613abe635b5e139f60e01b613fd0565b61328863780e9d6360e01b613fd0565b600081613ada57600080fd5b60006001600160c01b038411613aff5782604085901b81613af757fe5b049050613c03565b60c084811c600160201b8110613b17576020918201911c5b620100008110613b29576010918201911c5b6101008110613b3a576008918201911c5b60108110613b4a576004918201911c5b60048110613b5a576002918201911c5b60028110613b69576001820191505b60bf820360018603901c6001018260ff0387901b81613b8457fe5b0492506001600160801b03831115613b9b57600080fd5b608085901c83026001600160801b038616840260c088901c604089901b82811015613bc7576001820391505b608084901b92900382811015613bde576001820391505b829003608084901c8214613bee57fe5b888181613bf757fe5b04870196505050505050505b6001600160801b0381111561148157600080fd5b60009081526001919091016020526040902054151590565b600080600080613c3d6141d0565b60c98681548110613c4a57fe5b600091825260209182902060408051608081018252929091015461ffff8082168085526201000083048216958501869052600160201b83048216938501849052600160301b909204166060909301839052999298509650945092505050565b6000613cbd846001600160a01b0316613946565b613cc9575060016116a9565b6060613def630a85bd0160e11b613cde612a58565b88878760405160240180856001600160a01b03166001600160a01b03168152602001846001600160a01b03166001600160a01b0316815260200183815260200180602001828103825283818151815260200191508051906020019080838360005b83811015613d57578181015183820152602001613d3f565b50505050905090810190601f168015613d845780820380516001836020036101000a031916815260200191505b5095505050505050604051602081830303815290604052906001600160e01b0319166020820180516001600160e01b038381831617835250505050604051806060016040528060328152602001614302603291396001600160a01b038816919063ffffffff61405416565b90506000818060200190516020811015613e0857600080fd5b50516001600160e01b031916630a85bd0160e11b1492505050949350505050565b6000613e358383613c17565b613e6b575081546001818101845560008481526020808220909301849055845484825282860190935260409020919091556111b2565b5060006111b2565b600082815260018401602052604081205480613ed8575050604080518082018252838152602080820184815286546001818101895560008981528481209551600290930290950191825591519082015586548684528188019092529290912055611481565b82856000016001830381548110613eeb57fe5b9060005260206000209060020201600101819055506000915050611481565b60008181526001830160205260408120548015613fc65783546000198083019190810190600090879083908110613f3d57fe5b9060005260206000200154905080876000018481548110613f5a57fe5b600091825260208083209091019290925582815260018981019092526040902090840190558654879080613f8a57fe5b600190038181906000526020600020016000905590558660010160008781526020019081526020016000206000905560019450505050506111b2565b60009150506111b2565b6001600160e01b0319808216141561402f576040805162461bcd60e51b815260206004820152601c60248201527f4552433136353a20696e76616c696420696e7465726661636520696400000000604482015290519081900360640190fd5b6001600160e01b0319166000908152603360205260409020805460ff19166001179055565b60606116a984846000858561406885613946565b6140b9576040805162461bcd60e51b815260206004820152601d60248201527f416464726573733a2063616c6c20746f206e6f6e2d636f6e7472616374000000604482015290519081900360640190fd5b60006060866001600160a01b031685876040518082805190602001908083835b602083106140f85780518252601f1990920191602091820191016140d9565b6001836020036101000a03801982511681845116808217855250505050505090500191505060006040518083038185875af1925050503d806000811461415a576040519150601f19603f3d011682016040523d82523d6000602084013e61415f565b606091505b5091509150611fe682828660608315614179575081611481565b8251156141895782518084602001fd5b60405162461bcd60e51b81526020600482018181528451602484015284518593919283926044019190850190808383600083156138dc5781810151838201526020016138c4565b60408051608081018252600080825260208201819052918101829052606081019190915290565b828054600181600116156101000203166002900490600052602060002090601f016020900481019282601f1061423857805160ff1916838001178555614265565b82800160010185558215614265579182015b8281111561426557825182559160200191906001019061424a565b50614271929150614275565b5090565b61101491905b80821115614271576000815560010161427b56fe537461727320706172616d6574657220746f6f20686967682120286d6178203729456e756d657261626c655365743a20696e646578206f7574206f6620626f756e6473416363657373436f6e74726f6c3a2073656e646572206d75737420626520616e2061646d696e20746f206772616e744552433732313a207472616e7366657220746f206e6f6e20455243373231526563656976657220696d706c656d656e7465724552433732313a207472616e7366657220746f20746865207a65726f20616464726573734552433732313a206f70657261746f7220717565727920666f72206e6f6e6578697374656e7420746f6b656e416363657373436f6e74726f6c3a2073656e646572206d75737420626520616e2061646d696e20746f207265766f6b654552433732313a20617070726f76652063616c6c6572206973206e6f74206f776e6572206e6f7220617070726f76656420666f7220616c6c4552433732313a2062616c616e636520717565727920666f7220746865207a65726f20616464726573734552433732313a206f776e657220717565727920666f72206e6f6e6578697374656e7420746f6b656e496e697469616c697a61626c653a20636f6e747261637420697320616c726561647920696e697469616c697a6564456e756d657261626c654d61703a20696e646578206f7574206f6620626f756e64734552433732313a20617070726f76656420717565727920666f72206e6f6e6578697374656e7420746f6b656e4552433732313a207472616e73666572206f6620746f6b656e2074686174206973206e6f74206f776e4552433732314d657461646174613a2055524920717565727920666f72206e6f6e6578697374656e7420746f6b656e4552433732313a20617070726f76616c20746f2063757272656e74206f776e65724552433732313a207472616e736665722063616c6c6572206973206e6f74206f776e6572206e6f7220617070726f766564416363657373436f6e74726f6c3a2063616e206f6e6c792072656e6f756e636520726f6c657320666f722073656c66a2646970667358221220b252a00772311f9b253168b9369cc0cec7afa4f72c4042ec7c7705a6a61d91ca64736f6c63430006050033","immutableReferences":{},"source":"pragma solidity ^0.6.0;\n\nimport \"@openzeppelin/contracts-upgradeable/proxy/Initializable.sol\";\nimport \"@openzeppelin/contracts-upgradeable/token/ERC721/ERC721Upgradeable.sol\";\nimport \"@openzeppelin/contracts-upgradeable/access/AccessControlUpgradeable.sol\";\nimport \"@openzeppelin/contracts/math/SafeMath.sol\";\nimport \"abdk-libraries-solidity/ABDKMath64x64.sol\";\nimport \"./Promos.sol\";\nimport \"./util.sol\";\n\ncontract Shields is Initializable, ERC721Upgradeable, AccessControlUpgradeable {\n\n    using ABDKMath64x64 for int128;\n    using ABDKMath64x64 for uint16;\n\n    bytes32 public constant GAME_ADMIN = keccak256(\"GAME_ADMIN\");\n\n    function initialize () public initializer {\n        __ERC721_init(\"CryptoBlades shield\", \"CWS\");\n        __AccessControl_init_unchained();\n\n        _setupRole(DEFAULT_ADMIN_ROLE, msg.sender);\n\n        shieldBaseMultiplier = ABDKMath64x64.fromUInt(1);\n        defenseMultPerPointBasic =  ABDKMath64x64.divu(1, 400); // 0.25%\n        defenseMultPerPointDEF = defenseMultPerPointBasic.mul(ABDKMath64x64.divu(103, 100)); // 0.2575% (+3%)\n        defenseMultPerPointMatching = defenseMultPerPointBasic.mul(ABDKMath64x64.divu(107, 100)); // 0.2675% (+7%)\n    }\n\n    function migrateTo_surprise(Promos _promos) public {\n        require(hasRole(DEFAULT_ADMIN_ROLE, msg.sender), \"Not admin\");\n\n        promos = _promos;\n    }\n\n    /*\n        visual numbers start at 0, increment values by 1\n        stars: 1-5 (1,2,3: primary only, 4: one secondary, 5: two secondaries)\n        traits: 0-3 [0(fire) > 1(earth) > 2(lightning) > 3(water) > repeat]\n        stats: STR(fire), DEX(earth), CHA(lightning), INT(water), BLK(traitless)\n        base stat rolls: 1*(1-50), 2*(45-75), 3*(70-100), 4*(50-100), 5*(66-100, main is 68-100)\n        defense: each point contributes .25% to fight defense\n        cosmetics: 0-255, to be used for future display purposes\n    */\n\n    struct Shield {\n        uint16 properties; // right to left: 3b stars, 2b trait, 7b stat pattern, 4b EMPTY\n        // stats (each point refers to .25% improvement)\n        uint16 stat1;\n        uint16 stat2;\n        uint16 stat3;\n    }\n\n    struct ShieldCosmetics {\n        uint8 version;\n        uint256 seed;\n    }\n\n    Shield[] private tokens;\n    ShieldCosmetics[] private cosmetics;\n\n    int128 public shieldBaseMultiplier; // 1.0\n    int128 public defenseMultPerPointBasic; // 0.25%\n    int128 public defenseMultPerPointDEF; // 0.2575% (+3%)\n    int128 public defenseMultPerPointMatching; // 0.2675% (+7%)\n\n    uint256 private lastMintedBlock;\n    uint256 private firstMintedOfLastBlock;\n\n    mapping(uint256 => uint64) durabilityTimestamp;\n\n    uint256 public constant maxDurability = 20;\n    uint256 public constant secondsPerDurability = 3000; //50 * 60\n\n    Promos public promos;\n\n    event NewShield(uint256 indexed shield, address indexed minter);\n\n    modifier restricted() {\n        _restricted();\n        _;\n    }\n\n    function _restricted() internal view {\n        require(hasRole(GAME_ADMIN, msg.sender), \"Not game admin\");\n    }\n\n    modifier noFreshLookup(uint256 id) {\n        _noFreshLookup(id);\n        _;\n    }\n\n    function _noFreshLookup(uint256 id) internal view {\n        require(id < firstMintedOfLastBlock || lastMintedBlock < block.number, \"Too fresh for lookup\");\n    }\n\n    function getStats(uint256 id) internal view\n        returns (uint16 _properties, uint16 _stat1, uint16 _stat2, uint16 _stat3) {\n\n        Shield memory s = tokens[id];\n        return (s.properties, s.stat1, s.stat2, s.stat3);\n    }\n\n    function get(uint256 id) public view noFreshLookup(id)\n        returns (\n            uint16 _properties, uint16 _stat1, uint16 _stat2, uint16 _stat3\n    ) {\n        return _get(id);\n    }\n\n    function _get(uint256 id) internal view\n        returns (\n            uint16 _properties, uint16 _stat1, uint16 _stat2, uint16 _stat3\n    ) {\n        return getStats(id);\n    }\n\n    function getOwned() public view returns(uint256[] memory) {\n        return getOwnedBy(msg.sender);\n    }\n\n    function getOwnedBy(address owner) public view returns(uint256[] memory) {\n        uint256[] memory tokens = new uint256[](balanceOf(owner));\n        for(uint256 i = 0; i < tokens.length; i++) {\n            tokens[i] = tokenOfOwnerByIndex(owner, i);\n        }\n        return tokens;\n    }\n\n    function mintForPurchase(address buyer) external restricted {\n        require(totalSupply() < 25000, \"Out of stock\"); // temporary restriction\n        mint(buyer, uint256(keccak256(abi.encodePacked(buyer, blockhash(block.number - 1)))));\n    }\n\n    function mint(address minter, uint256 seed) public restricted returns(uint256) {\n        uint256 stars;\n        uint256 roll = seed % 100;\n        // will need revision, possibly manual configuration if we support more than 5 stars\n        if(roll < 1) {\n            stars = 4; // 5* at 1%\n        }\n        else if(roll < 6) { // 4* at 5%\n            stars = 3;\n        }\n        else if(roll < 21) { // 3* at 15%\n            stars = 2;\n        }\n        else if(roll < 56) { // 2* at 35%\n            stars = 1;\n        }\n        else {\n            stars = 0; // 1* at 44%\n        }\n\n        return mintShieldWithStars(minter, stars, seed);\n    }\n\n    function mintShieldWithStars(address minter, uint256 stars, uint256 seed) public restricted returns(uint256) {\n        require(stars < 8, \"Stars parameter too high! (max 7)\");\n        (uint16 stat1, uint16 stat2, uint16 stat3) = getStatRolls(stars, seed);\n\n        return performMintShield(minter,\n            getRandomProperties(stars, seed),\n            stat1,\n            stat2,\n            stat3,\n            RandomUtil.combineSeeds(seed,3)\n        );\n    }\n\n    function performMintShield(address minter,\n        uint16 properties,\n        uint16 stat1, uint16 stat2, uint16 stat3,\n        uint256 cosmeticSeed\n    ) public restricted returns(uint256) {\n\n        uint256 tokenID = tokens.length;\n\n        if(block.number != lastMintedBlock)\n            firstMintedOfLastBlock = tokenID;\n        lastMintedBlock = block.number;\n\n        tokens.push(Shield(properties, stat1, stat2, stat3));\n        cosmetics.push(ShieldCosmetics(0, cosmeticSeed));\n        _mint(minter, tokenID);\n        durabilityTimestamp[tokenID] = uint64(now.sub(getDurabilityMaxWait()));\n\n        emit NewShield(tokenID, minter);\n        return tokenID;\n    }\n\n    function getRandomProperties(uint256 stars, uint256 seed) public pure returns (uint16) {\n        return uint16((stars & 0x7) // stars aren't randomized here!\n            | ((RandomUtil.randomSeededMinMax(0,3,RandomUtil.combineSeeds(seed,1)) & 0x3) << 3) // trait\n            | ((RandomUtil.randomSeededMinMax(0,124,RandomUtil.combineSeeds(seed,2)) & 0x7F) << 5)); // statPattern\n    }\n\n    function getStatRolls(uint256 stars, uint256 seed) private pure returns (uint16, uint16, uint16) {\n        uint16 minRoll = getStatMinRoll(stars);\n        uint16 maxRoll = getStatMaxRoll(stars);\n        uint8 statCount = getStatCount(stars);\n\n        uint16 stat1 = getRandomStat(minRoll, maxRoll, seed, 5);\n        uint16 stat2 = 0;\n        uint16 stat3 = 0;\n        if(statCount > 1) {\n            stat2 = getRandomStat(minRoll, maxRoll, seed, 3);\n        }\n        if(statCount > 2) {\n            stat3 = getRandomStat(minRoll, maxRoll, seed, 4);\n        }\n        return (stat1, stat2, stat3);\n    }\n\n    function getRandomStat(uint16 minRoll, uint16 maxRoll, uint256 seed, uint256 seed2) public pure returns (uint16) {\n        return uint16(RandomUtil.randomSeededMinMax(minRoll, maxRoll,RandomUtil.combineSeeds(seed, seed2)));\n    }\n\n    function getRandomCosmetic(uint256 seed, uint256 seed2, uint8 limit) public pure returns (uint8) {\n        return uint8(RandomUtil.randomSeededMinMax(0, limit, RandomUtil.combineSeeds(seed, seed2)));\n    }\n\n    function getStatMinRoll(uint256 stars) public pure returns (uint16) {\n        // 1 star\n        if (stars == 0) return 4;\n        // 2 star\n        if (stars == 1) return 180;\n        // 3 star\n        if (stars == 2) return 280;\n        // 4 star\n        if (stars == 3) return 200;\n        // 5+ star\n        return 268;\n    }\n\n    function getStatMaxRoll(uint256 stars) public pure returns (uint16) {\n        // 3+ star\n        if (stars > 1) return 400;\n        // 2 star\n        if (stars > 0) return 300;\n        // 1 star\n        return 200;\n    }\n\n    function getStatCount(uint256 stars) public pure returns (uint8) {\n        // 1-2 star\n        if (stars < 3) return 1;\n        // 3+ star\n        return uint8(stars)-1;\n    }\n\n    function getProperties(uint256 id) public view noFreshLookup(id) returns (uint16) {\n        return tokens[id].properties;\n    }\n\n    function getStars(uint256 id) public view noFreshLookup(id) returns (uint8) {\n        return getStarsFromProperties(getProperties(id));\n    }\n\n    function getStarsFromProperties(uint16 properties) public pure returns (uint8) {\n        return uint8(properties & 0x7); // first two bits for stars\n    }\n\n    function getTrait(uint256 id) public view noFreshLookup(id) returns (uint8) {\n        return getTraitFromProperties(getProperties(id));\n    }\n\n    function getTraitFromProperties(uint16 properties) public pure returns (uint8) {\n        return uint8((properties >> 3) & 0x3); // two bits after star bits (3)\n    }\n\n    function getStatPattern(uint256 id) public view noFreshLookup(id) returns (uint8) {\n        return getStatPatternFromProperties(getProperties(id));\n    }\n\n    function getStatPatternFromProperties(uint16 properties) public pure returns (uint8) {\n        return uint8((properties >> 5) & 0x7F); // 7 bits after star(3) and trait(2) bits\n    }\n\n    function getStat1Trait(uint8 statPattern) public pure returns (uint8) {\n        return uint8(uint256(statPattern) % 5); // 0-3 regular traits, 4 = traitless (DEF)\n    }\n\n    function getStat2Trait(uint8 statPattern) public pure returns (uint8) {\n        return uint8(SafeMath.div(statPattern, 5) % 5); // 0-3 regular traits, 4 = traitless (DEF)\n    }\n\n    function getStat3Trait(uint8 statPattern) public pure returns (uint8) {\n        return uint8(SafeMath.div(statPattern, 25) % 5); // 0-3 regular traits, 4 = traitless (DEF)\n    }\n\n    function getStat1(uint256 id) public view noFreshLookup(id) returns (uint16) {\n        return tokens[id].stat1;\n    }\n\n    function getStat2(uint256 id) public view noFreshLookup(id) returns (uint16) {\n        return tokens[id].stat2;\n    }\n\n    function getStat3(uint256 id) public view noFreshLookup(id) returns (uint16) {\n        return tokens[id].stat3;\n    }\n\n    function getDefenseMultiplier(uint256 id) public view noFreshLookup(id) returns (int128) {\n        // returns a 64.64 fixed point number for defense multiplier\n        // this function does not account for traits\n        // it is used to calculate base enemy defenses for targeting\n        Shield memory shd = tokens[id];\n        int128 defensePerPoint = defenseMultPerPointBasic;\n        int128 stat1 = shd.stat1.fromUInt().mul(defensePerPoint);\n        int128 stat2 = shd.stat2.fromUInt().mul(defensePerPoint);\n        int128 stat3 = shd.stat3.fromUInt().mul(defensePerPoint);\n        return shieldBaseMultiplier.add(stat1).add(stat2).add(stat3);\n    }\n\n    function getDefenseMultiplierForTrait(\n        uint16 properties,\n        uint16 stat1,\n        uint16 stat2,\n        uint16 stat3,\n        uint8 trait\n    ) public view returns(int128) {\n        // Does not include character trait to shield trait match\n        // Only counts arbitrary trait to shield stat trait\n        // This function can be used by frontend to get expected % bonus for each type\n        // Making it easy to see on the market how useful it will be to you\n        uint8 statPattern = getStatPatternFromProperties(properties);\n        int128 result = shieldBaseMultiplier;\n\n        if(getStat1Trait(statPattern) == trait)\n            result = result.add(stat1.fromUInt().mul(defenseMultPerPointMatching));\n        else if(getStat1Trait(statPattern) == 4) // DEF, traitless\n            result = result.add(stat1.fromUInt().mul(defenseMultPerPointDEF));\n        else\n            result = result.add(stat1.fromUInt().mul(defenseMultPerPointBasic));\n\n        if(getStat2Trait(statPattern) == trait)\n            result = result.add(stat2.fromUInt().mul(defenseMultPerPointMatching));\n        else if(getStat2Trait(statPattern) == 4) // DEF, traitless\n            result = result.add(stat2.fromUInt().mul(defenseMultPerPointDEF));\n        else\n            result = result.add(stat2.fromUInt().mul(defenseMultPerPointBasic));\n\n        if(getStat3Trait(statPattern) == trait)\n            result = result.add(stat3.fromUInt().mul(defenseMultPerPointMatching));\n        else if(getStat3Trait(statPattern) == 4) // DEF, traitless\n            result = result.add(stat3.fromUInt().mul(defenseMultPerPointDEF));\n        else\n            result = result.add(stat3.fromUInt().mul(defenseMultPerPointBasic));\n\n        return result;\n    }\n\n    function getFightData(uint256 id, uint8 charTrait) public view noFreshLookup(id) returns (int128, int128, uint24, uint8) {\n        Shield storage shd = tokens[id];\n        return (\n            shieldBaseMultiplier.add(defenseMultPerPointBasic.mul(\n                    ABDKMath64x64.fromUInt(\n                        shd.stat1 + shd.stat2 + shd.stat3\n                    )\n            )),//targetMult\n            getDefenseMultiplierForTrait(shd.properties, shd.stat1, shd.stat2, shd.stat3, charTrait),\n            // Bonus defense support intended in future.\n            0,\n            getTraitFromProperties(shd.properties)\n        );\n    }\n\n    function getFightDataAndDrainDurability(uint256 id, uint8 charTrait, uint8 drainAmount) public\n        restricted noFreshLookup(id)\n    returns (int128, int128, uint24, uint8) {\n\n        uint8 durabilityPoints = getDurabilityPointsFromTimestamp(durabilityTimestamp[id]);\n        require(durabilityPoints >= drainAmount, \"Not enough durability!\");\n\n        uint64 drainTime = uint64(drainAmount * secondsPerDurability);\n        if(durabilityPoints >= maxDurability) { // if durability full, we reset timestamp and drain from that\n            durabilityTimestamp[id] = uint64(now - getDurabilityMaxWait() + drainTime);\n        }\n        else {\n            durabilityTimestamp[id] = uint64(durabilityTimestamp[id] + drainTime);\n        }\n        \n        Shield storage shd = tokens[id];\n        return (\n            shieldBaseMultiplier.add(defenseMultPerPointBasic.mul(\n                    ABDKMath64x64.fromUInt(\n                        shd.stat1 + shd.stat2 + shd.stat3\n                    )\n            )),//targetMult\n            getDefenseMultiplierForTrait(shd.properties, shd.stat1, shd.stat2, shd.stat3, charTrait),\n            // Bonus defense support intended in future.\n            0,\n            getTraitFromProperties(shd.properties)\n        );\n    }\n\n    function drainDurability(uint256 id, uint8 amount) public restricted {\n        uint8 durabilityPoints = getDurabilityPointsFromTimestamp(durabilityTimestamp[id]);\n        require(durabilityPoints >= amount, \"Not enough durability!\");\n\n        uint64 drainTime = uint64(amount * secondsPerDurability);\n        if(durabilityPoints >= maxDurability) { // if durability full, we reset timestamp and drain from that\n            durabilityTimestamp[id] = uint64(now - getDurabilityMaxWait() + drainTime);\n        }\n        else {\n            durabilityTimestamp[id] = uint64(durabilityTimestamp[id] + drainTime);\n        }\n    }\n\n    function getDurabilityTimestamp(uint256 id) public view returns (uint64) {\n        return durabilityTimestamp[id];\n    }\n\n    function setDurabilityTimestamp(uint256 id, uint64 timestamp) public restricted {\n        durabilityTimestamp[id] = timestamp;\n    }\n\n    function getDurabilityPoints(uint256 id) public view returns (uint8) {\n        return getDurabilityPointsFromTimestamp(durabilityTimestamp[id]);\n    }\n\n    function getDurabilityPointsFromTimestamp(uint64 timestamp) public view returns (uint8) {\n        if(timestamp  > now)\n            return 0;\n\n        uint256 points = (now - timestamp) / secondsPerDurability;\n        if(points > maxDurability) {\n            points = maxDurability;\n        }\n        return uint8(points);\n    }\n\n    function isDurabilityFull(uint256 id) public view returns (bool) {\n        return getDurabilityPoints(id) >= maxDurability;\n    }\n\n    function getDurabilityMaxWait() public pure returns (uint64) {\n        return uint64(maxDurability * secondsPerDurability);\n    }\n    \n    function _beforeTokenTransfer(address from, address to, uint256 tokenId) internal override {\n        require(promos.getBit(from, 4) == false && promos.getBit(to, 4) == false);\n    }\n}\n","sourcePath":"D:\\Projetos Crypto\\CryptoWaifu\\0.1\\contracts\\shields.sol","compiler":{"name":"solc","version":"0.6.5+commit.f956cc89.Emscripten.clang"},"schemaVersion":"3.3.4","updatedAt":"2021-08-16T01:26:14.466Z","devdoc":{"methods":{"approve(address,uint256)":{"details":"See {IERC721-approve}."},"balanceOf(address)":{"details":"See {IERC721-balanceOf}."},"baseURI()":{"details":"Returns the base URI set via {_setBaseURI}. This will be automatically added as a prefix in {tokenURI} to each token's URI, or to the token ID if no specific URI is set for that token ID."},"getApproved(uint256)":{"details":"See {IERC721-getApproved}."},"getRoleAdmin(bytes32)":{"details":"Returns the admin role that controls `role`. See {grantRole} and {revokeRole}.     * To change a role's admin, use {_setRoleAdmin}."},"getRoleMember(bytes32,uint256)":{"details":"Returns one of the accounts that have `role`. `index` must be a value between 0 and {getRoleMemberCount}, non-inclusive.     * Role bearers are not sorted in any particular way, and their ordering may change at any point.     * WARNING: When using {getRoleMember} and {getRoleMemberCount}, make sure you perform all queries on the same block. See the following https://forum.openzeppelin.com/t/iterating-over-elements-on-enumerableset-in-openzeppelin-contracts/2296[forum post] for more information."},"getRoleMemberCount(bytes32)":{"details":"Returns the number of accounts that have `role`. Can be used together with {getRoleMember} to enumerate all bearers of a role."},"grantRole(bytes32,address)":{"details":"Grants `role` to `account`.     * If `account` had not been already granted `role`, emits a {RoleGranted} event.     * Requirements:     * - the caller must have ``role``'s admin role."},"hasRole(bytes32,address)":{"details":"Returns `true` if `account` has been granted `role`."},"isApprovedForAll(address,address)":{"details":"See {IERC721-isApprovedForAll}."},"name()":{"details":"See {IERC721Metadata-name}."},"ownerOf(uint256)":{"details":"See {IERC721-ownerOf}."},"renounceRole(bytes32,address)":{"details":"Revokes `role` from the calling account.     * Roles are often managed via {grantRole} and {revokeRole}: this function's purpose is to provide a mechanism for accounts to lose their privileges if they are compromised (such as when a trusted device is misplaced).     * If the calling account had been granted `role`, emits a {RoleRevoked} event.     * Requirements:     * - the caller must be `account`."},"revokeRole(bytes32,address)":{"details":"Revokes `role` from `account`.     * If `account` had been granted `role`, emits a {RoleRevoked} event.     * Requirements:     * - the caller must have ``role``'s admin role."},"safeTransferFrom(address,address,uint256)":{"details":"See {IERC721-safeTransferFrom}."},"safeTransferFrom(address,address,uint256,bytes)":{"details":"See {IERC721-safeTransferFrom}."},"setApprovalForAll(address,bool)":{"details":"See {IERC721-setApprovalForAll}."},"supportsInterface(bytes4)":{"details":"See {IERC165-supportsInterface}.     * Time complexity O(1), guaranteed to always use less than 30 000 gas."},"symbol()":{"details":"See {IERC721Metadata-symbol}."},"tokenByIndex(uint256)":{"details":"See {IERC721Enumerable-tokenByIndex}."},"tokenOfOwnerByIndex(address,uint256)":{"details":"See {IERC721Enumerable-tokenOfOwnerByIndex}."},"tokenURI(uint256)":{"details":"See {IERC721Metadata-tokenURI}."},"totalSupply()":{"details":"See {IERC721Enumerable-totalSupply}."},"transferFrom(address,address,uint256)":{"details":"See {IERC721-transferFrom}."}}},"userdoc":{"methods":{}}}