{
  "contractName": "Weapons",
  "abi": [
    {
      "anonymous": false,
      "inputs": [
        {
          "indexed": true,
          "internalType": "address",
          "name": "owner",
          "type": "address"
        },
        {
          "indexed": true,
          "internalType": "address",
          "name": "approved",
          "type": "address"
        },
        {
          "indexed": true,
          "internalType": "uint256",
          "name": "tokenId",
          "type": "uint256"
        }
      ],
      "name": "Approval",
      "type": "event"
    },
    {
      "anonymous": false,
      "inputs": [
        {
          "indexed": true,
          "internalType": "address",
          "name": "owner",
          "type": "address"
        },
        {
          "indexed": true,
          "internalType": "address",
          "name": "operator",
          "type": "address"
        },
        {
          "indexed": false,
          "internalType": "bool",
          "name": "approved",
          "type": "bool"
        }
      ],
      "name": "ApprovalForAll",
      "type": "event"
    },
    {
      "anonymous": false,
      "inputs": [
        {
          "indexed": true,
          "internalType": "address",
          "name": "owner",
          "type": "address"
        },
        {
          "indexed": true,
          "internalType": "uint256",
          "name": "burned",
          "type": "uint256"
        }
      ],
      "name": "Burned",
      "type": "event"
    },
    {
      "anonymous": false,
      "inputs": [
        {
          "indexed": true,
          "internalType": "uint256",
          "name": "weapon",
          "type": "uint256"
        },
        {
          "indexed": true,
          "internalType": "address",
          "name": "minter",
          "type": "address"
        }
      ],
      "name": "NewWeapon",
      "type": "event"
    },
    {
      "anonymous": false,
      "inputs": [
        {
          "indexed": true,
          "internalType": "address",
          "name": "owner",
          "type": "address"
        },
        {
          "indexed": true,
          "internalType": "uint256",
          "name": "reforged",
          "type": "uint256"
        },
        {
          "indexed": true,
          "internalType": "uint256",
          "name": "burned",
          "type": "uint256"
        },
        {
          "indexed": false,
          "internalType": "uint8",
          "name": "lowPoints",
          "type": "uint8"
        },
        {
          "indexed": false,
          "internalType": "uint8",
          "name": "fourPoints",
          "type": "uint8"
        },
        {
          "indexed": false,
          "internalType": "uint8",
          "name": "fivePoints",
          "type": "uint8"
        }
      ],
      "name": "Reforged",
      "type": "event"
    },
    {
      "anonymous": false,
      "inputs": [
        {
          "indexed": true,
          "internalType": "address",
          "name": "owner",
          "type": "address"
        },
        {
          "indexed": true,
          "internalType": "uint256",
          "name": "reforged",
          "type": "uint256"
        },
        {
          "indexed": false,
          "internalType": "uint8",
          "name": "lowDust",
          "type": "uint8"
        },
        {
          "indexed": false,
          "internalType": "uint8",
          "name": "fourDust",
          "type": "uint8"
        },
        {
          "indexed": false,
          "internalType": "uint8",
          "name": "fiveDust",
          "type": "uint8"
        },
        {
          "indexed": false,
          "internalType": "uint8",
          "name": "lowPoints",
          "type": "uint8"
        },
        {
          "indexed": false,
          "internalType": "uint8",
          "name": "fourPoints",
          "type": "uint8"
        },
        {
          "indexed": false,
          "internalType": "uint8",
          "name": "fivePoints",
          "type": "uint8"
        }
      ],
      "name": "ReforgedWithDust",
      "type": "event"
    },
    {
      "anonymous": false,
      "inputs": [
        {
          "indexed": true,
          "internalType": "bytes32",
          "name": "role",
          "type": "bytes32"
        },
        {
          "indexed": true,
          "internalType": "bytes32",
          "name": "previousAdminRole",
          "type": "bytes32"
        },
        {
          "indexed": true,
          "internalType": "bytes32",
          "name": "newAdminRole",
          "type": "bytes32"
        }
      ],
      "name": "RoleAdminChanged",
      "type": "event"
    },
    {
      "anonymous": false,
      "inputs": [
        {
          "indexed": true,
          "internalType": "bytes32",
          "name": "role",
          "type": "bytes32"
        },
        {
          "indexed": true,
          "internalType": "address",
          "name": "account",
          "type": "address"
        },
        {
          "indexed": true,
          "internalType": "address",
          "name": "sender",
          "type": "address"
        }
      ],
      "name": "RoleGranted",
      "type": "event"
    },
    {
      "anonymous": false,
      "inputs": [
        {
          "indexed": true,
          "internalType": "bytes32",
          "name": "role",
          "type": "bytes32"
        },
        {
          "indexed": true,
          "internalType": "address",
          "name": "account",
          "type": "address"
        },
        {
          "indexed": true,
          "internalType": "address",
          "name": "sender",
          "type": "address"
        }
      ],
      "name": "RoleRevoked",
      "type": "event"
    },
    {
      "anonymous": false,
      "inputs": [
        {
          "indexed": true,
          "internalType": "address",
          "name": "from",
          "type": "address"
        },
        {
          "indexed": true,
          "internalType": "address",
          "name": "to",
          "type": "address"
        },
        {
          "indexed": true,
          "internalType": "uint256",
          "name": "tokenId",
          "type": "uint256"
        }
      ],
      "name": "Transfer",
      "type": "event"
    },
    {
      "inputs": [],
      "name": "DEFAULT_ADMIN_ROLE",
      "outputs": [
        {
          "internalType": "bytes32",
          "name": "",
          "type": "bytes32"
        }
      ],
      "stateMutability": "view",
      "type": "function"
    },
    {
      "inputs": [],
      "name": "GAME_ADMIN",
      "outputs": [
        {
          "internalType": "bytes32",
          "name": "",
          "type": "bytes32"
        }
      ],
      "stateMutability": "view",
      "type": "function"
    },
    {
      "inputs": [],
      "name": "RECEIVE_DOES_NOT_SET_TRANSFER_TIMESTAMP",
      "outputs": [
        {
          "internalType": "bytes32",
          "name": "",
          "type": "bytes32"
        }
      ],
      "stateMutability": "view",
      "type": "function"
    },
    {
      "inputs": [
        {
          "internalType": "address",
          "name": "to",
          "type": "address"
        },
        {
          "internalType": "uint256",
          "name": "tokenId",
          "type": "uint256"
        }
      ],
      "name": "approve",
      "outputs": [],
      "stateMutability": "nonpayable",
      "type": "function"
    },
    {
      "inputs": [
        {
          "internalType": "address",
          "name": "owner",
          "type": "address"
        }
      ],
      "name": "balanceOf",
      "outputs": [
        {
          "internalType": "uint256",
          "name": "",
          "type": "uint256"
        }
      ],
      "stateMutability": "view",
      "type": "function"
    },
    {
      "inputs": [],
      "name": "baseURI",
      "outputs": [
        {
          "internalType": "string",
          "name": "",
          "type": "string"
        }
      ],
      "stateMutability": "view",
      "type": "function"
    },
    {
      "inputs": [],
      "name": "burnPointMultiplier",
      "outputs": [
        {
          "internalType": "uint256",
          "name": "",
          "type": "uint256"
        }
      ],
      "stateMutability": "view",
      "type": "function"
    },
    {
      "inputs": [],
      "name": "fiveStarBurnPowerPerPoint",
      "outputs": [
        {
          "internalType": "uint256",
          "name": "",
          "type": "uint256"
        }
      ],
      "stateMutability": "view",
      "type": "function"
    },
    {
      "inputs": [],
      "name": "fourStarBurnPowerPerPoint",
      "outputs": [
        {
          "internalType": "uint256",
          "name": "",
          "type": "uint256"
        }
      ],
      "stateMutability": "view",
      "type": "function"
    },
    {
      "inputs": [
        {
          "internalType": "uint256",
          "name": "tokenId",
          "type": "uint256"
        }
      ],
      "name": "getApproved",
      "outputs": [
        {
          "internalType": "address",
          "name": "",
          "type": "address"
        }
      ],
      "stateMutability": "view",
      "type": "function"
    },
    {
      "inputs": [
        {
          "internalType": "bytes32",
          "name": "role",
          "type": "bytes32"
        }
      ],
      "name": "getRoleAdmin",
      "outputs": [
        {
          "internalType": "bytes32",
          "name": "",
          "type": "bytes32"
        }
      ],
      "stateMutability": "view",
      "type": "function"
    },
    {
      "inputs": [
        {
          "internalType": "bytes32",
          "name": "role",
          "type": "bytes32"
        },
        {
          "internalType": "uint256",
          "name": "index",
          "type": "uint256"
        }
      ],
      "name": "getRoleMember",
      "outputs": [
        {
          "internalType": "address",
          "name": "",
          "type": "address"
        }
      ],
      "stateMutability": "view",
      "type": "function"
    },
    {
      "inputs": [
        {
          "internalType": "bytes32",
          "name": "role",
          "type": "bytes32"
        }
      ],
      "name": "getRoleMemberCount",
      "outputs": [
        {
          "internalType": "uint256",
          "name": "",
          "type": "uint256"
        }
      ],
      "stateMutability": "view",
      "type": "function"
    },
    {
      "inputs": [
        {
          "internalType": "bytes32",
          "name": "role",
          "type": "bytes32"
        },
        {
          "internalType": "address",
          "name": "account",
          "type": "address"
        }
      ],
      "name": "grantRole",
      "outputs": [],
      "stateMutability": "nonpayable",
      "type": "function"
    },
    {
      "inputs": [
        {
          "internalType": "bytes32",
          "name": "role",
          "type": "bytes32"
        },
        {
          "internalType": "address",
          "name": "account",
          "type": "address"
        }
      ],
      "name": "hasRole",
      "outputs": [
        {
          "internalType": "bool",
          "name": "",
          "type": "bool"
        }
      ],
      "stateMutability": "view",
      "type": "function"
    },
    {
      "inputs": [
        {
          "internalType": "address",
          "name": "owner",
          "type": "address"
        },
        {
          "internalType": "address",
          "name": "operator",
          "type": "address"
        }
      ],
      "name": "isApprovedForAll",
      "outputs": [
        {
          "internalType": "bool",
          "name": "",
          "type": "bool"
        }
      ],
      "stateMutability": "view",
      "type": "function"
    },
    {
      "inputs": [
        {
          "internalType": "uint256",
          "name": "",
          "type": "uint256"
        }
      ],
      "name": "lastTransferTimestamp",
      "outputs": [
        {
          "internalType": "uint256",
          "name": "",
          "type": "uint256"
        }
      ],
      "stateMutability": "view",
      "type": "function"
    },
    {
      "inputs": [],
      "name": "lowStarBurnPowerPerPoint",
      "outputs": [
        {
          "internalType": "uint256",
          "name": "",
          "type": "uint256"
        }
      ],
      "stateMutability": "view",
      "type": "function"
    },
    {
      "inputs": [],
      "name": "maxDurability",
      "outputs": [
        {
          "internalType": "uint256",
          "name": "",
          "type": "uint256"
        }
      ],
      "stateMutability": "view",
      "type": "function"
    },
    {
      "inputs": [],
      "name": "name",
      "outputs": [
        {
          "internalType": "string",
          "name": "",
          "type": "string"
        }
      ],
      "stateMutability": "view",
      "type": "function"
    },
    {
      "inputs": [],
      "name": "oneFrac",
      "outputs": [
        {
          "internalType": "int128",
          "name": "",
          "type": "int128"
        }
      ],
      "stateMutability": "view",
      "type": "function"
    },
    {
      "inputs": [
        {
          "internalType": "uint256",
          "name": "tokenId",
          "type": "uint256"
        }
      ],
      "name": "ownerOf",
      "outputs": [
        {
          "internalType": "address",
          "name": "",
          "type": "address"
        }
      ],
      "stateMutability": "view",
      "type": "function"
    },
    {
      "inputs": [],
      "name": "powerMultPerPointBasic",
      "outputs": [
        {
          "internalType": "int128",
          "name": "",
          "type": "int128"
        }
      ],
      "stateMutability": "view",
      "type": "function"
    },
    {
      "inputs": [],
      "name": "powerMultPerPointMatching",
      "outputs": [
        {
          "internalType": "int128",
          "name": "",
          "type": "int128"
        }
      ],
      "stateMutability": "view",
      "type": "function"
    },
    {
      "inputs": [],
      "name": "powerMultPerPointPWR",
      "outputs": [
        {
          "internalType": "int128",
          "name": "",
          "type": "int128"
        }
      ],
      "stateMutability": "view",
      "type": "function"
    },
    {
      "inputs": [],
      "name": "promos",
      "outputs": [
        {
          "internalType": "contract Promos",
          "name": "",
          "type": "address"
        }
      ],
      "stateMutability": "view",
      "type": "function"
    },
    {
      "inputs": [
        {
          "internalType": "bytes32",
          "name": "role",
          "type": "bytes32"
        },
        {
          "internalType": "address",
          "name": "account",
          "type": "address"
        }
      ],
      "name": "renounceRole",
      "outputs": [],
      "stateMutability": "nonpayable",
      "type": "function"
    },
    {
      "inputs": [
        {
          "internalType": "bytes32",
          "name": "role",
          "type": "bytes32"
        },
        {
          "internalType": "address",
          "name": "account",
          "type": "address"
        }
      ],
      "name": "revokeRole",
      "outputs": [],
      "stateMutability": "nonpayable",
      "type": "function"
    },
    {
      "inputs": [
        {
          "internalType": "address",
          "name": "from",
          "type": "address"
        },
        {
          "internalType": "address",
          "name": "to",
          "type": "address"
        },
        {
          "internalType": "uint256",
          "name": "tokenId",
          "type": "uint256"
        }
      ],
      "name": "safeTransferFrom",
      "outputs": [],
      "stateMutability": "nonpayable",
      "type": "function"
    },
    {
      "inputs": [
        {
          "internalType": "address",
          "name": "from",
          "type": "address"
        },
        {
          "internalType": "address",
          "name": "to",
          "type": "address"
        },
        {
          "internalType": "uint256",
          "name": "tokenId",
          "type": "uint256"
        },
        {
          "internalType": "bytes",
          "name": "_data",
          "type": "bytes"
        }
      ],
      "name": "safeTransferFrom",
      "outputs": [],
      "stateMutability": "nonpayable",
      "type": "function"
    },
    {
      "inputs": [],
      "name": "secondsPerDurability",
      "outputs": [
        {
          "internalType": "uint256",
          "name": "",
          "type": "uint256"
        }
      ],
      "stateMutability": "view",
      "type": "function"
    },
    {
      "inputs": [
        {
          "internalType": "address",
          "name": "operator",
          "type": "address"
        },
        {
          "internalType": "bool",
          "name": "approved",
          "type": "bool"
        }
      ],
      "name": "setApprovalForAll",
      "outputs": [],
      "stateMutability": "nonpayable",
      "type": "function"
    },
    {
      "inputs": [
        {
          "internalType": "bytes4",
          "name": "interfaceId",
          "type": "bytes4"
        }
      ],
      "name": "supportsInterface",
      "outputs": [
        {
          "internalType": "bool",
          "name": "",
          "type": "bool"
        }
      ],
      "stateMutability": "view",
      "type": "function"
    },
    {
      "inputs": [],
      "name": "symbol",
      "outputs": [
        {
          "internalType": "string",
          "name": "",
          "type": "string"
        }
      ],
      "stateMutability": "view",
      "type": "function"
    },
    {
      "inputs": [
        {
          "internalType": "uint256",
          "name": "index",
          "type": "uint256"
        }
      ],
      "name": "tokenByIndex",
      "outputs": [
        {
          "internalType": "uint256",
          "name": "",
          "type": "uint256"
        }
      ],
      "stateMutability": "view",
      "type": "function"
    },
    {
      "inputs": [
        {
          "internalType": "address",
          "name": "owner",
          "type": "address"
        },
        {
          "internalType": "uint256",
          "name": "index",
          "type": "uint256"
        }
      ],
      "name": "tokenOfOwnerByIndex",
      "outputs": [
        {
          "internalType": "uint256",
          "name": "",
          "type": "uint256"
        }
      ],
      "stateMutability": "view",
      "type": "function"
    },
    {
      "inputs": [
        {
          "internalType": "uint256",
          "name": "tokenId",
          "type": "uint256"
        }
      ],
      "name": "tokenURI",
      "outputs": [
        {
          "internalType": "string",
          "name": "",
          "type": "string"
        }
      ],
      "stateMutability": "view",
      "type": "function"
    },
    {
      "inputs": [],
      "name": "totalSupply",
      "outputs": [
        {
          "internalType": "uint256",
          "name": "",
          "type": "uint256"
        }
      ],
      "stateMutability": "view",
      "type": "function"
    },
    {
      "inputs": [
        {
          "internalType": "address",
          "name": "from",
          "type": "address"
        },
        {
          "internalType": "address",
          "name": "to",
          "type": "address"
        },
        {
          "internalType": "uint256",
          "name": "tokenId",
          "type": "uint256"
        }
      ],
      "name": "transferFrom",
      "outputs": [],
      "stateMutability": "nonpayable",
      "type": "function"
    },
    {
      "inputs": [],
      "name": "initialize",
      "outputs": [],
      "stateMutability": "nonpayable",
      "type": "function"
    },
    {
      "inputs": [],
      "name": "migrateTo_e55d8c5",
      "outputs": [],
      "stateMutability": "nonpayable",
      "type": "function"
    },
    {
      "inputs": [],
      "name": "migrateTo_aa9da90",
      "outputs": [],
      "stateMutability": "nonpayable",
      "type": "function"
    },
    {
      "inputs": [],
      "name": "migrateTo_951a020",
      "outputs": [],
      "stateMutability": "nonpayable",
      "type": "function"
    },
    {
      "inputs": [
        {
          "internalType": "contract Promos",
          "name": "_promos",
          "type": "address"
        }
      ],
      "name": "migrateTo_surprise",
      "outputs": [],
      "stateMutability": "nonpayable",
      "type": "function"
    },
    {
      "inputs": [
        {
          "internalType": "uint256",
          "name": "id",
          "type": "uint256"
        }
      ],
      "name": "get",
      "outputs": [
        {
          "internalType": "uint16",
          "name": "_properties",
          "type": "uint16"
        },
        {
          "internalType": "uint16",
          "name": "_stat1",
          "type": "uint16"
        },
        {
          "internalType": "uint16",
          "name": "_stat2",
          "type": "uint16"
        },
        {
          "internalType": "uint16",
          "name": "_stat3",
          "type": "uint16"
        },
        {
          "internalType": "uint8",
          "name": "_level",
          "type": "uint8"
        },
        {
          "internalType": "uint8",
          "name": "_blade",
          "type": "uint8"
        },
        {
          "internalType": "uint8",
          "name": "_crossguard",
          "type": "uint8"
        },
        {
          "internalType": "uint8",
          "name": "_grip",
          "type": "uint8"
        },
        {
          "internalType": "uint8",
          "name": "_pommel",
          "type": "uint8"
        },
        {
          "internalType": "uint24",
          "name": "_burnPoints",
          "type": "uint24"
        },
        {
          "internalType": "uint24",
          "name": "_bonusPower",
          "type": "uint24"
        }
      ],
      "stateMutability": "view",
      "type": "function"
    },
    {
      "inputs": [
        {
          "internalType": "address",
          "name": "minter",
          "type": "address"
        },
        {
          "internalType": "uint256",
          "name": "seed",
          "type": "uint256"
        }
      ],
      "name": "mint",
      "outputs": [
        {
          "internalType": "uint256",
          "name": "",
          "type": "uint256"
        }
      ],
      "stateMutability": "nonpayable",
      "type": "function"
    },
    {
      "inputs": [
        {
          "internalType": "address",
          "name": "minter",
          "type": "address"
        },
        {
          "internalType": "uint256",
          "name": "stars",
          "type": "uint256"
        },
        {
          "internalType": "uint256",
          "name": "seed",
          "type": "uint256"
        }
      ],
      "name": "mintWeaponWithStars",
      "outputs": [
        {
          "internalType": "uint256",
          "name": "",
          "type": "uint256"
        }
      ],
      "stateMutability": "nonpayable",
      "type": "function"
    },
    {
      "inputs": [
        {
          "internalType": "address",
          "name": "minter",
          "type": "address"
        },
        {
          "internalType": "uint16",
          "name": "properties",
          "type": "uint16"
        },
        {
          "internalType": "uint16",
          "name": "stat1",
          "type": "uint16"
        },
        {
          "internalType": "uint16",
          "name": "stat2",
          "type": "uint16"
        },
        {
          "internalType": "uint16",
          "name": "stat3",
          "type": "uint16"
        },
        {
          "internalType": "uint256",
          "name": "cosmeticSeed",
          "type": "uint256"
        }
      ],
      "name": "performMintWeapon",
      "outputs": [
        {
          "internalType": "uint256",
          "name": "",
          "type": "uint256"
        }
      ],
      "stateMutability": "nonpayable",
      "type": "function"
    },
    {
      "inputs": [
        {
          "internalType": "uint256",
          "name": "stars",
          "type": "uint256"
        },
        {
          "internalType": "uint256",
          "name": "seed",
          "type": "uint256"
        }
      ],
      "name": "getRandomProperties",
      "outputs": [
        {
          "internalType": "uint16",
          "name": "",
          "type": "uint16"
        }
      ],
      "stateMutability": "pure",
      "type": "function"
    },
    {
      "inputs": [
        {
          "internalType": "uint16",
          "name": "minRoll",
          "type": "uint16"
        },
        {
          "internalType": "uint16",
          "name": "maxRoll",
          "type": "uint16"
        },
        {
          "internalType": "uint256",
          "name": "seed",
          "type": "uint256"
        },
        {
          "internalType": "uint256",
          "name": "seed2",
          "type": "uint256"
        }
      ],
      "name": "getRandomStat",
      "outputs": [
        {
          "internalType": "uint16",
          "name": "",
          "type": "uint16"
        }
      ],
      "stateMutability": "pure",
      "type": "function"
    },
    {
      "inputs": [
        {
          "internalType": "uint256",
          "name": "seed",
          "type": "uint256"
        },
        {
          "internalType": "uint256",
          "name": "seed2",
          "type": "uint256"
        },
        {
          "internalType": "uint8",
          "name": "limit",
          "type": "uint8"
        }
      ],
      "name": "getRandomCosmetic",
      "outputs": [
        {
          "internalType": "uint8",
          "name": "",
          "type": "uint8"
        }
      ],
      "stateMutability": "pure",
      "type": "function"
    },
    {
      "inputs": [
        {
          "internalType": "uint256",
          "name": "stars",
          "type": "uint256"
        }
      ],
      "name": "getStatMinRoll",
      "outputs": [
        {
          "internalType": "uint16",
          "name": "",
          "type": "uint16"
        }
      ],
      "stateMutability": "pure",
      "type": "function"
    },
    {
      "inputs": [
        {
          "internalType": "uint256",
          "name": "stars",
          "type": "uint256"
        }
      ],
      "name": "getStatMaxRoll",
      "outputs": [
        {
          "internalType": "uint16",
          "name": "",
          "type": "uint16"
        }
      ],
      "stateMutability": "pure",
      "type": "function"
    },
    {
      "inputs": [
        {
          "internalType": "uint256",
          "name": "stars",
          "type": "uint256"
        }
      ],
      "name": "getStatCount",
      "outputs": [
        {
          "internalType": "uint8",
          "name": "",
          "type": "uint8"
        }
      ],
      "stateMutability": "pure",
      "type": "function"
    },
    {
      "inputs": [
        {
          "internalType": "uint256",
          "name": "id",
          "type": "uint256"
        }
      ],
      "name": "getProperties",
      "outputs": [
        {
          "internalType": "uint16",
          "name": "",
          "type": "uint16"
        }
      ],
      "stateMutability": "view",
      "type": "function"
    },
    {
      "inputs": [
        {
          "internalType": "uint256",
          "name": "id",
          "type": "uint256"
        }
      ],
      "name": "getStars",
      "outputs": [
        {
          "internalType": "uint8",
          "name": "",
          "type": "uint8"
        }
      ],
      "stateMutability": "view",
      "type": "function"
    },
    {
      "inputs": [
        {
          "internalType": "uint16",
          "name": "properties",
          "type": "uint16"
        }
      ],
      "name": "getStarsFromProperties",
      "outputs": [
        {
          "internalType": "uint8",
          "name": "",
          "type": "uint8"
        }
      ],
      "stateMutability": "pure",
      "type": "function"
    },
    {
      "inputs": [
        {
          "internalType": "uint256",
          "name": "id",
          "type": "uint256"
        }
      ],
      "name": "getTrait",
      "outputs": [
        {
          "internalType": "uint8",
          "name": "",
          "type": "uint8"
        }
      ],
      "stateMutability": "view",
      "type": "function"
    },
    {
      "inputs": [
        {
          "internalType": "uint16",
          "name": "properties",
          "type": "uint16"
        }
      ],
      "name": "getTraitFromProperties",
      "outputs": [
        {
          "internalType": "uint8",
          "name": "",
          "type": "uint8"
        }
      ],
      "stateMutability": "pure",
      "type": "function"
    },
    {
      "inputs": [
        {
          "internalType": "uint256",
          "name": "id",
          "type": "uint256"
        }
      ],
      "name": "getStatPattern",
      "outputs": [
        {
          "internalType": "uint8",
          "name": "",
          "type": "uint8"
        }
      ],
      "stateMutability": "view",
      "type": "function"
    },
    {
      "inputs": [
        {
          "internalType": "uint16",
          "name": "properties",
          "type": "uint16"
        }
      ],
      "name": "getStatPatternFromProperties",
      "outputs": [
        {
          "internalType": "uint8",
          "name": "",
          "type": "uint8"
        }
      ],
      "stateMutability": "pure",
      "type": "function"
    },
    {
      "inputs": [
        {
          "internalType": "uint8",
          "name": "statPattern",
          "type": "uint8"
        }
      ],
      "name": "getStat1Trait",
      "outputs": [
        {
          "internalType": "uint8",
          "name": "",
          "type": "uint8"
        }
      ],
      "stateMutability": "pure",
      "type": "function"
    },
    {
      "inputs": [
        {
          "internalType": "uint8",
          "name": "statPattern",
          "type": "uint8"
        }
      ],
      "name": "getStat2Trait",
      "outputs": [
        {
          "internalType": "uint8",
          "name": "",
          "type": "uint8"
        }
      ],
      "stateMutability": "pure",
      "type": "function"
    },
    {
      "inputs": [
        {
          "internalType": "uint8",
          "name": "statPattern",
          "type": "uint8"
        }
      ],
      "name": "getStat3Trait",
      "outputs": [
        {
          "internalType": "uint8",
          "name": "",
          "type": "uint8"
        }
      ],
      "stateMutability": "pure",
      "type": "function"
    },
    {
      "inputs": [
        {
          "internalType": "uint256",
          "name": "id",
          "type": "uint256"
        }
      ],
      "name": "getLevel",
      "outputs": [
        {
          "internalType": "uint8",
          "name": "",
          "type": "uint8"
        }
      ],
      "stateMutability": "view",
      "type": "function"
    },
    {
      "inputs": [
        {
          "internalType": "uint256",
          "name": "id",
          "type": "uint256"
        }
      ],
      "name": "getStat1",
      "outputs": [
        {
          "internalType": "uint16",
          "name": "",
          "type": "uint16"
        }
      ],
      "stateMutability": "view",
      "type": "function"
    },
    {
      "inputs": [
        {
          "internalType": "uint256",
          "name": "id",
          "type": "uint256"
        }
      ],
      "name": "getStat2",
      "outputs": [
        {
          "internalType": "uint16",
          "name": "",
          "type": "uint16"
        }
      ],
      "stateMutability": "view",
      "type": "function"
    },
    {
      "inputs": [
        {
          "internalType": "uint256",
          "name": "id",
          "type": "uint256"
        }
      ],
      "name": "getStat3",
      "outputs": [
        {
          "internalType": "uint16",
          "name": "",
          "type": "uint16"
        }
      ],
      "stateMutability": "view",
      "type": "function"
    },
    {
      "inputs": [
        {
          "internalType": "uint256",
          "name": "id",
          "type": "uint256"
        }
      ],
      "name": "getPowerMultiplier",
      "outputs": [
        {
          "internalType": "int128",
          "name": "",
          "type": "int128"
        }
      ],
      "stateMutability": "view",
      "type": "function"
    },
    {
      "inputs": [
        {
          "internalType": "uint16",
          "name": "properties",
          "type": "uint16"
        },
        {
          "internalType": "uint16",
          "name": "stat1",
          "type": "uint16"
        },
        {
          "internalType": "uint16",
          "name": "stat2",
          "type": "uint16"
        },
        {
          "internalType": "uint16",
          "name": "stat3",
          "type": "uint16"
        },
        {
          "internalType": "uint8",
          "name": "trait",
          "type": "uint8"
        }
      ],
      "name": "getPowerMultiplierForTrait",
      "outputs": [
        {
          "internalType": "int128",
          "name": "",
          "type": "int128"
        }
      ],
      "stateMutability": "view",
      "type": "function"
    },
    {
      "inputs": [
        {
          "internalType": "address",
          "name": "playerAddress",
          "type": "address"
        }
      ],
      "name": "getDustSupplies",
      "outputs": [
        {
          "internalType": "uint32[]",
          "name": "",
          "type": "uint32[]"
        }
      ],
      "stateMutability": "view",
      "type": "function"
    },
    {
      "inputs": [
        {
          "internalType": "uint256",
          "name": "burnID",
          "type": "uint256"
        }
      ],
      "name": "_calculateBurnValues",
      "outputs": [
        {
          "internalType": "uint8[]",
          "name": "",
          "type": "uint8[]"
        }
      ],
      "stateMutability": "view",
      "type": "function"
    },
    {
      "inputs": [
        {
          "internalType": "uint256",
          "name": "burnID",
          "type": "uint256"
        }
      ],
      "name": "burn",
      "outputs": [],
      "stateMutability": "nonpayable",
      "type": "function"
    },
    {
      "inputs": [
        {
          "internalType": "uint256",
          "name": "reforgeID",
          "type": "uint256"
        },
        {
          "internalType": "uint256",
          "name": "burnID",
          "type": "uint256"
        }
      ],
      "name": "reforge",
      "outputs": [],
      "stateMutability": "nonpayable",
      "type": "function"
    },
    {
      "inputs": [
        {
          "internalType": "uint256",
          "name": "reforgeID",
          "type": "uint256"
        },
        {
          "internalType": "uint8",
          "name": "amountLB",
          "type": "uint8"
        },
        {
          "internalType": "uint8",
          "name": "amount4B",
          "type": "uint8"
        },
        {
          "internalType": "uint8",
          "name": "amount5B",
          "type": "uint8"
        }
      ],
      "name": "reforgeWithDust",
      "outputs": [],
      "stateMutability": "nonpayable",
      "type": "function"
    },
    {
      "inputs": [
        {
          "internalType": "uint256",
          "name": "id",
          "type": "uint256"
        }
      ],
      "name": "getBonusPower",
      "outputs": [
        {
          "internalType": "uint24",
          "name": "",
          "type": "uint24"
        }
      ],
      "stateMutability": "view",
      "type": "function"
    },
    {
      "inputs": [
        {
          "internalType": "uint256",
          "name": "id",
          "type": "uint256"
        },
        {
          "internalType": "uint8",
          "name": "level",
          "type": "uint8"
        }
      ],
      "name": "getBonusPowerForFight",
      "outputs": [
        {
          "internalType": "uint24",
          "name": "",
          "type": "uint24"
        }
      ],
      "stateMutability": "view",
      "type": "function"
    },
    {
      "inputs": [
        {
          "internalType": "uint256",
          "name": "id",
          "type": "uint256"
        },
        {
          "internalType": "uint8",
          "name": "charTrait",
          "type": "uint8"
        }
      ],
      "name": "getFightData",
      "outputs": [
        {
          "internalType": "int128",
          "name": "",
          "type": "int128"
        },
        {
          "internalType": "int128",
          "name": "",
          "type": "int128"
        },
        {
          "internalType": "uint24",
          "name": "",
          "type": "uint24"
        },
        {
          "internalType": "uint8",
          "name": "",
          "type": "uint8"
        }
      ],
      "stateMutability": "view",
      "type": "function"
    },
    {
      "inputs": [
        {
          "internalType": "uint256",
          "name": "id",
          "type": "uint256"
        },
        {
          "internalType": "uint8",
          "name": "charTrait",
          "type": "uint8"
        },
        {
          "internalType": "uint8",
          "name": "drainAmount",
          "type": "uint8"
        }
      ],
      "name": "getFightDataAndDrainDurability",
      "outputs": [
        {
          "internalType": "int128",
          "name": "",
          "type": "int128"
        },
        {
          "internalType": "int128",
          "name": "",
          "type": "int128"
        },
        {
          "internalType": "uint24",
          "name": "",
          "type": "uint24"
        },
        {
          "internalType": "uint8",
          "name": "",
          "type": "uint8"
        }
      ],
      "stateMutability": "nonpayable",
      "type": "function"
    },
    {
      "inputs": [
        {
          "internalType": "uint256",
          "name": "id",
          "type": "uint256"
        },
        {
          "internalType": "uint8",
          "name": "amount",
          "type": "uint8"
        }
      ],
      "name": "drainDurability",
      "outputs": [],
      "stateMutability": "nonpayable",
      "type": "function"
    },
    {
      "inputs": [
        {
          "internalType": "uint256",
          "name": "multiplier",
          "type": "uint256"
        }
      ],
      "name": "setBurnPointMultiplier",
      "outputs": [],
      "stateMutability": "nonpayable",
      "type": "function"
    },
    {
      "inputs": [
        {
          "internalType": "uint256",
          "name": "powerPerBurnPoint",
          "type": "uint256"
        }
      ],
      "name": "setLowStarBurnPowerPerPoint",
      "outputs": [],
      "stateMutability": "nonpayable",
      "type": "function"
    },
    {
      "inputs": [
        {
          "internalType": "uint256",
          "name": "powerPerBurnPoint",
          "type": "uint256"
        }
      ],
      "name": "setFourStarBurnPowerPerPoint",
      "outputs": [],
      "stateMutability": "nonpayable",
      "type": "function"
    },
    {
      "inputs": [
        {
          "internalType": "uint256",
          "name": "powerPerBurnPoint",
          "type": "uint256"
        }
      ],
      "name": "setFiveStarBurnPowerPerPoint",
      "outputs": [],
      "stateMutability": "nonpayable",
      "type": "function"
    },
    {
      "inputs": [
        {
          "internalType": "uint256",
          "name": "id",
          "type": "uint256"
        }
      ],
      "name": "getDurabilityTimestamp",
      "outputs": [
        {
          "internalType": "uint64",
          "name": "",
          "type": "uint64"
        }
      ],
      "stateMutability": "view",
      "type": "function"
    },
    {
      "inputs": [
        {
          "internalType": "uint256",
          "name": "id",
          "type": "uint256"
        },
        {
          "internalType": "uint64",
          "name": "timestamp",
          "type": "uint64"
        }
      ],
      "name": "setDurabilityTimestamp",
      "outputs": [],
      "stateMutability": "nonpayable",
      "type": "function"
    },
    {
      "inputs": [
        {
          "internalType": "uint256",
          "name": "id",
          "type": "uint256"
        }
      ],
      "name": "getDurabilityPoints",
      "outputs": [
        {
          "internalType": "uint8",
          "name": "",
          "type": "uint8"
        }
      ],
      "stateMutability": "view",
      "type": "function"
    },
    {
      "inputs": [
        {
          "internalType": "uint64",
          "name": "timestamp",
          "type": "uint64"
        }
      ],
      "name": "getDurabilityPointsFromTimestamp",
      "outputs": [
        {
          "internalType": "uint8",
          "name": "",
          "type": "uint8"
        }
      ],
      "stateMutability": "view",
      "type": "function"
    },
    {
      "inputs": [
        {
          "internalType": "uint256",
          "name": "id",
          "type": "uint256"
        }
      ],
      "name": "isDurabilityFull",
      "outputs": [
        {
          "internalType": "bool",
          "name": "",
          "type": "bool"
        }
      ],
      "stateMutability": "view",
      "type": "function"
    },
    {
      "inputs": [],
      "name": "getDurabilityMaxWait",
      "outputs": [
        {
          "internalType": "uint64",
          "name": "",
          "type": "uint64"
        }
      ],
      "stateMutability": "pure",
      "type": "function"
    }
  ],
  "bytecode": "0x608060405234801561001057600080fd5b50615c4f80620000216000396000f3fe608060405234801561001057600080fd5b50600436106104ee5760003560e01c8063752fde9e1161028e578063ae5d498e11610167578063d58227c8116100d9578063e8d5fe4411610092578063e8d5fe4414611127578063e985e9c514611177578063ecd4738b146111a5578063f8e678a7146111d1578063fa9b6e87146111d9578063fa9e8398146111f6576104ee565b8063d58227c81461105a578063d7af7ad214611080578063d9514cb3146110a6578063dfd37129146110c3578063e06efad8146110e4578063e076088614611101576104ee565b8063c6a510881161012b578063c6a5108814610f69578063c87b56dd14610f89578063ca15c87314610fa6578063cd69289614610fc3578063ce20b64214610fe9578063d547741f1461102e576104ee565b8063ae5d498e14610e0c578063b88d4fde14610e41578063c366620b14610f05578063c394f9db14610f29578063c47efcf614610f61576104ee565b806395d06a0f11610200578063a217fddf116101c4578063a217fddf14610d6e578063a22cb46514610d76578063a3b5ccb114610da4578063aa66377714610dca578063acb586df14610dd2578063adf04f2014610def576104ee565b806395d06a0f14610cfd57806395d89b4114610d1e5780639abcafef14610d265780639d7c828b14610d49578063a1570c8e14610d66576104ee565b80638c7f7242116102525780638c7f724214610bcb5780638d1d1de414610bd35780639010d07c14610bf057806390e4e06c14610c1357806391d1485414610c455780639507d39a14610c71576104ee565b8063752fde9e14610b0e5780637d1a789414610b1657806380aa68cd14610b835780638129fc1c14610ba657806386481d4014610bae576104ee565b8063316a7ba5116103cb5780634c0647f61161033d578063586064f3116102f6578063586064f314610aab5780636352211e14610ab35780636a4d521d14610ad05780636c0360eb14610ad857806370a0823114610ae05780637294510014610b06576104ee565b80634c0647f614610a395780634f6ccce714610a415780634fbff6a214610a5e57806351e717ac14610a7e57806352bc59ea14610a865780635504d3d214610aa3576104ee565b80633f5e61801161038f5780633f5e61801461093057806340c10f191461093857806342842e0e1461096457806342966c681461099a57806344d59e0a146109b75780634b14027714610a1c576104ee565b8063316a7ba5146108a057806333ee5a53146108bd578063350b7995146108c557806336568abe146108cd5780633e68b604146108f9576104ee565b806323b872dd116104645780632a9f22f2116104285780632a9f22f2146107c55780632c3048a2146107e25780632c3fc619146107ff5780632f2ff15d1461082b5780632f745c5914610857578063308bdc6f14610883576104ee565b806323b872dd1461071b578063248a9ca31461075157806324f7bb1b1461076e57806327cd91de1461078b5780632a716b3c146107a8576104ee565b8063095ea7b3116104b6578063095ea7b3146106245780630a583a93146106505780630a724cff1461068757806316f1daf6146106a757806318160ddd146106cd5780631b8ca217146106e7576104ee565b806301ffc9a7146104f3578063064187781461052e57806306fdde0314610538578063081812fc146105b5578063083659eb146105ee575b600080fd5b61051a6004803603602081101561050957600080fd5b50356001600160e01b031916611213565b604080519115158252519081900360200190f35b610536611236565b005b61054061136e565b6040805160208082528351818301528351919283929083019185019080838360005b8381101561057a578181015183820152602001610562565b50505050905090810190601f1680156105a75780820380516001836020036101000a031916815260200191505b509250505060405180910390f35b6105d2600480360360208110156105cb57600080fd5b5035611405565b604080516001600160a01b039092168252519081900360200190f35b61060b6004803603602081101561060457600080fd5b5035611467565b60408051600f92830b90920b8252519081900360200190f35b6105366004803603604081101561063a57600080fd5b506001600160a01b038135169060200135611582565b6106716004803603602081101561066657600080fd5b503561ffff1661165d565b6040805160ff9092168252519081900360200190f35b6106716004803603602081101561069d57600080fd5b503560ff16611663565b610671600480360360208110156106bd57600080fd5b50356001600160401b0316611683565b6106d56116c1565b60408051918252519081900360200190f35b610704600480360360208110156106fd57600080fd5b50356116d2565b6040805161ffff9092168252519081900360200190f35b6105366004803603606081101561073157600080fd5b506001600160a01b03813581169160208101359091169060400135611702565b6106d56004803603602081101561076757600080fd5b5035611759565b6106716004803603602081101561078457600080fd5b503561176e565b610704600480360360208110156107a157600080fd5b5035611792565b610536600480360360208110156107be57600080fd5b50356117c9565b610671600480360360208110156107db57600080fd5b50356117d6565b610704600480360360208110156107f857600080fd5b50356117f1565b6105366004803603604081101561081557600080fd5b50803590602001356001600160401b0316611827565b6105366004803603604081101561084157600080fd5b50803590602001356001600160a01b031661185e565b6106d56004803603604081101561086d57600080fd5b506001600160a01b0381351690602001356118ca565b6105366004803603602081101561089957600080fd5b50356118f2565b610704600480360360208110156108b657600080fd5b50356118ff565b61060b61194b565b6106d561195b565b610536600480360360408110156108e357600080fd5b50803590602001356001600160a01b0316611961565b6107046004803603608081101561090f57600080fd5b5061ffff8135811691602081013590911690604081013590606001356119c2565b6105366119eb565b6106d56004803603604081101561094e57600080fd5b506001600160a01b038135169060200135611a49565b6105366004803603606081101561097a57600080fd5b506001600160a01b03813581169160208101359091169060400135611aba565b610536600480360360208110156109b057600080fd5b5035611ad5565b6109e5600480360360608110156109cd57600080fd5b5080359060ff60208201358116916040013516611c63565b60408051600f95860b860b815293850b90940b602084015262ffffff9091168284015260ff16606082015290519081900360800190f35b61053660048036036020811015610a3257600080fd5b5035611ef3565b6106d5611f00565b6106d560048036036020811015610a5757600080fd5b5035611f06565b61067160048036036020811015610a7457600080fd5b503560ff16611f22565b6105d2611f34565b61067160048036036020811015610a9c57600080fd5b5035611f43565b6106d5611f64565b61060b611f86565b6105d260048036036020811015610ac957600080fd5b5035611f8f565b6106d5611fbd565b610540611fd8565b6106d560048036036020811015610af657600080fd5b50356001600160a01b0316612039565b6106d56120a1565b6105366120a7565b610b3360048036036020811015610b2c57600080fd5b5035612101565b60408051602080825283518183015283519192839290830191858101910280838360005b83811015610b6f578181015183820152602001610b57565b505050509050019250505060405180910390f35b61070460048036036040811015610b9957600080fd5b5080359060200135612288565b6105366122ca565b61067160048036036020811015610bc457600080fd5b50356123cf565b6106d5612405565b61053660048036036020811015610be957600080fd5b503561240b565b6105d260048036036040811015610c0657600080fd5b5080359060200135612418565b6106d560048036036060811015610c2957600080fd5b506001600160a01b038135169060208101359060400135612436565b61051a60048036036040811015610c5b57600080fd5b50803590602001356001600160a01b03166124c0565b610c8e60048036036020811015610c8757600080fd5b50356124de565b6040805161ffff9c8d1681529a8c1660208c0152988b168a8a015296909916606089015260ff948516608089015292841660a088015290831660c0870152821660e08601521661010084015262ffffff9384166101208401529092166101408201529051908190036101600190f35b61067160048036036020811015610d1357600080fd5b503561ffff16612528565b610540612531565b61053660048036036040811015610d3c57600080fd5b5080359060200135612592565b6106d560048036036020811015610d5f57600080fd5b5035612710565b6106d5612722565b6106d5612728565b61053660048036036040811015610d8c57600080fd5b506001600160a01b038135169060200135151561272d565b610b3360048036036020811015610dba57600080fd5b50356001600160a01b0316612832565b61060b6128f6565b61067160048036036020811015610de857600080fd5b50356128ff565b61067160048036036020811015610e0557600080fd5b503561291c565b610e2960048036036020811015610e2257600080fd5b5035612939565b6040805162ffffff9092168252519081900360200190f35b61053660048036036080811015610e5757600080fd5b6001600160a01b03823581169260208101359091169160408201359190810190608081016060820135600160201b811115610e9157600080fd5b820183602082011115610ea357600080fd5b803590602001918460018302840111600160201b83111715610ec457600080fd5b91908080601f01602080910402602001604051908101604052809392919081815260200183838082843760009201919091525092955061297b945050505050565b610f0d6129d9565b604080516001600160401b039092168252519081900360200190f35b61053660048036036080811015610f3f57600080fd5b5080359060ff60208201358116916040810135821691606090910135166129df565b61060b612b5c565b61067160048036036020811015610f7f57600080fd5b503560ff16612b6c565b61054060048036036020811015610f9f57600080fd5b5035612b79565b6106d560048036036020811015610fbc57600080fd5b5035612dfc565b610e2960048036036040811015610fd957600080fd5b508035906020013560ff16612e13565b61060b600480360360a0811015610fff57600080fd5b50803561ffff90811691602081013582169160408201358116916060810135909116906080013560ff16612e9e565b6105366004803603604081101561104457600080fd5b50803590602001356001600160a01b031661307a565b6109e56004803603604081101561107057600080fd5b508035906020013560ff166130d3565b6105366004803603602081101561109657600080fd5b50356001600160a01b031661319e565b610f0d600480360360208110156110bc57600080fd5b5035613208565b610671600480360360208110156110d957600080fd5b503561ffff16613223565b610704600480360360208110156110fa57600080fd5b503561322c565b6105366004803603604081101561111757600080fd5b508035906020013560ff16613263565b6106d5600480360360c081101561113d57600080fd5b506001600160a01b038135169061ffff60208201358116916040810135821691606082013581169160808101359091169060a00135613376565b61051a6004803603604081101561118d57600080fd5b506001600160a01b0381358116916020013516613595565b610671600480360360608110156111bb57600080fd5b508035906020810135906040013560ff166135c3565b6106d56135d8565b61051a600480360360208110156111ef57600080fd5b50356135dd565b6107046004803603602081101561120c57600080fd5b50356135f5565b6001600160e01b0319811660009081526033602052604090205460ff165b919050565b6112416000336124c0565b61127e576040805162461bcd60e51b81526020600482015260096024820152682737ba1030b236b4b760b91b604482015290519081900360640190fd5b6112886001613620565b60d08054600f9290920b6001600160801b03166001600160801b03199092169190911790556112ba600161019061363e565b60d060106101000a8154816001600160801b030219169083600f0b6001600160801b0316021790555061130f6112f26067606461363e565b60d054600160801b9004600f90810b900b9063ffffffff61367516565b60d18054600f9290920b6001600160801b03166001600160801b03199092169190911790556113436112f2606b606461363e565b60d160106101000a8154816001600160801b030219169083600f0b6001600160801b03160217905550565b606a8054604080516020601f60026000196101006001881615020190951694909404938401819004810282018101909252828152606093909290918301828280156113fa5780601f106113cf576101008083540402835291602001916113fa565b820191906000526020600020905b8154815290600101906020018083116113dd57829003601f168201915b505050505090505b90565b6000611410826136ac565b61144b5760405162461bcd60e51b815260040180806020018281038252602c815260200180615aee602c913960400191505060405180910390fd5b506000908152606860205260409020546001600160a01b031690565b600081611473816136bf565b61147b61578c565b60c9848154811061148857fe5b600091825260208083206040805160a081018252939091015461ffff8082168552620100008204811693850193909352600160201b8104831691840191909152600160301b81049091166060830152600160401b900460ff16608082015291506114f5600161019061363e565b9050600061151d8261150e856020015161ffff16613620565b600f0b9063ffffffff61367516565b905060006115368361150e866040015161ffff16613620565b9050600061154f8461150e876060015161ffff16613620565b90506115768161156784611567876115676001613620565b600f0b9063ffffffff61371816565b98975050505050505050565b600061158d82611f8f565b9050806001600160a01b0316836001600160a01b031614156115e05760405162461bcd60e51b8152600401808060200182810382526021815260200180615b726021913960400191505060405180910390fd5b806001600160a01b03166115f261374b565b6001600160a01b0316148061161357506116138161160e61374b565b613595565b61164e5760405162461bcd60e51b81526004018080602001828103825260388152602001806159f26038913960400191505060405180910390fd5b611658838361374f565b505050565b60071690565b600060056116758360ff1660196137bd565b8161167c57fe5b0692915050565b600042826001600160401b0316111561169e57506000611231565b610bb86001600160401b03831642030460148111156116bb575060145b92915050565b60006116cd6066613824565b905090565b6000816116de816136bf565b60c983815481106116eb57fe5b60009182526020909120015461ffff169392505050565b61171361170d61374b565b8261382f565b61174e5760405162461bcd60e51b8152600401808060200182810382526031815260200180615b936031913960400191505060405180910390fd5b6116588383836138cb565b60009081526097602052604090206002015490565b60008161177a816136bf565b61178b611786846116d2565b613223565b9392505050565b60008161179e816136bf565b60c983815481106117ab57fe5b600091825260209091200154600160301b900461ffff169392505050565b6117d1613a29565b60cc55565b600060038210156117e957506001611231565b506000190190565b6000816117fd816136bf565b60c9838154811061180a57fe5b60009182526020909120015462010000900461ffff169392505050565b61182f613a29565b600091825260d56020526040909120805467ffffffffffffffff19166001600160401b03909216919091179055565b6000828152609760205260409020600201546118819061187c61374b565b6124c0565b6118bc5760405162461bcd60e51b815260040180806020018281038252602f815260200180615911602f913960400191505060405180910390fd5b6118c68282613a94565b5050565b6001600160a01b038216600090815260656020526040812061178b908363ffffffff613b0316565b6118fa613a29565b60ce55565b60008161190e57506004611231565b816001141561191f575060b4611231565b81600214156119315750610118611231565b8160031415611942575060c8611231565b5061010c919050565b60d054600160801b9004600f0b81565b60ce5481565b61196961374b565b6001600160a01b0316816001600160a01b0316146119b85760405162461bcd60e51b815260040180806020018281038252602f815260200180615beb602f913960400191505060405180910390fd5b6118c68282613b0f565b60006119e08561ffff168561ffff166119db8686613b7e565b613baa565b90505b949350505050565b6119f66000336124c0565b611a33576040805162461bcd60e51b81526020600482015260096024820152682737ba1030b236b4b760b91b604482015290519081900360640190fd5b600260cc55600f60cd55601e60ce55603c60cf55565b6000611a53613a29565b6000606483066001811015611a6b5760049150611aa6565b6006811015611a7d5760039150611aa6565b6015811015611a8f5760029150611aa6565b6038811015611aa15760019150611aa6565b600091505b611ab1858386612436565b95945050505050565b6116588383836040518060200160405280600081525061297b565b611add613a29565b6060611ae882612101565b90506000611af583611f8f565b9050611b488183600081518110611b0857fe5b602002602001015160ff1684600181518110611b2057fe5b602002602001015160ff1685600281518110611b3857fe5b602002602001015160ff16613c14565b611b5183613d81565b60d7546040805163434d82a360e01b81526001600160a01b0384811660048381019190915260248301529151919092169163434d82a3916044808301926020929190829003018186803b158015611ba757600080fd5b505afa158015611bbb573d6000803e3d6000fd5b505050506040513d6020811015611bd157600080fd5b5051611c2857611c288183600081518110611be857fe5b602002602001015160ff1684600181518110611c0057fe5b602002602001015160ff1685600281518110611c1857fe5b602002602001015160ff16613e5a565b60405183906001600160a01b038316907f696de425f79f4a40bc6d2122ca50507f0efbeabbff86a84871b7196ab8ea8df790600090a3505050565b600080600080611c71613a29565b86611c7b816136bf565b600088815260d56020526040812054611c9c906001600160401b0316611683565b90508660ff168160ff1610158015611d46575060d7546001600160a01b031663434d82a3611cc98b611f8f565b60046040518363ffffffff1660e01b815260040180836001600160a01b03166001600160a01b031681526020018281526020019250505060206040518083038186803b158015611d1857600080fd5b505afa158015611d2c573d6000803e3d6000fd5b505050506040513d6020811015611d4257600080fd5b5051155b611d90576040805162461bcd60e51b81526020600482015260166024820152754e6f7420656e6f756768206475726162696c6974792160501b604482015290519081900360640190fd5b60ff808816610bb80290601490831610611df057806001600160401b0316611db66129d9565b60008c815260d560205260409020805467ffffffffffffffff19166001600160401b03928316420393909301909116919091179055611e1f565b60008a815260d56020526040902080546001600160401b0380821684011667ffffffffffffffff199091161790555b600060c98b81548110611e2e57fe5b60009182526020909120018054909150611e8a90611e74906112f29062010000810461ffff908116600160201b8304821601600160301b90920481169190910116613620565b60d054600f90810b900b9063ffffffff61371816565b8154611eb89061ffff80821691620100008104821691600160201b8204811691600160301b9004168f612e9e565b8254611ecf908e90600160401b900460ff16612e13565b8354611ede9061ffff16612528565b97509750975097505050505093509350935093565b611efb613a29565b60cd55565b60cf5481565b600080611f1a60668463ffffffff613f4516565b509392505050565b600060056116758360ff1660056137bd565b60d7546001600160a01b031681565b600081815260d560205260408120546116bb906001600160401b0316611683565b604080516923a0a6a2afa0a226a4a760b11b8152905190819003600a01902081565b60d154600f0b81565b60006116bb82604051806060016040528060298152602001615a54602991396066919063ffffffff613f6116565b604051806027615bc482396027019050604051809103902081565b606d8054604080516020601f60026000196101006001881615020190951694909404938401819004810282018101909252828152606093909290918301828280156113fa5780601f106113cf576101008083540402835291602001916113fa565b60006001600160a01b0382166120805760405162461bcd60e51b815260040180806020018281038252602a815260200180615a2a602a913960400191505060405180910390fd5b6001600160a01b03821660009081526065602052604090206116bb90613824565b60cc5481565b6120b26000336124c0565b6120ef576040805162461bcd60e51b81526020600482015260096024820152682737ba1030b236b4b760b91b604482015290519081900360640190fd5b6120ff63398b9a5d60e21b613f6e565b565b6040805160038082526080820190925260609182919060208201838036833701905050600084815260cb6020526040902080549192509060029060ff90811660010116048260008151811061215257fe5b60ff92831660209182029290920101528154600291610100909104811660010116048260018151811061218157fe5b60ff928316602091820292909201015281546002916201000090910481166001011604826002815181106121b157fe5b602002602001019060ff16908160ff1681525050600060c985815481106121d457fe5b6000918252602082200180549092506121f09061ffff1661165d565b905060038160ff161015612230578060010160ff1660cc54028460008151811061221657fe5b6020908102919091010180519190910160ff16905261227e565b8060ff166003141561224c5760cc548460018151811061221657fe5b8060ff166004141561227e5760cc548460028151811061226857fe5b6020908102919091010180519190910160ff1690525b5091949350505050565b6000600561229e6000607c6119db866002613b7e565b607f16901b60036122b7600060036119db876001613b7e565b600316901b846007161717905092915050565b600054610100900460ff16806122e357506122e3613ff2565b806122f1575060005460ff16155b61232c5760405162461bcd60e51b815260040180806020018281038252602e815260200180615a7d602e913960400191505060405180910390fd5b600054610100900460ff16158015612357576000805460ff1961ff0019909116610100171660011790555b6123a76040518060400160405280601381526020017221b93cb83a37a13630b232b9903bb2b0b837b760691b8152506040518060400160405280600381526020016243575760e81b815250614003565b6123af6140c0565b6123ba6000336118bc565b80156123cc576000805461ff00191690555b50565b6000816123db816136bf565b60c983815481106123e857fe5b600091825260209091200154600160401b900460ff169392505050565b610bb881565b612413613a29565b60cf55565b600082815260976020526040812061178b908363ffffffff613b0316565b6000612440613a29565b6008831061247f5760405162461bcd60e51b81526004018080602001828103825260218152602001806158ce6021913960400191505060405180910390fd5b600080600061248e8686614160565b9250925092506124b5876124a28888612288565b8585856124b08b6003613b7e565b613376565b979650505050505050565b600082815260976020526040812061178b908363ffffffff6141e816565b60008060008060008060008060008060008b6124f9816136bf565b6125028d6141fd565b9b509b509b509b509b509b509b509b509b509b509b505091939597999b90929496989a50565b600390811c1690565b606b8054604080516020601f60026000196101006001881615020190951694909404938401819004810282018101909252828152606093909290918301828280156113fa5780601f106113cf576101008083540402835291602001916113fa565b61259a613a29565b60606125a582612101565b60d7549091506001600160a01b031663434d82a36125c285611f8f565b60046040518363ffffffff1660e01b815260040180836001600160a01b03166001600160a01b031681526020018281526020019250505060206040518083038186803b15801561261157600080fd5b505afa158015612625573d6000803e3d6000fd5b505050506040513d602081101561263b57600080fd5b505161268957612689838260008151811061265257fe5b60200260200101518360018151811061266757fe5b60200260200101518460028151811061267c57fe5b60200260200101516142b9565b61269282613d81565b600083815260cb6020526040902082846126ab81611f8f565b83546040805160ff80841682526101008404811660208301526201000090930490921682820152516001600160a01b0392909216917fd1b1d9a936fc3409b20503a5fd66b94b1c2a8b4986d01def5b9ef60272896e3c9181900360600190a450505050565b60d26020526000908152604090205481565b60cd5481565b600081565b61273561374b565b6001600160a01b0316826001600160a01b0316141561279b576040805162461bcd60e51b815260206004820152601960248201527f4552433732313a20617070726f766520746f2063616c6c657200000000000000604482015290519081900360640190fd5b80606960006127a861374b565b6001600160a01b03908116825260208083019390935260409182016000908120918716808252919093529120805460ff1916921515929092179091556127ec61374b565b60408051841515815290516001600160a01b0392909216917f17307eab39ab6107e8899845ad3d59bd9653f200f220920489ca2b5937696c319181900360200190a35050565b6001600160a01b038116600090815260d6602052604090819020548151600380825260808201909352606092839190816020016020820280368337019050509050818160008151811061288157fe5b602002602001019063ffffffff16908163ffffffff1681525050602082901c816001815181106128ad57fe5b602002602001019063ffffffff16908163ffffffff1681525050604082901c816002815181106128d957fe5b63ffffffff90921660209283029190910190910152915050919050565b60d054600f0b81565b60008161290b816136bf565b61178b612917846116d2565b612528565b600081612928816136bf565b61178b612934846116d2565b61165d565b600081612945816136bf565b600060c9848154811061295457fe5b9060005260206000200190506119e3848260000160089054906101000a900460ff16612e13565b61298c61298661374b565b8361382f565b6129c75760405162461bcd60e51b8152600401808060200182810382526031815260200180615b936031913960400191505060405180910390fd5b6129d3848484846144a2565b50505050565b61ea6090565b6129e7613a29565b612a046129f385611f8f565b8460ff168460ff168460ff166144f4565b60d7546001600160a01b031663434d82a3612a1e86611f8f565b60046040518363ffffffff1660e01b815260040180836001600160a01b03166001600160a01b031681526020018281526020019250505060206040518083038186803b158015612a6d57600080fd5b505afa158015612a81573d6000803e3d6000fd5b505050506040513d6020811015612a9757600080fd5b5051612aa957612aa9848484846142b9565b612ac6612ab585611f8f565b8460ff168460ff168460ff16614648565b600084815260cb6020526040902084612ade81611f8f565b82546040805160ff808a16825280891660208301528088168284015280841660608301526101008404811660808301526201000090930490921660a0830152516001600160a01b0392909216917fd07aff3873e60e4df29e5f960d1422759a3ef9f5aa27eec562431cddcd9bba019181900360c00190a35050505050565b60d154600160801b9004600f0b81565b6000600560ff831661167c565b6060612b84826136ac565b612bbf5760405162461bcd60e51b815260040180806020018281038252602f815260200180615b43602f913960400191505060405180910390fd5b6000828152606c602090815260409182902080548351601f6002600019610100600186161502019093169290920491820184900484028101840190945280845260609392830182828015612c545780601f10612c2957610100808354040283529160200191612c54565b820191906000526020600020905b815481529060010190602001808311612c3757829003601f168201915b505050505090506060612c65611fd8565b9050805160001415612c7957509050611231565b815115612d3a5780826040516020018083805190602001908083835b60208310612cb45780518252601f199092019160209182019101612c95565b51815160209384036101000a600019018019909216911617905285519190930192850191508083835b60208310612cfc5780518252601f199092019160209182019101612cdd565b6001836020036101000a0380198251168184511680821785525050505050509050019250505060405160208183030381529060405292505050611231565b80612d44856146f0565b6040516020018083805190602001908083835b60208310612d765780518252601f199092019160209182019101612d57565b51815160209384036101000a600019018019909216911617905285519190930192850191508083835b60208310612dbe5780518252601f199092019160209182019101612d9f565b6001836020036101000a0380198251168184511680821785525050505050509050019250505060405160208183030381529060405292505050919050565b60008181526097602052604081206116bb90613824565b600082612e1f816136bf565b600084815260cb60205260409020611ab1612e44600f60ff871663ffffffff6147ca16565b825460cf54612e9291612e60919062010000900460ff166147ca565b845460ce54612e9291612e7b9190610100900460ff166147ca565b865460cd54612e929160ff1663ffffffff6147ca16565b9063ffffffff61482316565b600080612eaa87613223565b60d054909150600f0b60ff8416612ec083612b6c565b60ff161415612f035760d154612efc90612eeb90600160801b9004600f0b61150e61ffff8b16613620565b600f83900b9063ffffffff61371816565b9050612f57565b612f0c82612b6c565b60ff1660041415612f325760d154612efc90612eeb90600f0b61150e61ffff8b16613620565b60d054612f5490612eeb90600160801b9004600f0b61150e61ffff8b16613620565b90505b8360ff16612f6483611f22565b60ff161415612f965760d154612f8f90612eeb90600160801b9004600f0b61150e61ffff8a16613620565b9050612fea565b612f9f82611f22565b60ff1660041415612fc55760d154612f8f90612eeb90600f0b61150e61ffff8a16613620565b60d054612fe790612eeb90600160801b9004600f0b61150e61ffff8a16613620565b90505b8360ff16612ff783611663565b60ff1614156130295760d15461302290612eeb90600160801b9004600f0b61150e61ffff8916613620565b90506124b5565b61303282611663565b60ff16600414156130585760d15461302290612eeb90600f0b61150e61ffff8916613620565b60d05461157690612eeb90600160801b9004600f0b61150e61ffff8916613620565b6000828152609760205260409020600201546130989061187c61374b565b6119b85760405162461bcd60e51b81526004018080602001828103825260308152602001806159c26030913960400191505060405180910390fd5b600080600080856130e3816136bf565b600060c988815481106130f257fe5b6000918252602090912001805490915061313890611e74906112f29062010000810461ffff908116600160201b8304821601600160301b90920481169190910116613620565b81546131669061ffff80821691620100008104821691600160201b8204811691600160301b9004168c612e9e565b825461317d908b90600160401b900460ff16612e13565b835461318c9061ffff16612528565b929b919a509850909650945050505050565b6131a96000336124c0565b6131e6576040805162461bcd60e51b81526020600482015260096024820152682737ba1030b236b4b760b91b604482015290519081900360640190fd5b60d780546001600160a01b0319166001600160a01b0392909216919091179055565b600090815260d560205260409020546001600160401b031690565b60051c607f1690565b600081613238816136bf565b60c9838154811061324557fe5b600091825260209091200154600160201b900461ffff169392505050565b61326b613a29565b600082815260d5602052604081205461328c906001600160401b0316611683565b90508160ff168160ff1610156132e2576040805162461bcd60e51b81526020600482015260166024820152754e6f7420656e6f756768206475726162696c6974792160501b604482015290519081900360640190fd5b60ff808316610bb8029060149083161061334257806001600160401b03166133086129d9565b600086815260d560205260409020805467ffffffffffffffff19166001600160401b039283164203939093019091169190911790556129d3565b600084815260d56020526040902080546001600160401b0380821684011667ffffffffffffffff1990911617905550505050565b6000613380613a29565b60c95460d35443146133925760d48190555b4360d3556040805160a08101825261ffff898116825288811660208084019182528983168486019081528984166060860190815260006080870181815260c980546001808201835591845298517f66be4f155c5ef2ebd3772b228f2f00681e4ed5826cdb3b1943cc11ad15ad1d289099018054975195519451925161ffff199098169989169990991763ffff0000191662010000958916959095029490941765ffff000000001916600160201b938816939093029290921767ffff0000000000001916600160301b92909616919091029490941768ff00000000000000001916600160401b60ff94851602179094558451808601909552828552840187815260ca8054948501815590925292517f42d72674974f694b5f5159593243114d38a5c39c89d6b62fee061ff523240ee16002909302928301805460ff1916919094161790925590517f42d72674974f694b5f5159593243114d38a5c39c89d6b62fee061ff523240ee290910155613507888261487d565b6135286135126129d9565b42906001600160401b031663ffffffff6149b716565b600082815260d56020526040808220805467ffffffffffffffff19166001600160401b03949094169390931790925590516001600160a01b038a169183917fa90298fff9b7c2ea259d17bcbd0821ef6fe7d48b4f8fd9380d54ae299ee730449190a3979650505050505050565b6001600160a01b03918216600090815260696020908152604080832093909416825291909152205460ff1690565b60006119e360008360ff166119db8787613b7e565b601481565b600060146135ea83611f43565b60ff16101592915050565b600060018211156136095750610190611231565b8115613618575061012c611231565b5060c8919050565b6000677fffffffffffffff82111561363757600080fd5b5060401b90565b60008161364a57600080fd5b60006136568484614a14565b905060016001607f1b036001600160801b038216111561178b57600080fd5b6000600f83810b9083900b0260401d60016001607f1b031981128015906136a3575060016001607f1b038113155b61178b57600080fd5b60006116bb60668363ffffffff614b5d16565b60d4548110806136d057504360d354105b6123cc576040805162461bcd60e51b81526020600482015260146024820152730546f6f20667265736820666f72206c6f6f6b75760641b604482015290519081900360640190fd5b6000600f83810b9083900b0160016001607f1b031981128015906136a3575060016001607f1b0381131561178b57600080fd5b3390565b600081815260686020526040902080546001600160a01b0319166001600160a01b038416908117909155819061378482611f8f565b6001600160a01b03167f8c5be1e5ebec7d5bd14f71427d1e84f3dd0314c0f7b2291e5b200ac8c7c3b92560405160405180910390a45050565b6000808211613813576040805162461bcd60e51b815260206004820152601a60248201527f536166654d6174683a206469766973696f6e206279207a65726f000000000000604482015290519081900360640190fd5b81838161381c57fe5b049392505050565b60006116bb82614b69565b600061383a826136ac565b6138755760405162461bcd60e51b815260040180806020018281038252602c815260200180615996602c913960400191505060405180910390fd5b600061388083611f8f565b9050806001600160a01b0316846001600160a01b031614806138bb5750836001600160a01b03166138b084611405565b6001600160a01b0316145b806119e357506119e38185613595565b826001600160a01b03166138de82611f8f565b6001600160a01b0316146139235760405162461bcd60e51b8152600401808060200182810382526029815260200180615b1a6029913960400191505060405180910390fd5b6001600160a01b0382166139685760405162461bcd60e51b81526004018080602001828103825260248152602001806159726024913960400191505060405180910390fd5b613973838383614b6d565b61397e60008261374f565b6001600160a01b03831660009081526065602052604090206139a6908263ffffffff614c8316565b506001600160a01b03821660009081526065602052604090206139cf908263ffffffff614c8f16565b506139e26066828463ffffffff614c9b16565b5080826001600160a01b0316846001600160a01b03167fddf252ad1be2c89b69c2b068fc378daa952ba7f163c4a11628f55a4df523b3ef60405160405180910390a4505050565b604080516923a0a6a2afa0a226a4a760b11b8152905190819003600a019020613a5290336124c0565b6120ff576040805162461bcd60e51b815260206004820152600e60248201526d2737ba1033b0b6b29030b236b4b760911b604482015290519081900360640190fd5b6000828152609760205260409020613ab2908263ffffffff614cb116565b156118c657613abf61374b565b6001600160a01b0316816001600160a01b0316837f2f8788117e7eff1d82e926ec794901d17c78024a50270940304540a733656f0d60405160405180910390a45050565b600061178b8383614cc6565b6000828152609760205260409020613b2d908263ffffffff614d2a16565b156118c657613b3a61374b565b6001600160a01b0316816001600160a01b0316837ff6391f5c32d9c69d2a47ea670b442974b53935d1edc7fd64eb21e047a839171b60405160405180910390a45050565b604080516020808201949094528082019290925280518083038201815260609092019052805191012090565b600080613bc26001612e92868863ffffffff6149b716565b6040805160208082018790528251808303820181529183019092528051910120909150600090613bf8908363ffffffff614d3f16565b9050613c0a818763ffffffff61482316565b9695505050505050565b6060613c1f85612832565b905063ffffffff8463ffffffff1682600081518110613c3a57fe5b602002602001015163ffffffff16011115613c94576040805162461bcd60e51b8152602060048201526015602482015274111d5cdd081310881cdd5c1c1b1e4818d85c1c1959605a1b604482015290519081900360640190fd5b63ffffffff8363ffffffff1682600181518110613cad57fe5b602002602001015163ffffffff16011115613d07576040805162461bcd60e51b8152602060048201526015602482015274111d5cdd080d10881cdd5c1c1b1e4818d85c1c1959605a1b604482015290519081900360640190fd5b63ffffffff8263ffffffff1682600281518110613d2057fe5b602002602001015163ffffffff16011115613d7a576040805162461bcd60e51b8152602060048201526015602482015274111d5cdd080d50881cdd5c1c1b1e4818d85c1c1959605a1b604482015290519081900360640190fd5b5050505050565b6000613d8c82611f8f565b9050613d9a81600084614b6d565b613da560008361374f565b6000828152606c60205260409020546002600019610100600184161502019091160415613de3576000828152606c60205260408120613de3916157ba565b6001600160a01b0381166000908152606560205260409020613e0b908363ffffffff614c8316565b50613e1d60668363ffffffff614da616565b5060405182906000906001600160a01b038416907fddf252ad1be2c89b69c2b068fc378daa952ba7f163c4a11628f55a4df523b3ef908390a45050565b613e6684848484613c14565b6060613e7185612832565b90508381600081518110613e8157fe5b602002602001018181510191509063ffffffff16908163ffffffff16815250508281600181518110613eaf57fe5b602002602001018181510191509063ffffffff16908163ffffffff16815250508181600281518110613edd57fe5b602002602001018181510191509063ffffffff16908163ffffffff1681525050613d7a8582600081518110613f0e57fe5b602002602001015183600181518110613f2357fe5b602002602001015184600281518110613f3857fe5b6020026020010151614db2565b6000808080613f548686614e03565b9097909650945050505050565b60006119e3848484614e7e565b6001600160e01b03198082161415613fcd576040805162461bcd60e51b815260206004820152601c60248201527f4552433136353a20696e76616c696420696e7465726661636520696400000000604482015290519081900360640190fd5b6001600160e01b0319166000908152603360205260409020805460ff19166001179055565b6000613ffd30614f48565b15905090565b600054610100900460ff168061401c575061401c613ff2565b8061402a575060005460ff16155b6140655760405162461bcd60e51b815260040180806020018281038252602e815260200180615a7d602e913960400191505060405180910390fd5b600054610100900460ff16158015614090576000805460ff1961ff0019909116610100171660011790555b6140986140c0565b6140a0614f4e565b6140aa8383614feb565b8015611658576000805461ff0019169055505050565b600054610100900460ff16806140d957506140d9613ff2565b806140e7575060005460ff16155b6141225760405162461bcd60e51b815260040180806020018281038252602e815260200180615a7d602e913960400191505060405180910390fd5b600054610100900460ff161580156123ba576000805460ff1961ff00199091166101001716600117905580156123cc576000805461ff001916905550565b60008060008061416f866118ff565b9050600061417c876135f5565b90506000614189886117d6565b9050600061419a84848a60056119c2565b9050600080600160ff851611156141bb576141b886868c60036119c2565b91505b60028460ff1611156141d7576141d486868c60046119c2565b90505b919750955093505050509250925092565b600061178b836001600160a01b0384166150d0565b60008060008060008060008060008060006142178c6150e8565b939e50919c509a509850965061422c8c61517a565b9298509096509450925061423e6157fe565b5060008c815260cb60209081526040918290208251606081018452905460ff808216808452610100830480831695850195909552620100009092049081169483019490945260109390931b62ff00001660089290921b61ff00169092171792506142a78d612939565b91505091939597999b90929496989a50565b600084815260cb6020526040902060ff84161561432b578054606460ff9091161061432b576040805162461bcd60e51b815260206004820152601f60248201527f4c6f772073746172206275726e20706f696e7473206172652063617070656400604482015290519081900360640190fd5b60ff831615614393578054601961010090910460ff1610614393576040805162461bcd60e51b815260206004820181905260248201527f466f75722073746172206275726e20706f696e74732061726520636170706564604482015290519081900360640190fd5b60ff8216156143fc578054600a6201000090910460ff16106143fc576040805162461bcd60e51b815260206004820181905260248201527f466976652073746172206275726e20706f696e74732061726520636170706564604482015290519081900360640190fd5b805462ff00001961ff001960ff19831660ff9384168801841617908116610100918290048416870184169091021790811662010000918290048316850183169091021780835560649116111561445857805460ff191660641781555b8054601961010090910460ff16111561447957805461ff0019166119001781555b8054600a6201000090910460ff161115613d7a57805462ff00001916620a000017905550505050565b6144ad8484846138cb565b6144b984848484615215565b6129d35760405162461bcd60e51b81526004018080602001828103825260328152602001806159406032913960400191505060405180910390fd5b60606144ff85612832565b90508363ffffffff168160008151811061451557fe5b602002602001015163ffffffff16101561456e576040805162461bcd60e51b8152602060048201526015602482015274111d5cdd081310881cdd5c1c1b1e481b9959591959605a1b604482015290519081900360640190fd5b8263ffffffff168160018151811061458257fe5b602002602001015163ffffffff1610156145db576040805162461bcd60e51b8152602060048201526015602482015274111d5cdd080d10881cdd5c1c1b1e481b9959591959605a1b604482015290519081900360640190fd5b8163ffffffff16816002815181106145ef57fe5b602002602001015163ffffffff161015613d7a576040805162461bcd60e51b8152602060048201526015602482015274111d5cdd080d50881cdd5c1c1b1e481b9959591959605a1b604482015290519081900360640190fd5b606061465385612832565b9050838160008151811061466357fe5b602002602001018181510391509063ffffffff16908163ffffffff1681525050828160018151811061469157fe5b602002602001018181510391509063ffffffff16908163ffffffff168152505081816002815181106146bf57fe5b602002602001018181510391509063ffffffff16908163ffffffff1681525050613d7a8582600081518110613f0e57fe5b60608161471557506040805180820190915260018152600360fc1b6020820152611231565b8160005b811561472d57600101600a82049150614719565b6060816001600160401b038111801561474557600080fd5b506040519080825280601f01601f191660200182016040528015614770576020820181803683370190505b50859350905060001982015b83156147c157600a840660300160f81b8282806001900393508151811061479f57fe5b60200101906001600160f81b031916908160001a905350600a8404935061477c565b50949350505050565b6000826147d9575060006116bb565b828202828482816147e657fe5b041461178b5760405162461bcd60e51b8152600401808060200182810382526021815260200180615acd6021913960400191505060405180910390fd5b60008282018381101561178b576040805162461bcd60e51b815260206004820152601b60248201527f536166654d6174683a206164646974696f6e206f766572666c6f770000000000604482015290519081900360640190fd5b6001600160a01b0382166148d8576040805162461bcd60e51b815260206004820181905260248201527f4552433732313a206d696e7420746f20746865207a65726f2061646472657373604482015290519081900360640190fd5b6148e1816136ac565b15614933576040805162461bcd60e51b815260206004820152601c60248201527f4552433732313a20746f6b656e20616c7265616479206d696e74656400000000604482015290519081900360640190fd5b61493f60008383614b6d565b6001600160a01b0382166000908152606560205260409020614967908263ffffffff614c8f16565b5061497a6066828463ffffffff614c9b16565b5060405181906001600160a01b038416906000907fddf252ad1be2c89b69c2b068fc378daa952ba7f163c4a11628f55a4df523b3ef908290a45050565b600082821115614a0e576040805162461bcd60e51b815260206004820152601e60248201527f536166654d6174683a207375627472616374696f6e206f766572666c6f770000604482015290519081900360640190fd5b50900390565b600081614a2057600080fd5b60006001600160c01b038411614a455782604085901b81614a3d57fe5b049050614b49565b60c084811c600160201b8110614a5d576020918201911c5b620100008110614a6f576010918201911c5b6101008110614a80576008918201911c5b60108110614a90576004918201911c5b60048110614aa0576002918201911c5b60028110614aaf576001820191505b60bf820360018603901c6001018260ff0387901b81614aca57fe5b0492506001600160801b03831115614ae157600080fd5b608085901c83026001600160801b038616840260c088901c604089901b82811015614b0d576001820391505b608084901b92900382811015614b24576001820391505b829003608084901c8214614b3457fe5b888181614b3d57fe5b04870196505050505050505b6001600160801b0381111561178b57600080fd5b600061178b83836150d0565b5490565b60d7546040805163434d82a360e01b81526001600160a01b0386811660048381019190915260248301529151919092169163434d82a3916044808301926020929190829003018186803b158015614bc357600080fd5b505afa158015614bd7573d6000803e3d6000fd5b505050506040513d6020811015614bed57600080fd5b50518015614c0357506001600160a01b03831615155b8015614c1757506001600160a01b03821615155b1561165857614c3e6040518080615bc46027913960270190506040518091039020836124c0565b611658576040805162461bcd60e51b81526020600482015260116024820152702a3930b739b332b91031b7b7b63237bbb760791b604482015290519081900360640190fd5b600061178b8383615395565b600061178b838361545b565b60006119e384846001600160a01b0385166154a5565b600061178b836001600160a01b03841661545b565b81546000908210614d085760405162461bcd60e51b81526004018080602001828103825260228152602001806158ef6022913960400191505060405180910390fd5b826000018281548110614d1757fe5b9060005260206000200154905092915050565b600061178b836001600160a01b038416615395565b6000808211614d95576040805162461bcd60e51b815260206004820152601860248201527f536166654d6174683a206d6f64756c6f206279207a65726f0000000000000000604482015290519081900360640190fd5b818381614d9e57fe5b069392505050565b600061178b838361553c565b6001600160a01b0393909316600090815260d6602090815260409182902063ffffffff9490941692901b67ffffffff000000001693901b6bffffffff00000000000000001692909201919091019055565b815460009081908310614e475760405162461bcd60e51b8152600401808060200182810382526022815260200180615aab6022913960400191505060405180910390fd5b6000846000018481548110614e5857fe5b906000526020600020906002020190508060000154816001015492509250509250929050565b60008281526001840160205260408120548281614f195760405162461bcd60e51b81526004018080602001828103825283818151815260200191508051906020019080838360005b83811015614ede578181015183820152602001614ec6565b50505050905090810190601f168015614f0b5780820380516001836020036101000a031916815260200191505b509250505060405180910390fd5b50846000016001820381548110614f2c57fe5b9060005260206000209060020201600101549150509392505050565b3b151590565b600054610100900460ff1680614f675750614f67613ff2565b80614f75575060005460ff16155b614fb05760405162461bcd60e51b815260040180806020018281038252602e815260200180615a7d602e913960400191505060405180910390fd5b600054610100900460ff16158015614fdb576000805460ff1961ff0019909116610100171660011790555b6123ba6301ffc9a760e01b613f6e565b600054610100900460ff16806150045750615004613ff2565b80615012575060005460ff16155b61504d5760405162461bcd60e51b815260040180806020018281038252602e815260200180615a7d602e913960400191505060405180910390fd5b600054610100900460ff16158015615078576000805460ff1961ff0019909116610100171660011790555b825161508b90606a90602086019061581e565b50815161509f90606b90602085019061581e565b506150b06380ac58cd60e01b613f6e565b6150c0635b5e139f60e01b613f6e565b6140aa63780e9d6360e01b613f6e565b60009081526001919091016020526040902054151590565b60008060008060006150f861578c565b60c9878154811061510557fe5b60009182526020918290206040805160a081018252929091015461ffff8082168085526201000083048216958501869052600160201b83048216938501849052600160301b830490911660608501819052600160401b90920460ff1660809094018490529b939a509098509650945092505050565b60008060008061518861589c565b60ca868154811061519557fe5b600091825260209182902060408051808201909152600290920201805460ff1682526001908101549282018390529092506151d2919060186135c3565b94506151e58160200151600260186135c3565b93506151f88160200151600360186135c3565b925061520b8160200151600460186135c3565b9150509193509193565b6000615229846001600160a01b0316614f48565b615235575060016119e3565b606061535b630a85bd0160e11b61524a61374b565b88878760405160240180856001600160a01b03166001600160a01b03168152602001846001600160a01b03166001600160a01b0316815260200183815260200180602001828103825283818151815260200191508051906020019080838360005b838110156152c35781810151838201526020016152ab565b50505050905090810190601f1680156152f05780820380516001836020036101000a031916815260200191505b5095505050505050604051602081830303815290604052906001600160e01b0319166020820180516001600160e01b038381831617835250505050604051806060016040528060328152602001615940603291396001600160a01b038816919063ffffffff61561016565b9050600081806020019051602081101561537457600080fd5b50516001600160e01b031916630a85bd0160e11b1492505050949350505050565b6000818152600183016020526040812054801561545157835460001980830191908101906000908790839081106153c857fe5b90600052602060002001549050808760000184815481106153e557fe5b60009182526020808320909101929092558281526001898101909252604090209084019055865487908061541557fe5b600190038181906000526020600020016000905590558660010160008781526020019081526020016000206000905560019450505050506116bb565b60009150506116bb565b600061546783836150d0565b61549d575081546001818101845560008481526020808220909301849055845484825282860190935260409020919091556116bb565b5060006116bb565b60008281526001840160205260408120548061550a57505060408051808201825283815260208082018481528654600181810189556000898152848120955160029093029095019182559151908201558654868452818801909252929091205561178b565b8285600001600183038154811061551d57fe5b906000526020600020906002020160010181905550600091505061178b565b60008181526001830160205260408120548015615451578354600019808301919081019060009087908390811061556f57fe5b906000526020600020906002020190508087600001848154811061558f57fe5b6000918252602080832084546002909302019182556001938401549184019190915583548252898301905260409020908401905586548790806155ce57fe5b60008281526020808220600260001990940193840201828155600190810183905592909355888152898201909252604082209190915594506116bb9350505050565b60606119e384846000858561562485614f48565b615675576040805162461bcd60e51b815260206004820152601d60248201527f416464726573733a2063616c6c20746f206e6f6e2d636f6e7472616374000000604482015290519081900360640190fd5b60006060866001600160a01b031685876040518082805190602001908083835b602083106156b45780518252601f199092019160209182019101615695565b6001836020036101000a03801982511681845116808217855250505050505090500191505060006040518083038185875af1925050503d8060008114615716576040519150601f19603f3d011682016040523d82523d6000602084013e61571b565b606091505b50915091506124b58282866060831561573557508161178b565b8251156157455782518084602001fd5b60405162461bcd60e51b8152602060048201818152845160248401528451859391928392604401919085019080838360008315614ede578181015183820152602001614ec6565b6040805160a08101825260008082526020820181905291810182905260608101829052608081019190915290565b50805460018160011615610100020316600290046000825580601f106157e057506123cc565b601f0160209004906000526020600020908101906123cc91906158b3565b604080516060810182526000808252602082018190529181019190915290565b828054600181600116156101000203166002900490600052602060002090601f016020900481019282601f1061585f57805160ff191683800117855561588c565b8280016001018555821561588c579182015b8281111561588c578251825591602001919060010190615871565b506158989291506158b3565b5090565b604080518082019091526000808252602082015290565b61140291905b8082111561589857600081556001016158b956fe537461727320706172616d6574657220746f6f20686967682120286d6178203729456e756d657261626c655365743a20696e646578206f7574206f6620626f756e6473416363657373436f6e74726f6c3a2073656e646572206d75737420626520616e2061646d696e20746f206772616e744552433732313a207472616e7366657220746f206e6f6e20455243373231526563656976657220696d706c656d656e7465724552433732313a207472616e7366657220746f20746865207a65726f20616464726573734552433732313a206f70657261746f7220717565727920666f72206e6f6e6578697374656e7420746f6b656e416363657373436f6e74726f6c3a2073656e646572206d75737420626520616e2061646d696e20746f207265766f6b654552433732313a20617070726f76652063616c6c6572206973206e6f74206f776e6572206e6f7220617070726f76656420666f7220616c6c4552433732313a2062616c616e636520717565727920666f7220746865207a65726f20616464726573734552433732313a206f776e657220717565727920666f72206e6f6e6578697374656e7420746f6b656e496e697469616c697a61626c653a20636f6e747261637420697320616c726561647920696e697469616c697a6564456e756d657261626c654d61703a20696e646578206f7574206f6620626f756e6473536166654d6174683a206d756c7469706c69636174696f6e206f766572666c6f774552433732313a20617070726f76656420717565727920666f72206e6f6e6578697374656e7420746f6b656e4552433732313a207472616e73666572206f6620746f6b656e2074686174206973206e6f74206f776e4552433732314d657461646174613a2055524920717565727920666f72206e6f6e6578697374656e7420746f6b656e4552433732313a20617070726f76616c20746f2063757272656e74206f776e65724552433732313a207472616e736665722063616c6c6572206973206e6f74206f776e6572206e6f7220617070726f766564524543454956455f444f45535f4e4f545f5345545f5452414e534645525f54494d455354414d50416363657373436f6e74726f6c3a2063616e206f6e6c792072656e6f756e636520726f6c657320666f722073656c66a2646970667358221220c6174da768b09e3fd213b1142ae832cb9166bcc233369b7e4b4cb94d6c08a08b64736f6c63430006050033",
  "immutableReferences": {},
  "source": "pragma solidity ^0.6.0;\n\nimport \"@openzeppelin/contracts-upgradeable/proxy/Initializable.sol\";\nimport \"@openzeppelin/contracts-upgradeable/token/ERC721/ERC721Upgradeable.sol\";\nimport \"@openzeppelin/contracts-upgradeable/access/AccessControlUpgradeable.sol\";\nimport \"@openzeppelin/contracts/math/SafeMath.sol\";\nimport \"abdk-libraries-solidity/ABDKMath64x64.sol\";\nimport \"./Promos.sol\";\nimport \"./util.sol\";\n\ncontract Weapons is Initializable, ERC721Upgradeable, AccessControlUpgradeable {\n\n    using ABDKMath64x64 for int128;\n    using ABDKMath64x64 for uint16;\n\n    bytes32 public constant GAME_ADMIN = keccak256(\"GAME_ADMIN\");\n    bytes32 public constant RECEIVE_DOES_NOT_SET_TRANSFER_TIMESTAMP = keccak256(\"RECEIVE_DOES_NOT_SET_TRANSFER_TIMESTAMP\");\n\n    function initialize () public initializer {\n        __ERC721_init(\"CryptoBlades weapon\", \"CWW\");\n        __AccessControl_init_unchained();\n\n        _setupRole(DEFAULT_ADMIN_ROLE, msg.sender);\n    }\n\n    function migrateTo_e55d8c5() public {\n        require(hasRole(DEFAULT_ADMIN_ROLE, msg.sender), \"Not admin\");\n\n        burnPointMultiplier = 2;\n        lowStarBurnPowerPerPoint = 15;\n        fourStarBurnPowerPerPoint = 30;\n        fiveStarBurnPowerPerPoint = 60;\n    }\n\n    function migrateTo_aa9da90() public {\n        require(hasRole(DEFAULT_ADMIN_ROLE, msg.sender), \"Not admin\");\n\n        oneFrac = ABDKMath64x64.fromUInt(1);\n        powerMultPerPointBasic =  ABDKMath64x64.divu(1, 400);// 0.25%\n        powerMultPerPointPWR = powerMultPerPointBasic.mul(ABDKMath64x64.divu(103, 100)); // 0.2575% (+3%)\n        powerMultPerPointMatching = powerMultPerPointBasic.mul(ABDKMath64x64.divu(107, 100)); // 0.2675% (+7%)\n    }\n\n    function migrateTo_951a020() public {\n        require(hasRole(DEFAULT_ADMIN_ROLE, msg.sender), \"Not admin\");\n\n        // Apparently ERC165 interfaces cannot be removed in this version of the OpenZeppelin library.\n        // But if we remove the registration, then while local deployments would not register the interface ID,\n        // existing deployments on both testnet and mainnet would still be registered to handle it.\n        // That sort of inconsistency is a good way to attract bugs that only happens on some environments.\n        // Hence, we keep registering the interface despite not actually implementing the interface.\n        _registerInterface(0xe62e6974); // TransferCooldownableInterfaceId.interfaceId()\n    }\n    \n    function migrateTo_surprise(Promos _promos) public {\n        require(hasRole(DEFAULT_ADMIN_ROLE, msg.sender), \"Not admin\");\n\n        promos = _promos;\n    }\n\n    /*\n        visual numbers start at 0, increment values by 1\n        levels: 1-128\n        stars: 1-5 (1,2,3: primary only, 4: one secondary, 5: two secondaries)\n        traits: 0-3 [0(fire) > 1(earth) > 2(lightning) > 3(water) > repeat]\n        stats: STR(fire), DEX(earth), CHA(lightning), INT(water), PWR(traitless)\n        base stat rolls: 1*(1-50), 2*(45-75), 3*(70-100), 4*(50-100), 5*(66-100, main is 68-100)\n        burns: add level & main stat, and 50% chance to increase secondaries\n        power: each point contributes .25% to fight power\n        cosmetics: 0-255 but only 24 is used, may want to cap so future expansions dont change existing weps\n    */\n\n    struct Weapon {\n        uint16 properties; // right to left: 3b stars, 2b trait, 7b stat pattern, 4b EMPTY\n        // stats (each point refers to .25% improvement)\n        uint16 stat1;\n        uint16 stat2;\n        uint16 stat3;\n        uint8 level; // separate from stat1 because stat1 will have a pre-roll\n    }\n\n    struct WeaponBurnPoints {\n        uint8 lowStarBurnPoints;\n        uint8 fourStarBurnPoints;\n        uint8 fiveStarBurnPoints;\n    }\n\n    struct WeaponCosmetics {\n        uint8 version;\n        uint256 seed;\n    }\n\n    Weapon[] private tokens;\n    WeaponCosmetics[] private cosmetics;\n    mapping(uint256 => WeaponBurnPoints) burnPoints;\n\n    uint public burnPointMultiplier; // 2\n    uint public lowStarBurnPowerPerPoint; // 15\n    uint public fourStarBurnPowerPerPoint; // 30\n    uint public fiveStarBurnPowerPerPoint; // 60\n\n    int128 public oneFrac; // 1.0\n    int128 public powerMultPerPointBasic; // 0.25%\n    int128 public powerMultPerPointPWR; // 0.2575% (+3%)\n    int128 public powerMultPerPointMatching; // 0.2675% (+7%)\n\n    // UNUSED; KEPT FOR UPGRADEABILITY PROXY COMPATIBILITY\n    mapping(uint256 => uint256) public lastTransferTimestamp;\n\n    uint256 private lastMintedBlock;\n    uint256 private firstMintedOfLastBlock;\n\n    mapping(uint256 => uint64) durabilityTimestamp;\n\n    uint256 public constant maxDurability = 20;\n    uint256 public constant secondsPerDurability = 3000; //50 * 60\n\n    mapping(address => uint256) burnDust; // user address : burned item dust counts\n\n    Promos public promos;\n\n    event Burned(address indexed owner, uint256 indexed burned);\n    event NewWeapon(uint256 indexed weapon, address indexed minter);\n    event Reforged(address indexed owner, uint256 indexed reforged, uint256 indexed burned, uint8 lowPoints, uint8 fourPoints, uint8 fivePoints);\n    event ReforgedWithDust(address indexed owner, uint256 indexed reforged, uint8 lowDust, uint8 fourDust, uint8 fiveDust, uint8 lowPoints, uint8 fourPoints, uint8 fivePoints);\n\n    modifier restricted() {\n        _restricted();\n        _;\n    }\n\n    function _restricted() internal view {\n        require(hasRole(GAME_ADMIN, msg.sender), \"Not game admin\");\n    }\n\n    modifier noFreshLookup(uint256 id) {\n        _noFreshLookup(id);\n        _;\n    }\n\n    function _noFreshLookup(uint256 id) internal view {\n        require(id < firstMintedOfLastBlock || lastMintedBlock < block.number, \"Too fresh for lookup\");\n    }\n\n    function getStats(uint256 id) internal view\n        returns (uint16 _properties, uint16 _stat1, uint16 _stat2, uint16 _stat3, uint8 _level) {\n\n        Weapon memory w = tokens[id];\n        return (w.properties, w.stat1, w.stat2, w.stat3, w.level);\n    }\n\n    function getCosmetics(uint256 id) internal view\n        returns (uint8 _blade, uint8 _crossguard, uint8 _grip, uint8 _pommel) {\n\n        WeaponCosmetics memory wc = cosmetics[id];\n        _blade = getRandomCosmetic(wc.seed, 1, 24);\n        _crossguard = getRandomCosmetic(wc.seed, 2, 24);\n        _grip = getRandomCosmetic(wc.seed, 3, 24);\n        _pommel = getRandomCosmetic(wc.seed, 4, 24);\n    }\n\n    function get(uint256 id) public view noFreshLookup(id)\n        returns (\n            uint16 _properties, uint16 _stat1, uint16 _stat2, uint16 _stat3, uint8 _level,\n            uint8 _blade, uint8 _crossguard, uint8 _grip, uint8 _pommel,\n            uint24 _burnPoints, // burn points.. got stack limits so i put them together\n            uint24 _bonusPower // bonus power\n    ) {\n        return _get(id);\n    }\n\n    function _get(uint256 id) internal view\n        returns (\n            uint16 _properties, uint16 _stat1, uint16 _stat2, uint16 _stat3, uint8 _level,\n            uint8 _blade, uint8 _crossguard, uint8 _grip, uint8 _pommel,\n            uint24 _burnPoints, // burn points.. got stack limits so i put them together\n            uint24 _bonusPower // bonus power\n    ) {\n        (_properties, _stat1, _stat2, _stat3, _level) = getStats(id);\n        (_blade, _crossguard, _grip, _pommel) = getCosmetics(id);\n\n        WeaponBurnPoints memory wbp = burnPoints[id];\n        _burnPoints =\n            uint24(wbp.lowStarBurnPoints) |\n            (uint24(wbp.fourStarBurnPoints) << 8) |\n            (uint24(wbp.fiveStarBurnPoints) << 16);\n\n        _bonusPower = getBonusPower(id);\n    }\n\n    function mint(address minter, uint256 seed) public restricted returns(uint256) {\n        uint256 stars;\n        uint256 roll = seed % 100;\n        // will need revision, possibly manual configuration if we support more than 5 stars\n        if(roll < 1) {\n            stars = 4; // 5* at 1%\n        }\n        else if(roll < 6) { // 4* at 5%\n            stars = 3;\n        }\n        else if(roll < 21) { // 3* at 15%\n            stars = 2;\n        }\n        else if(roll < 56) { // 2* at 35%\n            stars = 1;\n        }\n        else {\n            stars = 0; // 1* at 44%\n        }\n\n        return mintWeaponWithStars(minter, stars, seed);\n    }\n\n    function mintWeaponWithStars(address minter, uint256 stars, uint256 seed) public restricted returns(uint256) {\n        require(stars < 8, \"Stars parameter too high! (max 7)\");\n        (uint16 stat1, uint16 stat2, uint16 stat3) = getStatRolls(stars, seed);\n\n        return performMintWeapon(minter,\n            getRandomProperties(stars, seed),\n            stat1,\n            stat2,\n            stat3,\n            RandomUtil.combineSeeds(seed,3)\n        );\n    }\n\n    function performMintWeapon(address minter,\n        uint16 properties,\n        uint16 stat1, uint16 stat2, uint16 stat3,\n        uint256 cosmeticSeed\n    ) public restricted returns(uint256) {\n\n        uint256 tokenID = tokens.length;\n\n        if(block.number != lastMintedBlock)\n            firstMintedOfLastBlock = tokenID;\n        lastMintedBlock = block.number;\n\n        tokens.push(Weapon(properties, stat1, stat2, stat3, 0));\n        cosmetics.push(WeaponCosmetics(0, cosmeticSeed));\n        _mint(minter, tokenID);\n        durabilityTimestamp[tokenID] = uint64(now.sub(getDurabilityMaxWait()));\n\n        emit NewWeapon(tokenID, minter);\n        return tokenID;\n    }\n\n    function getRandomProperties(uint256 stars, uint256 seed) public pure returns (uint16) {\n        return uint16((stars & 0x7) // stars aren't randomized here!\n            | ((RandomUtil.randomSeededMinMax(0,3,RandomUtil.combineSeeds(seed,1)) & 0x3) << 3) // trait\n            | ((RandomUtil.randomSeededMinMax(0,124,RandomUtil.combineSeeds(seed,2)) & 0x7F) << 5)); // statPattern\n    }\n\n    function getStatRolls(uint256 stars, uint256 seed) private pure returns (uint16, uint16, uint16) {\n        // each point refers to .25%\n        // so 1 * 4 is 1%\n        uint16 minRoll = getStatMinRoll(stars);\n        uint16 maxRoll = getStatMaxRoll(stars);\n        uint8 statCount = getStatCount(stars);\n\n        uint16 stat1 = getRandomStat(minRoll, maxRoll, seed, 5);\n        uint16 stat2 = 0;\n        uint16 stat3 = 0;\n        if(statCount > 1) {\n            stat2 = getRandomStat(minRoll, maxRoll, seed, 3);\n        }\n        if(statCount > 2) {\n            stat3 = getRandomStat(minRoll, maxRoll, seed, 4);\n        }\n        return (stat1, stat2, stat3);\n    }\n\n    function getRandomStat(uint16 minRoll, uint16 maxRoll, uint256 seed, uint256 seed2) public pure returns (uint16) {\n        return uint16(RandomUtil.randomSeededMinMax(minRoll, maxRoll,RandomUtil.combineSeeds(seed, seed2)));\n    }\n\n    function getRandomCosmetic(uint256 seed, uint256 seed2, uint8 limit) public pure returns (uint8) {\n        return uint8(RandomUtil.randomSeededMinMax(0, limit, RandomUtil.combineSeeds(seed, seed2)));\n    }\n\n    function getStatMinRoll(uint256 stars) public pure returns (uint16) {\n        // 1 star\n        if (stars == 0) return 4;\n        // 2 star\n        if (stars == 1) return 180;\n        // 3 star\n        if (stars == 2) return 280;\n        // 4 star\n        if (stars == 3) return 200;\n        // 5+ star\n        return 268;\n    }\n\n    function getStatMaxRoll(uint256 stars) public pure returns (uint16) {\n        // 3+ star\n        if (stars > 1) return 400;\n        // 2 star\n        if (stars > 0) return 300;\n        // 1 star\n        return 200;\n    }\n\n    function getStatCount(uint256 stars) public pure returns (uint8) {\n        // 1-2 star\n        if (stars < 3) return 1;\n        // 3+ star\n        return uint8(stars)-1;\n    }\n\n    function getProperties(uint256 id) public view noFreshLookup(id) returns (uint16) {\n        return tokens[id].properties;\n    }\n\n    function getStars(uint256 id) public view noFreshLookup(id) returns (uint8) {\n        return getStarsFromProperties(getProperties(id));\n    }\n\n    function getStarsFromProperties(uint16 properties) public pure returns (uint8) {\n        return uint8(properties & 0x7); // first two bits for stars\n    }\n\n    function getTrait(uint256 id) public view noFreshLookup(id) returns (uint8) {\n        return getTraitFromProperties(getProperties(id));\n    }\n\n    function getTraitFromProperties(uint16 properties) public pure returns (uint8) {\n        return uint8((properties >> 3) & 0x3); // two bits after star bits (3)\n    }\n\n    function getStatPattern(uint256 id) public view noFreshLookup(id) returns (uint8) {\n        return getStatPatternFromProperties(getProperties(id));\n    }\n\n    function getStatPatternFromProperties(uint16 properties) public pure returns (uint8) {\n        return uint8((properties >> 5) & 0x7F); // 7 bits after star(3) and trait(2) bits\n    }\n\n    function getStat1Trait(uint8 statPattern) public pure returns (uint8) {\n        return uint8(uint256(statPattern) % 5); // 0-3 regular traits, 4 = traitless (PWR)\n    }\n\n    function getStat2Trait(uint8 statPattern) public pure returns (uint8) {\n        return uint8(SafeMath.div(statPattern, 5) % 5); // 0-3 regular traits, 4 = traitless (PWR)\n    }\n\n    function getStat3Trait(uint8 statPattern) public pure returns (uint8) {\n        return uint8(SafeMath.div(statPattern, 25) % 5); // 0-3 regular traits, 4 = traitless (PWR)\n    }\n\n    function getLevel(uint256 id) public view noFreshLookup(id) returns (uint8) {\n        return tokens[id].level;\n    }\n\n    function getStat1(uint256 id) public view noFreshLookup(id) returns (uint16) {\n        return tokens[id].stat1;\n    }\n\n    function getStat2(uint256 id) public view noFreshLookup(id) returns (uint16) {\n        return tokens[id].stat2;\n    }\n\n    function getStat3(uint256 id) public view noFreshLookup(id) returns (uint16) {\n        return tokens[id].stat3;\n    }\n\n    function getPowerMultiplier(uint256 id) public view noFreshLookup(id) returns (int128) {\n        // returns a 64.64 fixed point number for power multiplier\n        // this function does not account for traits\n        // it is used to calculate base enemy powers for targeting\n        Weapon memory wep = tokens[id];\n        int128 powerPerPoint = ABDKMath64x64.divu(1, 400); // 0.25% or x0.0025\n        int128 stat1 = wep.stat1.fromUInt().mul(powerPerPoint);\n        int128 stat2 = wep.stat2.fromUInt().mul(powerPerPoint);\n        int128 stat3 = wep.stat3.fromUInt().mul(powerPerPoint);\n        return ABDKMath64x64.fromUInt(1).add(stat1).add(stat2).add(stat3);\n    }\n\n    function getPowerMultiplierForTrait(\n        uint16 properties,\n        uint16 stat1,\n        uint16 stat2,\n        uint16 stat3,\n        uint8 trait\n    ) public view returns(int128) {\n        // Does not include character trait to weapon trait match\n        // Only counts arbitrary trait to weapon stat trait\n        // This function can be used by frontend to get expected % bonus for each type\n        // Making it easy to see on the market how useful it will be to you\n        uint8 statPattern = getStatPatternFromProperties(properties);\n        int128 result = oneFrac;\n\n        if(getStat1Trait(statPattern) == trait)\n            result = result.add(stat1.fromUInt().mul(powerMultPerPointMatching));\n        else if(getStat1Trait(statPattern) == 4) // PWR, traitless\n            result = result.add(stat1.fromUInt().mul(powerMultPerPointPWR));\n        else\n            result = result.add(stat1.fromUInt().mul(powerMultPerPointBasic));\n\n        if(getStat2Trait(statPattern) == trait)\n            result = result.add(stat2.fromUInt().mul(powerMultPerPointMatching));\n        else if(getStat2Trait(statPattern) == 4) // PWR, traitless\n            result = result.add(stat2.fromUInt().mul(powerMultPerPointPWR));\n        else\n            result = result.add(stat2.fromUInt().mul(powerMultPerPointBasic));\n\n        if(getStat3Trait(statPattern) == trait)\n            result = result.add(stat3.fromUInt().mul(powerMultPerPointMatching));\n        else if(getStat3Trait(statPattern) == 4) // PWR, traitless\n            result = result.add(stat3.fromUInt().mul(powerMultPerPointPWR));\n        else\n            result = result.add(stat3.fromUInt().mul(powerMultPerPointBasic));\n\n        return result;\n    }\n\n    function getDustSupplies(address playerAddress) public view returns (uint32[] memory) {\n        uint256 burnDustValue = burnDust[playerAddress];\n        uint32[] memory supplies = new uint32[](3);\n        supplies[0] = uint32(burnDustValue);\n        supplies[1] = uint32(burnDustValue >> 32);\n        supplies[2] = uint32(burnDustValue >> 64);\n        return supplies;\n    }\n\n    function _setDustSupplies(address playerAddress, uint32 amountLB, uint32 amount4B, uint32 amount5B) internal {\n        uint256 burnDustValue = (uint256(amount5B) << 64) + (uint256(amount4B) << 32) + amountLB;\n        burnDust[playerAddress] = burnDustValue;\n    }\n\n    function _decrementDustSuppliesCheck(address playerAddress, uint32 amountLB, uint32 amount4B, uint32 amount5B) internal {\n        uint32[] memory supplies = getDustSupplies(playerAddress);\n        require(supplies[0] >= amountLB, \"Dust LB supply needed\");\n        require(supplies[1] >= amount4B, \"Dust 4B supply needed\");\n        require(supplies[2] >= amount5B, \"Dust 5B supply needed\");\n    }\n\n    function _decrementDustSupplies(address playerAddress, uint32 amountLB, uint32 amount4B, uint32 amount5B) internal {\n        uint32[] memory supplies = getDustSupplies(playerAddress);\n        supplies[0] -= amountLB;\n        supplies[1] -= amount4B;\n        supplies[2] -= amount5B;\n        _setDustSupplies(playerAddress, supplies[0], supplies[1], supplies[2]);\n    }\n\n    function _incrementDustSuppliesCheck(address playerAddress, uint32 amountLB, uint32 amount4B, uint32 amount5B) internal {\n        uint32[] memory supplies = getDustSupplies(playerAddress);\n        require(uint256(supplies[0]) + amountLB <= 0xFFFFFFFF, \"Dust LB supply capped\");\n        require(uint256(supplies[1]) + amount4B <= 0xFFFFFFFF, \"Dust 4B supply capped\");\n        require(uint256(supplies[2]) + amount5B <= 0xFFFFFFFF, \"Dust 5B supply capped\");\n    }\n\n    function _incrementDustSupplies(address playerAddress, uint32 amountLB, uint32 amount4B, uint32 amount5B) internal {\n        _incrementDustSuppliesCheck(playerAddress, amountLB, amount4B, amount5B);\n        uint32[] memory supplies = getDustSupplies(playerAddress);\n        supplies[0] += amountLB;\n        supplies[1] += amount4B;\n        supplies[2] += amount5B;\n        _setDustSupplies(playerAddress, supplies[0], supplies[1], supplies[2]);\n    }\n\n    function _calculateBurnValues(uint256 burnID) public view returns(uint8[] memory) {\n        uint8[] memory values = new uint8[](3);\n\n        // Carried burn points.\n        WeaponBurnPoints storage burningbp = burnPoints[burnID];\n        values[0] = (burningbp.lowStarBurnPoints + 1) / 2;\n        values[1] = (burningbp.fourStarBurnPoints + 1) / 2;\n        values[2] = (burningbp.fiveStarBurnPoints + 1) / 2;\n\n        // Stars-based burn points.\n        Weapon storage burning = tokens[burnID];\n        uint8 stars = getStarsFromProperties(burning.properties);\n        if(stars < 3) { // 1-3 star\n            values[0] += uint8(burnPointMultiplier * (stars + 1));\n        }\n        else if(stars == 3) { // 4 star\n            values[1] += uint8(burnPointMultiplier);\n        }\n        else if(stars == 4) { // 5 star\n            values[2] += uint8(burnPointMultiplier);\n        }\n\n        return values;\n    }\n\n    function burn(uint256 burnID) public restricted {\n        uint8[] memory values = _calculateBurnValues(burnID);\n\n        address burnOwner = ownerOf(burnID);\n\n        // While this may seem redundant, _burn could fail so\n        // dust cannot be pre-incremented.\n        _incrementDustSuppliesCheck(burnOwner, values[0], values[1], values[2]);\n\n        _burn(burnID);\n        if(promos.getBit(burnOwner, 4) == false)\n            _incrementDustSupplies(burnOwner, values[0], values[1], values[2]);\n\n        emit Burned(\n            burnOwner,\n            burnID\n        );\n    }\n\n    function reforge(uint256 reforgeID, uint256 burnID) public restricted {\n        uint8[] memory values = _calculateBurnValues(burnID);\n\n        // Note: preexisting issue of applying burn points even if _burn fails.\n        if(promos.getBit(ownerOf(reforgeID), 4) == false)\n            _applyBurnPoints(reforgeID, values[0], values[1], values[2]);\n        _burn(burnID);\n\n        WeaponBurnPoints storage wbp = burnPoints[reforgeID];\n        emit Reforged(\n            ownerOf(reforgeID),\n            reforgeID,\n            burnID,\n            wbp.lowStarBurnPoints,\n            wbp.fourStarBurnPoints,\n            wbp.fiveStarBurnPoints\n        );\n    }\n\n    function reforgeWithDust(uint256 reforgeID, uint8 amountLB, uint8 amount4B, uint8 amount5B) public restricted {\n        // While this may seem redundant, _applyBurnPoints could fail so\n        // dust cannot be pre-decremented.\n        _decrementDustSuppliesCheck(ownerOf(reforgeID), amountLB, amount4B, amount5B);\n\n        if(promos.getBit(ownerOf(reforgeID), 4) == false)\n            _applyBurnPoints(reforgeID, amountLB, amount4B, amount5B);\n        _decrementDustSupplies(ownerOf(reforgeID), amountLB, amount4B, amount5B);\n\n        WeaponBurnPoints storage wbp = burnPoints[reforgeID];\n        emit ReforgedWithDust(\n            ownerOf(reforgeID),\n            reforgeID,\n            amountLB,\n            amount4B,\n            amount5B,\n            wbp.lowStarBurnPoints,\n            wbp.fourStarBurnPoints,\n            wbp.fiveStarBurnPoints\n        );\n    }\n\n    function _applyBurnPoints(uint256 reforgeID, uint8 amountLB, uint8 amount4B, uint8 amount5B) private {\n        WeaponBurnPoints storage wbp = burnPoints[reforgeID];\n\n        if(amountLB > 0) {\n            require(wbp.lowStarBurnPoints < 100, \"Low star burn points are capped\");\n        }\n        if(amount4B > 0) {\n            require(wbp.fourStarBurnPoints < 25, \"Four star burn points are capped\");\n        }\n        if(amount5B > 0) {\n            require(wbp.fiveStarBurnPoints < 10, \"Five star burn points are capped\");\n        }\n\n        wbp.lowStarBurnPoints += amountLB;\n        wbp.fourStarBurnPoints += amount4B;\n        wbp.fiveStarBurnPoints += amount5B;\n\n        if(wbp.lowStarBurnPoints > 100)\n            wbp.lowStarBurnPoints = 100;\n        if(wbp.fourStarBurnPoints > 25)\n            wbp.fourStarBurnPoints = 25;\n        if(wbp.fiveStarBurnPoints > 10)\n            wbp.fiveStarBurnPoints = 10;\n    }\n\n    // UNUSED FOR NOW!\n    function levelUp(uint256 id, uint256 seed) private {\n        Weapon storage wep = tokens[id];\n\n        wep.level = uint8(SafeMath.add(wep.level, 1));\n        wep.stat1 = uint16(SafeMath.add(wep.stat1, 1));\n\n        uint8 stars = getStarsFromProperties(wep.properties);\n\n        if(stars >= 4 && RandomUtil.randomSeededMinMax(0,1, seed) == 0) {\n            wep.stat2 = uint16(SafeMath.add(wep.stat2, 1));\n        }\n        if(stars >= 5 && RandomUtil.randomSeededMinMax(0,1, RandomUtil.combineSeeds(seed,1)) == 0) {\n            wep.stat3 = uint16(SafeMath.add(wep.stat3, 1));\n        }\n    }\n\n    function getBonusPower(uint256 id) public view noFreshLookup(id) returns (uint24) {\n        Weapon storage wep = tokens[id];\n        return getBonusPowerForFight(id, wep.level);\n    }\n\n    function getBonusPowerForFight(uint256 id, uint8 level) public view noFreshLookup(id) returns (uint24) {\n        WeaponBurnPoints storage wbp = burnPoints[id];\n        return uint24(lowStarBurnPowerPerPoint.mul(wbp.lowStarBurnPoints)\n            .add(fourStarBurnPowerPerPoint.mul(wbp.fourStarBurnPoints))\n            .add(fiveStarBurnPowerPerPoint.mul(wbp.fiveStarBurnPoints))\n            .add(uint256(15).mul(level))\n        );\n    }\n\n    function getFightData(uint256 id, uint8 charTrait) public view noFreshLookup(id) returns (int128, int128, uint24, uint8) {\n        Weapon storage wep = tokens[id];\n        return (\n            oneFrac.add(powerMultPerPointBasic.mul(\n                    ABDKMath64x64.fromUInt(\n                        wep.stat1 + wep.stat2 + wep.stat3\n                    )\n            )),//targetMult\n            getPowerMultiplierForTrait(wep.properties, wep.stat1, wep.stat2, wep.stat3, charTrait),\n            getBonusPowerForFight(id, wep.level),\n            getTraitFromProperties(wep.properties)\n        );\n    }\n\n    function getFightDataAndDrainDurability(uint256 id, uint8 charTrait, uint8 drainAmount) public\n        restricted noFreshLookup(id)\n    returns (int128, int128, uint24, uint8) {\n\n        uint8 durabilityPoints = getDurabilityPointsFromTimestamp(durabilityTimestamp[id]);\n        require(durabilityPoints >= drainAmount && promos.getBit(ownerOf(id), 4) == false, \"Not enough durability!\");\n\n        uint64 drainTime = uint64(drainAmount * secondsPerDurability);\n        if(durabilityPoints >= maxDurability) { // if durability full, we reset timestamp and drain from that\n            durabilityTimestamp[id] = uint64(now - getDurabilityMaxWait() + drainTime);\n        }\n        else {\n            durabilityTimestamp[id] = uint64(durabilityTimestamp[id] + drainTime);\n        }\n        \n        Weapon storage wep = tokens[id];\n        return (\n            oneFrac.add(powerMultPerPointBasic.mul(\n                    ABDKMath64x64.fromUInt(\n                        wep.stat1 + wep.stat2 + wep.stat3\n                    )\n            )),//targetMult\n            getPowerMultiplierForTrait(wep.properties, wep.stat1, wep.stat2, wep.stat3, charTrait),\n            getBonusPowerForFight(id, wep.level),\n            getTraitFromProperties(wep.properties)\n        );\n    }\n\n    function drainDurability(uint256 id, uint8 amount) public restricted {\n        uint8 durabilityPoints = getDurabilityPointsFromTimestamp(durabilityTimestamp[id]);\n        require(durabilityPoints >= amount, \"Not enough durability!\");\n\n        uint64 drainTime = uint64(amount * secondsPerDurability);\n        if(durabilityPoints >= maxDurability) { // if durability full, we reset timestamp and drain from that\n            durabilityTimestamp[id] = uint64(now - getDurabilityMaxWait() + drainTime);\n        }\n        else {\n            durabilityTimestamp[id] = uint64(durabilityTimestamp[id] + drainTime);\n        }\n    }\n\n    function setBurnPointMultiplier(uint256 multiplier) public restricted {\n        burnPointMultiplier = multiplier;\n    }\n    function setLowStarBurnPowerPerPoint(uint256 powerPerBurnPoint) public restricted {\n        lowStarBurnPowerPerPoint = powerPerBurnPoint;\n    }\n    function setFourStarBurnPowerPerPoint(uint256 powerPerBurnPoint) public restricted {\n        fourStarBurnPowerPerPoint = powerPerBurnPoint;\n    }\n    function setFiveStarBurnPowerPerPoint(uint256 powerPerBurnPoint) public restricted {\n        fiveStarBurnPowerPerPoint = powerPerBurnPoint;\n    }\n\n    function getDurabilityTimestamp(uint256 id) public view returns (uint64) {\n        return durabilityTimestamp[id];\n    }\n\n    function setDurabilityTimestamp(uint256 id, uint64 timestamp) public restricted {\n        durabilityTimestamp[id] = timestamp;\n    }\n\n    function getDurabilityPoints(uint256 id) public view returns (uint8) {\n        return getDurabilityPointsFromTimestamp(durabilityTimestamp[id]);\n    }\n\n    function getDurabilityPointsFromTimestamp(uint64 timestamp) public view returns (uint8) {\n        if(timestamp  > now)\n            return 0;\n\n        uint256 points = (now - timestamp) / secondsPerDurability;\n        if(points > maxDurability) {\n            points = maxDurability;\n        }\n        return uint8(points);\n    }\n\n    function isDurabilityFull(uint256 id) public view returns (bool) {\n        return getDurabilityPoints(id) >= maxDurability;\n    }\n\n    function getDurabilityMaxWait() public pure returns (uint64) {\n        return uint64(maxDurability * secondsPerDurability);\n    }\n\n    function _beforeTokenTransfer(address from, address to, uint256 tokenId) internal override {\n        if(promos.getBit(from, 4) && from != address(0) && to != address(0)) {\n            require(hasRole(RECEIVE_DOES_NOT_SET_TRANSFER_TIMESTAMP, to), \"Transfer cooldown\");\n        }\n    }\n}\n",
  "sourcePath": "D:\\Projetos Crypto\\CryptoWaifu\\0.1\\contracts\\weapons.sol",
  "compiler": {
    "name": "solc",
    "version": "0.6.5+commit.f956cc89.Emscripten.clang"
  },
  "schemaVersion": "3.3.4",
  "updatedAt": "2021-08-16T01:26:14.592Z",
  "devdoc": {
    "methods": {
      "approve(address,uint256)": {
        "details": "See {IERC721-approve}."
      },
      "balanceOf(address)": {
        "details": "See {IERC721-balanceOf}."
      },
      "baseURI()": {
        "details": "Returns the base URI set via {_setBaseURI}. This will be automatically added as a prefix in {tokenURI} to each token's URI, or to the token ID if no specific URI is set for that token ID."
      },
      "getApproved(uint256)": {
        "details": "See {IERC721-getApproved}."
      },
      "getRoleAdmin(bytes32)": {
        "details": "Returns the admin role that controls `role`. See {grantRole} and {revokeRole}.     * To change a role's admin, use {_setRoleAdmin}."
      },
      "getRoleMember(bytes32,uint256)": {
        "details": "Returns one of the accounts that have `role`. `index` must be a value between 0 and {getRoleMemberCount}, non-inclusive.     * Role bearers are not sorted in any particular way, and their ordering may change at any point.     * WARNING: When using {getRoleMember} and {getRoleMemberCount}, make sure you perform all queries on the same block. See the following https://forum.openzeppelin.com/t/iterating-over-elements-on-enumerableset-in-openzeppelin-contracts/2296[forum post] for more information."
      },
      "getRoleMemberCount(bytes32)": {
        "details": "Returns the number of accounts that have `role`. Can be used together with {getRoleMember} to enumerate all bearers of a role."
      },
      "grantRole(bytes32,address)": {
        "details": "Grants `role` to `account`.     * If `account` had not been already granted `role`, emits a {RoleGranted} event.     * Requirements:     * - the caller must have ``role``'s admin role."
      },
      "hasRole(bytes32,address)": {
        "details": "Returns `true` if `account` has been granted `role`."
      },
      "isApprovedForAll(address,address)": {
        "details": "See {IERC721-isApprovedForAll}."
      },
      "name()": {
        "details": "See {IERC721Metadata-name}."
      },
      "ownerOf(uint256)": {
        "details": "See {IERC721-ownerOf}."
      },
      "renounceRole(bytes32,address)": {
        "details": "Revokes `role` from the calling account.     * Roles are often managed via {grantRole} and {revokeRole}: this function's purpose is to provide a mechanism for accounts to lose their privileges if they are compromised (such as when a trusted device is misplaced).     * If the calling account had been granted `role`, emits a {RoleRevoked} event.     * Requirements:     * - the caller must be `account`."
      },
      "revokeRole(bytes32,address)": {
        "details": "Revokes `role` from `account`.     * If `account` had been granted `role`, emits a {RoleRevoked} event.     * Requirements:     * - the caller must have ``role``'s admin role."
      },
      "safeTransferFrom(address,address,uint256)": {
        "details": "See {IERC721-safeTransferFrom}."
      },
      "safeTransferFrom(address,address,uint256,bytes)": {
        "details": "See {IERC721-safeTransferFrom}."
      },
      "setApprovalForAll(address,bool)": {
        "details": "See {IERC721-setApprovalForAll}."
      },
      "supportsInterface(bytes4)": {
        "details": "See {IERC165-supportsInterface}.     * Time complexity O(1), guaranteed to always use less than 30 000 gas."
      },
      "symbol()": {
        "details": "See {IERC721Metadata-symbol}."
      },
      "tokenByIndex(uint256)": {
        "details": "See {IERC721Enumerable-tokenByIndex}."
      },
      "tokenOfOwnerByIndex(address,uint256)": {
        "details": "See {IERC721Enumerable-tokenOfOwnerByIndex}."
      },
      "tokenURI(uint256)": {
        "details": "See {IERC721Metadata-tokenURI}."
      },
      "totalSupply()": {
        "details": "See {IERC721Enumerable-totalSupply}."
      },
      "transferFrom(address,address,uint256)": {
        "details": "See {IERC721-transferFrom}."
      }
    }
  },
  "userdoc": {
    "methods": {}
  }
}